{
  "contractName": "Lottery",
  "abi": [
    {
      "inputs": [],
      "stateMutability": "nonpayable",
      "type": "constructor"
    },
    {
      "anonymous": false,
      "inputs": [
        {
          "indexed": false,
          "internalType": "uint256",
          "name": "_newLotteryExpiration",
          "type": "uint256"
        }
      ],
      "name": "LotteryRestart",
      "type": "event"
    },
    {
      "anonymous": false,
      "inputs": [
        {
          "indexed": false,
          "internalType": "bool",
          "name": "_refundAllTickets",
          "type": "bool"
        }
      ],
      "name": "RefundAllTickets",
      "type": "event"
    },
    {
      "anonymous": false,
      "inputs": [
        {
          "indexed": false,
          "internalType": "address",
          "name": "_buyerAddress",
          "type": "address"
        },
        {
          "indexed": false,
          "internalType": "uint256",
          "name": "_ticketsBought",
          "type": "uint256"
        }
      ],
      "name": "TicketsBought",
      "type": "event"
    },
    {
      "anonymous": false,
      "inputs": [
        {
          "indexed": false,
          "internalType": "address",
          "name": "_winnerAddress",
          "type": "address"
        },
        {
          "indexed": false,
          "internalType": "uint256",
          "name": "_winnersWinnings",
          "type": "uint256"
        }
      ],
      "name": "WinnerTicketDrawn",
      "type": "event"
    },
    {
      "inputs": [],
      "name": "duration",
      "outputs": [
        {
          "internalType": "uint256",
          "name": "",
          "type": "uint256"
        }
      ],
      "stateMutability": "view",
      "type": "function"
    },
    {
      "inputs": [],
      "name": "expiration",
      "outputs": [
        {
          "internalType": "uint256",
          "name": "",
          "type": "uint256"
        }
      ],
      "stateMutability": "view",
      "type": "function"
    },
    {
      "inputs": [],
      "name": "lastWinner",
      "outputs": [
        {
          "internalType": "address",
          "name": "_lastWinnerAddress",
          "type": "address"
        },
        {
          "internalType": "uint256",
          "name": "_lastWinnerWinnings",
          "type": "uint256"
        }
      ],
      "stateMutability": "view",
      "type": "function"
    },
    {
      "inputs": [],
      "name": "lotteryOwner",
      "outputs": [
        {
          "internalType": "address",
          "name": "",
          "type": "address"
        }
      ],
      "stateMutability": "view",
      "type": "function"
    },
    {
      "inputs": [],
      "name": "lotteryOwnerTotalCommission",
      "outputs": [
        {
          "internalType": "uint256",
          "name": "",
          "type": "uint256"
        }
      ],
      "stateMutability": "view",
      "type": "function"
    },
    {
      "inputs": [],
      "name": "maxTickets",
      "outputs": [
        {
          "internalType": "uint256",
          "name": "",
          "type": "uint256"
        }
      ],
      "stateMutability": "view",
      "type": "function"
    },
    {
      "inputs": [],
      "name": "ticketCommission",
      "outputs": [
        {
          "internalType": "uint256",
          "name": "",
          "type": "uint256"
        }
      ],
      "stateMutability": "view",
      "type": "function"
    },
    {
      "inputs": [],
      "name": "ticketPrice",
      "outputs": [
        {
          "internalType": "uint256",
          "name": "",
          "type": "uint256"
        }
      ],
      "stateMutability": "view",
      "type": "function"
    },
    {
      "inputs": [
        {
          "internalType": "uint256",
          "name": "",
          "type": "uint256"
        }
      ],
      "name": "tickets",
      "outputs": [
        {
          "internalType": "address",
          "name": "",
          "type": "address"
        }
      ],
      "stateMutability": "view",
      "type": "function"
    },
    {
      "inputs": [
        {
          "internalType": "address",
          "name": "",
          "type": "address"
        }
      ],
      "name": "winnings",
      "outputs": [
        {
          "internalType": "uint256",
          "name": "",
          "type": "uint256"
        }
      ],
      "stateMutability": "view",
      "type": "function"
    },
    {
      "inputs": [],
      "name": "getTickets",
      "outputs": [
        {
          "internalType": "address[]",
          "name": "",
          "type": "address[]"
        }
      ],
      "stateMutability": "view",
      "type": "function"
    },
    {
      "inputs": [
        {
          "internalType": "address",
          "name": "addr",
          "type": "address"
        }
      ],
      "name": "getWinningsForAddress",
      "outputs": [
        {
          "internalType": "uint256",
          "name": "",
          "type": "uint256"
        }
      ],
      "stateMutability": "view",
      "type": "function"
    },
    {
      "inputs": [],
      "name": "BuyTickets",
      "outputs": [],
      "stateMutability": "payable",
      "type": "function"
    },
    {
      "inputs": [],
      "name": "DrawWinnerTicket",
      "outputs": [],
      "stateMutability": "nonpayable",
      "type": "function"
    },
    {
      "inputs": [],
      "name": "restartLottery",
      "outputs": [],
      "stateMutability": "nonpayable",
      "type": "function"
    },
    {
      "inputs": [],
      "name": "checkWinningsAmount",
      "outputs": [
        {
          "internalType": "uint256",
          "name": "",
          "type": "uint256"
        }
      ],
      "stateMutability": "view",
      "type": "function"
    },
    {
      "inputs": [],
      "name": "WithdrawWinnings",
      "outputs": [],
      "stateMutability": "nonpayable",
      "type": "function"
    },
    {
      "inputs": [],
      "name": "RefundAll",
      "outputs": [],
      "stateMutability": "nonpayable",
      "type": "function"
    },
    {
      "inputs": [],
      "name": "WithdrawCommission",
      "outputs": [],
      "stateMutability": "nonpayable",
      "type": "function"
    },
    {
      "inputs": [],
      "name": "IsWinner",
      "outputs": [
        {
          "internalType": "bool",
          "name": "",
          "type": "bool"
        }
      ],
      "stateMutability": "view",
      "type": "function"
    },
    {
      "inputs": [],
      "name": "CurrentWinningReward",
      "outputs": [
        {
          "internalType": "uint256",
          "name": "",
          "type": "uint256"
        }
      ],
      "stateMutability": "view",
      "type": "function"
    },
    {
      "inputs": [],
      "name": "RemainingTickets",
      "outputs": [
        {
          "internalType": "uint256",
          "name": "",
          "type": "uint256"
        }
      ],
      "stateMutability": "view",
      "type": "function"
    }
  ],
  "bytecode": "0x608060405260006002553480156200001657600080fd5b5033600160006101000a81548173ffffffffffffffffffffffffffffffffffffffff021916908373ffffffffffffffffffffffffffffffffffffffff16021790555061070842620000689190620000ad565b600081905550620000e8565b6000819050919050565b7f4e487b7100000000000000000000000000000000000000000000000000000000600052601160045260246000fd5b6000620000ba8262000074565b9150620000c78362000074565b9250828201905080821115620000e257620000e16200007e565b5b92915050565b611c7780620000f86000396000f3fe6080604052600436106101355760003560e01c806371827b7b116100ab578063a88f46721161006f578063a88f46721461038b578063c6944fa0146103a2578063c7f85bcb146103cd578063dd64e534146103f8578063ea3a149914610435578063fe1881841461047257610135565b806371827b7b146102e957806391d8b14e1461030057806393a563b51461030a57806396c85ef3146103355780639b8947031461036057610135565b806335580df2116100fd57806335580df2146101fd5780634665096d146102145780634788af7c1461023f5780634ed026221461025657806350b44712146102815780636032a4f9146102be57610135565b80630789c6071461013a5780630e689a8c146101655780630fb5a6b4146101905780630fcaed94146101bb5780631209b1f6146101d2575b600080fd5b34801561014657600080fd5b5061014f61049e565b60405161015c91906112eb565b60405180910390f35b34801561017157600080fd5b5061017a6104f0565b6040516101879190611347565b60405180910390f35b34801561019c57600080fd5b506101a5610516565b6040516101b291906112eb565b60405180910390f35b3480156101c757600080fd5b506101d061051c565b005b3480156101de57600080fd5b506101e7610651565b6040516101f491906112eb565b60405180910390f35b34801561020957600080fd5b5061021261065c565b005b34801561022057600080fd5b5061022961074b565b60405161023691906112eb565b60405180910390f35b34801561024b57600080fd5b50610254610751565b005b34801561026257600080fd5b5061026b610ad6565b6040516102789190611420565b60405180910390f35b34801561028d57600080fd5b506102a860048036038101906102a39190611473565b610b64565b6040516102b59190611347565b60405180910390f35b3480156102ca57600080fd5b506102d3610ba3565b6040516102e091906112eb565b60405180910390f35b3480156102f557600080fd5b506102fe610bae565b005b610308610cce565b005b34801561031657600080fd5b5061031f610e74565b60405161032c91906112eb565b60405180910390f35b34801561034157600080fd5b5061034a610e8d565b60405161035791906114bb565b60405180910390f35b34801561036c57600080fd5b50610375610ed6565b60405161038291906112eb565b60405180910390f35b34801561039757600080fd5b506103a0610edb565b005b3480156103ae57600080fd5b506103b761107c565b6040516103c491906112eb565b60405180910390f35b3480156103d957600080fd5b506103e261109b565b6040516103ef91906112eb565b60405180910390f35b34801561040457600080fd5b5061041f600480360381019061041a9190611502565b6110a1565b60405161042c91906112eb565b60405180910390f35b34801561044157600080fd5b5061045c60048036038101906104579190611502565b6110ea565b60405161046991906112eb565b60405180910390f35b34801561047e57600080fd5b50610487611102565b60405161049592919061152f565b60405180910390f35b6000803390506000600560008373ffffffffffffffffffffffffffffffffffffffff1673ffffffffffffffffffffffffffffffffffffffff168152602001908152602001600020549050809250505090565b600160009054906101000a900473ffffffffffffffffffffffffffffffffffffffff1681565b61070881565b600160009054906101000a900473ffffffffffffffffffffffffffffffffffffffff1673ffffffffffffffffffffffffffffffffffffffff163373ffffffffffffffffffffffffffffffffffffffff16146105ac576040517f08c379a00000000000000000000000000000000000000000000000000000000081526004016105a3906115b5565b60405180910390fd5b6000600680549050146105f4576040517f08c379a00000000000000000000000000000000000000000000000000000000081526004016105eb90611647565b60405180910390fd5b600660006106029190611294565b610708426106109190611696565b6000819055507fde4593ad0ecab8ac92da54a08a3f8e7e2e19f273513f9eb8724e4cf5b0b48e6560005460405161064791906112eb565b60405180910390a1565b662386f26fc1000081565b600160009054906101000a900473ffffffffffffffffffffffffffffffffffffffff1673ffffffffffffffffffffffffffffffffffffffff163373ffffffffffffffffffffffffffffffffffffffff16146106ec576040517f08c379a00000000000000000000000000000000000000000000000000000000081526004016106e3906115b5565b60405180910390fd5b6000339050600060025490508173ffffffffffffffffffffffffffffffffffffffff166108fc829081150290604051600060405180830381858888f1935050505015801561073e573d6000803e3d6000fd5b5060006002819055505050565b60005481565b600160009054906101000a900473ffffffffffffffffffffffffffffffffffffffff1673ffffffffffffffffffffffffffffffffffffffff163373ffffffffffffffffffffffffffffffffffffffff16146107e1576040517f08c379a00000000000000000000000000000000000000000000000000000000081526004016107d8906115b5565b60405180910390fd5b600060068054905011610829576040517f08c379a000000000000000000000000000000000000000000000000000000000815260040161082090611716565b60405180910390fd5b60006006805490504361083c9190611736565b409050600042826040516020016108549291906117b6565b6040516020818303038152906040528051906020012060001c90506000600680549050826108829190611811565b905060006006828154811061089a57610899611842565b5b9060005260206000200160009054906101000a900473ffffffffffffffffffffffffffffffffffffffff16905066038d7ea4c68000662386f26fc100006108e19190611736565b6006805490506108f19190611871565b600560008373ffffffffffffffffffffffffffffffffffffffff1673ffffffffffffffffffffffffffffffffffffffff168152602001908152602001600020600082825461093f9190611696565b9250508190555060405180604001604052808273ffffffffffffffffffffffffffffffffffffffff168152602001600560008473ffffffffffffffffffffffffffffffffffffffff1673ffffffffffffffffffffffffffffffffffffffff16815260200190815260200160002054815250600360008201518160000160006101000a81548173ffffffffffffffffffffffffffffffffffffffff021916908373ffffffffffffffffffffffffffffffffffffffff1602179055506020820151816001015590505066038d7ea4c68000600680549050610a1e9190611871565b60026000828254610a2f9190611696565b9250508190555060066000610a449190611294565b61070842610a529190611696565b6000819055507fe06b90cf76586409637e6cd9d0eb1c0a9b34d08e7ca116f7d454a8facfddadb781600560008473ffffffffffffffffffffffffffffffffffffffff1673ffffffffffffffffffffffffffffffffffffffff16815260200190815260200160002054604051610ac892919061152f565b60405180910390a150505050565b60606006805480602002602001604051908101604052809291908181526020018280548015610b5a57602002820191906000526020600020905b8160009054906101000a900473ffffffffffffffffffffffffffffffffffffffff1673ffffffffffffffffffffffffffffffffffffffff1681526020019060010190808311610b10575b5050505050905090565b60068181548110610b7457600080fd5b906000526020600020016000915054906101000a900473ffffffffffffffffffffffffffffffffffffffff1681565b66038d7ea4c6800081565b610bb6610e8d565b610bf5576040517f08c379a0000000000000000000000000000000000000000000000000000000008152600401610bec906118ff565b60405180910390fd5b60003390506000600560008373ffffffffffffffffffffffffffffffffffffffff1673ffffffffffffffffffffffffffffffffffffffff1681526020019081526020016000205490508173ffffffffffffffffffffffffffffffffffffffff166108fc829081150290604051600060405180830381858888f19350505050158015610c84573d6000803e3d6000fd5b506000600560008473ffffffffffffffffffffffffffffffffffffffff1673ffffffffffffffffffffffffffffffffffffffff168152602001908152602001600020819055505050565b6000662386f26fc1000034610ce39190611811565b14610cf4662386f26fc10000611134565b604051602001610d049190611a28565b60405160208183030381529060405290610d54576040517f08c379a0000000000000000000000000000000000000000000000000000000008152600401610d4b9190611a9f565b60405180910390fd5b506000662386f26fc1000034610d6a9190611ac1565b9050610d74610e74565b811115610db6576040517f08c379a0000000000000000000000000000000000000000000000000000000008152600401610dad90611b3e565b60405180910390fd5b60005b81811015610e37576006339080600181540180825580915050600190039060005260206000200160009091909190916101000a81548173ffffffffffffffffffffffffffffffffffffffff021916908373ffffffffffffffffffffffffffffffffffffffff1602179055508080610e2f90611b5e565b915050610db9565b507fb24ee662b0a257d0321d324e737d2507fbe45df8af8d0da951f630f3754eb6a03382604051610e6992919061152f565b60405180910390a150565b60006006805490506064610e889190611736565b905090565b600080600560003373ffffffffffffffffffffffffffffffffffffffff1673ffffffffffffffffffffffffffffffffffffffff1681526020019081526020016000205411905090565b606481565b600054421015610f20576040517f08c379a0000000000000000000000000000000000000000000000000000000008152600401610f1790611bf2565b60405180910390fd5b60005b60068054905081101561103357600060068281548110610f4657610f45611842565b5b9060005260206000200160009054906101000a900473ffffffffffffffffffffffffffffffffffffffff169050600060068381548110610f8957610f88611842565b5b9060005260206000200160006101000a81548173ffffffffffffffffffffffffffffffffffffffff021916908373ffffffffffffffffffffffffffffffffffffffff1602179055508073ffffffffffffffffffffffffffffffffffffffff166108fc662386f26fc100009081150290604051600060405180830381858888f1935050505015801561101e573d6000803e3d6000fd5b5050808061102b90611b5e565b915050610f23565b50600660006110429190611294565b7fa161fafeaa79169aac099499c933b53bf1778e93b9b0c3e0c5cc31a8e66010a7600160405161107291906114bb565b60405180910390a1565b6000662386f26fc100006006805490506110969190611871565b905090565b60025481565b6000600560008373ffffffffffffffffffffffffffffffffffffffff1673ffffffffffffffffffffffffffffffffffffffff168152602001908152602001600020549050919050565b60056020528060005260406000206000915090505481565b60038060000160009054906101000a900473ffffffffffffffffffffffffffffffffffffffff16908060010154905082565b60606000820361117b576040518060400160405280600181526020017f3000000000000000000000000000000000000000000000000000000000000000815250905061128f565b600082905060005b600082146111ad57808061119690611b5e565b915050600a826111a69190611ac1565b9150611183565b60008167ffffffffffffffff8111156111c9576111c8611c12565b5b6040519080825280601f01601f1916602001820160405280156111fb5781602001600182028036833780820191505090505b5090505b60008514611288576001826112149190611736565b9150600a856112239190611811565b603061122f9190611696565b60f81b81838151811061124557611244611842565b5b60200101907effffffffffffffffffffffffffffffffffffffffffffffffffffffffffffff1916908160001a905350600a856112819190611ac1565b94506111ff565b8093505050505b919050565b50805460008255906000526020600020908101906112b291906112b5565b50565b5b808211156112ce5760008160009055506001016112b6565b5090565b6000819050919050565b6112e5816112d2565b82525050565b600060208201905061130060008301846112dc565b92915050565b600073ffffffffffffffffffffffffffffffffffffffff82169050919050565b600061133182611306565b9050919050565b61134181611326565b82525050565b600060208201905061135c6000830184611338565b92915050565b600081519050919050565b600082825260208201905092915050565b6000819050602082019050919050565b61139781611326565b82525050565b60006113a9838361138e565b60208301905092915050565b6000602082019050919050565b60006113cd82611362565b6113d7818561136d565b93506113e28361137e565b8060005b838110156114135781516113fa888261139d565b9750611405836113b5565b9250506001810190506113e6565b5085935050505092915050565b6000602082019050818103600083015261143a81846113c2565b905092915050565b600080fd5b611450816112d2565b811461145b57600080fd5b50565b60008135905061146d81611447565b92915050565b60006020828403121561148957611488611442565b5b60006114978482850161145e565b91505092915050565b60008115159050919050565b6114b5816114a0565b82525050565b60006020820190506114d060008301846114ac565b92915050565b6114df81611326565b81146114ea57600080fd5b50565b6000813590506114fc816114d6565b92915050565b60006020828403121561151857611517611442565b5b6000611526848285016114ed565b91505092915050565b60006040820190506115446000830185611338565b61155160208301846112dc565b9392505050565b600082825260208201905092915050565b7f43616c6c6572206973206e6f7420746865206c6f7474657279206f776e657200600082015250565b600061159f601f83611558565b91506115aa82611569565b602082019050919050565b600060208201905081810360008301526115ce81611592565b9050919050565b7f43616e6e6f742052657374617274204c6f7474657279206173204c6f7474657260008201527f7920697320696e20706c61790000000000000000000000000000000000000000602082015250565b6000611631602c83611558565b915061163c826115d5565b604082019050919050565b6000602082019050818103600083015261166081611624565b9050919050565b7f4e487b7100000000000000000000000000000000000000000000000000000000600052601160045260246000fd5b60006116a1826112d2565b91506116ac836112d2565b92508282019050808211156116c4576116c3611667565b5b92915050565b7f4e6f207469636b65747320776572652070757263686173656400000000000000600082015250565b6000611700601983611558565b915061170b826116ca565b602082019050919050565b6000602082019050818103600083015261172f816116f3565b9050919050565b6000611741826112d2565b915061174c836112d2565b925082820390508181111561176457611763611667565b5b92915050565b6000819050919050565b611785611780826112d2565b61176a565b82525050565b6000819050919050565b6000819050919050565b6117b06117ab8261178b565b611795565b82525050565b60006117c28285611774565b6020820191506117d2828461179f565b6020820191508190509392505050565b7f4e487b7100000000000000000000000000000000000000000000000000000000600052601260045260246000fd5b600061181c826112d2565b9150611827836112d2565b925082611837576118366117e2565b5b828206905092915050565b7f4e487b7100000000000000000000000000000000000000000000000000000000600052603260045260246000fd5b600061187c826112d2565b9150611887836112d2565b9250828202611895816112d2565b915082820484148315176118ac576118ab611667565b5b5092915050565b7f43616c6c6572206973206e6f7420612077696e6e657200000000000000000000600082015250565b60006118e9601683611558565b91506118f4826118b3565b602082019050919050565b60006020820190508181036000830152611918816118dc565b9050919050565b600081905092915050565b7f7468652076616c7565206d757374206265206d756c7469706c65206f66200000600082015250565b6000611960601e8361191f565b915061196b8261192a565b601e82019050919050565b600081519050919050565b60005b8381101561199f578082015181840152602081019050611984565b60008484015250505050565b60006119b682611976565b6119c0818561191f565b93506119d0818560208601611981565b80840191505092915050565b7f2045746865720000000000000000000000000000000000000000000000000000600082015250565b6000611a1260068361191f565b9150611a1d826119dc565b600682019050919050565b6000611a3382611953565b9150611a3f82846119ab565b9150611a4a82611a05565b915081905092915050565b6000601f19601f8301169050919050565b6000611a7182611976565b611a7b8185611558565b9350611a8b818560208601611981565b611a9481611a55565b840191505092915050565b60006020820190508181036000830152611ab98184611a66565b905092915050565b6000611acc826112d2565b9150611ad7836112d2565b925082611ae757611ae66117e2565b5b828204905092915050565b7f4e6f7420656e6f756768207469636b65747320617661696c61626c652e000000600082015250565b6000611b28601d83611558565b9150611b3382611af2565b602082019050919050565b60006020820190508181036000830152611b5781611b1b565b9050919050565b6000611b69826112d2565b91507fffffffffffffffffffffffffffffffffffffffffffffffffffffffffffffffff8203611b9b57611b9a611667565b5b600182019050919050565b7f746865206c6f747465727920686173206e6f7420657870697265642079657400600082015250565b6000611bdc601f83611558565b9150611be782611ba6565b602082019050919050565b60006020820190508181036000830152611c0b81611bcf565b9050919050565b7f4e487b7100000000000000000000000000000000000000000000000000000000600052604160045260246000fdfea26469706673582212207f63b25e759f58282dd0366718178c9cb64559238378d0e2eff81d295d24aa7764736f6c63430008110033",
  "immutableReferences": {},
  "source": "// SPDX-License-Identifier: GPL-3.0\nimport \"@openzeppelin/contracts/utils/Strings.sol\";\nimport \"@openzeppelin/contracts/utils/math/SafeMath.sol\";\nimport \"@openzeppelin/contracts/access/AccessControl.sol\";\nimport \"@openzeppelin/contracts/security/ReentrancyGuard.sol\";\n\npragma solidity >=0.8.0 <0.9.0;\n\n// @title A Contract for making a Lottery\n// @author K. Angelopoulos\n// @notice You can use this contract to construct new Lotteries\ncontract Lottery {\n\tusing SafeMath for uint256;\n\n\t// Struct to keep track of the last winner\n\tstruct LastWinner {\n\t\taddress _lastWinnerAddress; // last winner address\n\t\tuint256 _lastWinnerWinnings; // last winner winnings\n\t}\n\n\tuint256 public constant ticketPrice = 0.01 ether; // price per ticket\n\tuint256 public constant maxTickets = 100; // maximum tickets per lottery\n\tuint256 public constant ticketCommission = 0.001 ether; // commition per ticket for the lottery owner\n\tuint256 public constant duration = 30 minutes; // The duration set for the lottery\n\n\tuint256 public expiration; // Timeout in case that the lottery was not carried out.\n\taddress public lotteryOwner; // the creator of the lottery\n\tuint256 public lotteryOwnerTotalCommission = 0; // the total commission balance\n\tLastWinner public lastWinner; // the last winner of the lottery\n\n\tmapping(address => uint256) public winnings; // maps the winners to there winnings\n\taddress[] public tickets; //array of purchased Tickets\n\n\tconstructor() {\n\t\tlotteryOwner = msg.sender; // Address that deployed the contract\n\t\texpiration = block.timestamp + duration; // lottery expiration time\n\t}\n\n\t// @event: BuyTickets - Event for buying tickets\n\tevent TicketsBought(address _buyerAddress, uint256 _ticketsBought);\n\t// @event: DrawWinnerTicket - Event for drawing the winning ticket\n\tevent WinnerTicketDrawn(address _winnerAddress, uint256 _winnersWinnings);\n\t// @event: RefundAll - Event for restarting the lottery\n\tevent LotteryRestart(uint256 _newLotteryExpiration);\n\t// @event: RefundAll - Event for restarting the lottery\n\tevent RefundAllTickets(bool _refundAllTickets);\n\n\t// @info modifier to check if caller is the lottery owner\n\tmodifier isLotteryOwner() {\n\t\trequire((msg.sender == lotteryOwner), \"Caller is not the lottery owner\");\n\t\t_;\n\t}\n\n\t// @info modifier to check if caller is a winner\n\tmodifier isWinner() {\n\t\trequire(IsWinner(), \"Caller is not a winner\");\n\t\t_;\n\t}\n\n\t// @info return all the tickets\n\tfunction getTickets() public view returns (address[] memory) {\n\t\treturn tickets;\n\t}\n\n\t// @info return winnings for specific caller address\n\tfunction getWinningsForAddress(address addr) public view returns (uint256) {\n\t\treturn winnings[addr];\n\t}\n\n\t// @info Buy tickets for the lottery\n\tfunction BuyTickets() public payable {\n\t\t// Check if buyer sends the correct amount of money\n\t\trequire(\n\t\t\tmsg.value % ticketPrice == 0,\n\t\t\t// use abi.encodePacked instead of string.concat to reduce the gas consumption\n\t\t\t// https://ethereum.stackexchange.com/questions/729/how-to-concatenate-strings-in-solidity\n\t\t\tstring(\n\t\t\t\tabi.encodePacked(\n\t\t\t\t\t\"the value must be multiple of \",\n\t\t\t\t\tStrings.toString(ticketPrice),\n\t\t\t\t\t\" Ether\"\n\t\t\t\t)\n\t\t\t)\n\t\t);\n\n\t\t// Get number of tickets to buy\n\t\tuint256 numOfTicketsToBuy = msg.value / ticketPrice;\n\n\t\t// Check if there are enough tickets to buy\n\t\trequire(\n\t\t\tnumOfTicketsToBuy <= RemainingTickets(),\n\t\t\t\"Not enough tickets available.\"\n\t\t);\n\n\t\t// Push buyer to tickets array\n\t\tfor (uint256 i = 0; i < numOfTicketsToBuy; i++) {\n\t\t\ttickets.push(msg.sender);\n\t\t}\n\n\t\t// Emit event for tickets bought\n\t\temit TicketsBought(msg.sender, numOfTicketsToBuy);\n\t}\n\n\t// @info Draw the winning ticket at random\n\t// @notice Only the lottery owner can execute this\n\tfunction DrawWinnerTicket() public isLotteryOwner {\n\t\t// Check if there is at least one ticket\n\t\trequire(tickets.length > 0, \"No tickets were purchased\");\n\t\t// Get the hash from the first block\n\t\tbytes32 blockHash = blockhash(block.number - tickets.length);\n\t\t// generate a random nonce from the first lottery block hash and the last lottery block timestamp\n\t\tuint256 randomNumber = uint256(\n\t\t\tkeccak256(abi.encodePacked(block.timestamp, blockHash))\n\t\t);\n\t\t// calculate the mod of the randomNumber in order for the winning ticket to be in range of the bought tickets\n\t\tuint256 winningTicket = randomNumber % tickets.length;\n\t\t// get the address of the winner\n\t\taddress winner = tickets[winningTicket];\n\t\t// update winnings map with {winner: winnings}\n\t\twinnings[winner] += (tickets.length * (ticketPrice - ticketCommission));\n\t\t// update last winner\n\t\tlastWinner = LastWinner(winner, winnings[winner]);\n\t\t// update lottery owner total commission\n\t\tlotteryOwnerTotalCommission += (tickets.length * ticketCommission);\n\t\t// empty tickets in order for the new lottery to start\n\t\tdelete tickets;\n\t\t// update lottery expiration time\n\t\texpiration = block.timestamp + duration;\n\t\t// Emit event for winning ticket drawn\n\t\temit WinnerTicketDrawn(winner, winnings[winner]);\n\t}\n\n\t// @info Restart the Lottery\n\t// @notice Only the lottery owner can execute this\n\tfunction restartLottery() public isLotteryOwner {\n\t\t// check if lottery tickets are empty\n\t\trequire(\n\t\t\ttickets.length == 0,\n\t\t\t\"Cannot Restart Lottery as Lottery is in play\"\n\t\t);\n\t\t// delete tickets again in order to be sure\n\t\tdelete tickets;\n\t\t// update lottery expiration time\n\t\texpiration = block.timestamp + duration;\n\t\t// Emit event for lottery restarting\n\t\temit LotteryRestart(expiration);\n\t}\n\n\t// @info Check the amassed ammount of winnings\n\tfunction checkWinningsAmount() public view returns (uint256) {\n\t\t// get the caller address\n\t\taddress payable winner = payable(msg.sender);\n\t\t// get the caller winnings\n\t\tuint256 reward2Transfer = winnings[winner];\n\t\t// return the caller winning\n\t\treturn reward2Transfer;\n\t}\n\n\t// @info Withdraw the callers winnings\n\t// @notice Only a winner can execute this\n\tfunction WithdrawWinnings() public isWinner {\n\t\t// get the caller address\n\t\taddress payable winner = payable(msg.sender);\n\t\t// get the caller winnings\n\t\tuint256 reward2Transfer = winnings[winner];\n\t\t// transfer winnings to caller\n\t\twinner.transfer(reward2Transfer);\n\t\t// delete the callers winnings after transferring the winnings\n\t\twinnings[winner] = 0;\n\t}\n\n\t// @info Refund all tickets\n\tfunction RefundAll() public {\n\t\t// check if lottery is active\n\t\trequire(block.timestamp >= expiration, \"the lottery has not expired yet\");\n\t\t// Loop over all tickets and for each ticket buyer address transfer back the ticket amount\n\t\tfor (uint256 i = 0; i < tickets.length; i++) {\n\t\t\taddress payable to = payable(tickets[i]); // Get ticket buyer address\n\t\t\ttickets[i] = address(0); // replace ticket address with null address\n\t\t\tto.transfer(ticketPrice); // send to ticket buyer address the ticket price back to refund them\n\t\t}\n\t\t// empty lottery tickets\n\t\tdelete tickets;\n\t\t// emit event for refunding all tickets\n\t\temit RefundAllTickets(true);\n\t}\n\n\t// @info Check if caller is winner\n\t// @notice Only the lottery owner can execute this\n\tfunction WithdrawCommission() public isLotteryOwner {\n\t\t// get the caller address (owner address)\n\t\taddress payable lotterOwner = payable(msg.sender);\n\t\t// get the lottery owner commission\n\t\tuint256 totalCommissionToTransfer = lotteryOwnerTotalCommission;\n\t\t// transfer winnings to lottery owner address\n\t\tlotterOwner.transfer(totalCommissionToTransfer);\n\t\t// delete the operators commission after transferring the commission\n\t\tlotteryOwnerTotalCommission = 0;\n\t}\n\n\t// @info Check if caller is winner\n\tfunction IsWinner() public view returns (bool) {\n\t\treturn winnings[msg.sender] > 0;\n\t}\n\n\t// @info Get current winning reward\n\tfunction CurrentWinningReward() public view returns (uint256) {\n\t\treturn tickets.length * ticketPrice;\n\t}\n\n\t// @info Get remaining lottery tickets\n\tfunction RemainingTickets() public view returns (uint256) {\n\t\treturn maxTickets - tickets.length;\n\t}\n}\n",
  "sourcePath": "D:\\dev\\consensys\\web3-lottery\\node_modules\\crypto_lottery_contract\\contracts\\Lottery.sol",
  "compiler": {
    "name": "solc",
    "version": "0.8.17+commit.8df45f5f.Emscripten.clang"
  },
  "schemaVersion": "3.4.10",
  "updatedAt": "2022-10-11T18:47:02.743Z",
  "devdoc": {
    "kind": "dev",
    "methods": {},
    "version": 1
  },
  "userdoc": {
    "kind": "user",
    "methods": {},
    "version": 1
  }
}