{
  "contractName": "Lottery",
  "abi": [
    {
      "inputs": [],
      "stateMutability": "nonpayable",
      "type": "constructor"
    },
    {
      "anonymous": false,
      "inputs": [
        {
          "indexed": false,
          "internalType": "uint256",
          "name": "_newLotteryExpiration",
          "type": "uint256"
        }
      ],
      "name": "LotteryRestart",
      "type": "event"
    },
    {
      "anonymous": false,
      "inputs": [
        {
          "indexed": false,
          "internalType": "bool",
          "name": "_refundAllTickets",
          "type": "bool"
        }
      ],
      "name": "RefundAllTickets",
      "type": "event"
    },
    {
      "anonymous": false,
      "inputs": [
        {
          "indexed": true,
          "internalType": "bytes32",
          "name": "role",
          "type": "bytes32"
        },
        {
          "indexed": true,
          "internalType": "bytes32",
          "name": "previousAdminRole",
          "type": "bytes32"
        },
        {
          "indexed": true,
          "internalType": "bytes32",
          "name": "newAdminRole",
          "type": "bytes32"
        }
      ],
      "name": "RoleAdminChanged",
      "type": "event"
    },
    {
      "anonymous": false,
      "inputs": [
        {
          "indexed": true,
          "internalType": "bytes32",
          "name": "role",
          "type": "bytes32"
        },
        {
          "indexed": true,
          "internalType": "address",
          "name": "account",
          "type": "address"
        },
        {
          "indexed": true,
          "internalType": "address",
          "name": "sender",
          "type": "address"
        }
      ],
      "name": "RoleGranted",
      "type": "event"
    },
    {
      "anonymous": false,
      "inputs": [
        {
          "indexed": true,
          "internalType": "bytes32",
          "name": "role",
          "type": "bytes32"
        },
        {
          "indexed": true,
          "internalType": "address",
          "name": "account",
          "type": "address"
        },
        {
          "indexed": true,
          "internalType": "address",
          "name": "sender",
          "type": "address"
        }
      ],
      "name": "RoleRevoked",
      "type": "event"
    },
    {
      "anonymous": false,
      "inputs": [
        {
          "indexed": false,
          "internalType": "address",
          "name": "_buyerAddress",
          "type": "address"
        },
        {
          "indexed": false,
          "internalType": "uint256",
          "name": "_ticketsBought",
          "type": "uint256"
        }
      ],
      "name": "TicketsBought",
      "type": "event"
    },
    {
      "anonymous": false,
      "inputs": [
        {
          "indexed": false,
          "internalType": "address",
          "name": "_winnerAddress",
          "type": "address"
        },
        {
          "indexed": false,
          "internalType": "uint256",
          "name": "_winnersWinnings",
          "type": "uint256"
        }
      ],
      "name": "WinnerTicketDrawn",
      "type": "event"
    },
    {
      "inputs": [],
      "name": "DEFAULT_ADMIN_ROLE",
      "outputs": [
        {
          "internalType": "bytes32",
          "name": "",
          "type": "bytes32"
        }
      ],
      "stateMutability": "view",
      "type": "function"
    },
    {
      "inputs": [],
      "name": "duration",
      "outputs": [
        {
          "internalType": "uint256",
          "name": "",
          "type": "uint256"
        }
      ],
      "stateMutability": "view",
      "type": "function"
    },
    {
      "inputs": [],
      "name": "expiration",
      "outputs": [
        {
          "internalType": "uint256",
          "name": "",
          "type": "uint256"
        }
      ],
      "stateMutability": "view",
      "type": "function"
    },
    {
      "inputs": [
        {
          "internalType": "bytes32",
          "name": "role",
          "type": "bytes32"
        }
      ],
      "name": "getRoleAdmin",
      "outputs": [
        {
          "internalType": "bytes32",
          "name": "",
          "type": "bytes32"
        }
      ],
      "stateMutability": "view",
      "type": "function"
    },
    {
      "inputs": [
        {
          "internalType": "bytes32",
          "name": "role",
          "type": "bytes32"
        },
        {
          "internalType": "address",
          "name": "account",
          "type": "address"
        }
      ],
      "name": "grantRole",
      "outputs": [],
      "stateMutability": "nonpayable",
      "type": "function"
    },
    {
      "inputs": [
        {
          "internalType": "bytes32",
          "name": "role",
          "type": "bytes32"
        },
        {
          "internalType": "address",
          "name": "account",
          "type": "address"
        }
      ],
      "name": "hasRole",
      "outputs": [
        {
          "internalType": "bool",
          "name": "",
          "type": "bool"
        }
      ],
      "stateMutability": "view",
      "type": "function"
    },
    {
      "inputs": [],
      "name": "lastWinner",
      "outputs": [
        {
          "internalType": "address",
          "name": "_lastWinnerAddress",
          "type": "address"
        },
        {
          "internalType": "uint256",
          "name": "_lastWinnerWinnings",
          "type": "uint256"
        }
      ],
      "stateMutability": "view",
      "type": "function"
    },
    {
      "inputs": [],
      "name": "lotteryOwner",
      "outputs": [
        {
          "internalType": "address",
          "name": "",
          "type": "address"
        }
      ],
      "stateMutability": "view",
      "type": "function"
    },
    {
      "inputs": [],
      "name": "lotteryOwnerTotalCommission",
      "outputs": [
        {
          "internalType": "uint256",
          "name": "",
          "type": "uint256"
        }
      ],
      "stateMutability": "view",
      "type": "function"
    },
    {
      "inputs": [],
      "name": "maxTickets",
      "outputs": [
        {
          "internalType": "uint256",
          "name": "",
          "type": "uint256"
        }
      ],
      "stateMutability": "view",
      "type": "function"
    },
    {
      "inputs": [
        {
          "internalType": "bytes32",
          "name": "role",
          "type": "bytes32"
        },
        {
          "internalType": "address",
          "name": "account",
          "type": "address"
        }
      ],
      "name": "renounceRole",
      "outputs": [],
      "stateMutability": "nonpayable",
      "type": "function"
    },
    {
      "inputs": [
        {
          "internalType": "bytes32",
          "name": "role",
          "type": "bytes32"
        },
        {
          "internalType": "address",
          "name": "account",
          "type": "address"
        }
      ],
      "name": "revokeRole",
      "outputs": [],
      "stateMutability": "nonpayable",
      "type": "function"
    },
    {
      "inputs": [
        {
          "internalType": "bytes4",
          "name": "interfaceId",
          "type": "bytes4"
        }
      ],
      "name": "supportsInterface",
      "outputs": [
        {
          "internalType": "bool",
          "name": "",
          "type": "bool"
        }
      ],
      "stateMutability": "view",
      "type": "function"
    },
    {
      "inputs": [],
      "name": "ticketCommission",
      "outputs": [
        {
          "internalType": "uint256",
          "name": "",
          "type": "uint256"
        }
      ],
      "stateMutability": "view",
      "type": "function"
    },
    {
      "inputs": [],
      "name": "ticketPrice",
      "outputs": [
        {
          "internalType": "uint256",
          "name": "",
          "type": "uint256"
        }
      ],
      "stateMutability": "view",
      "type": "function"
    },
    {
      "inputs": [
        {
          "internalType": "uint256",
          "name": "",
          "type": "uint256"
        }
      ],
      "name": "tickets",
      "outputs": [
        {
          "internalType": "address",
          "name": "",
          "type": "address"
        }
      ],
      "stateMutability": "view",
      "type": "function"
    },
    {
      "inputs": [
        {
          "internalType": "address",
          "name": "",
          "type": "address"
        }
      ],
      "name": "winnings",
      "outputs": [
        {
          "internalType": "uint256",
          "name": "",
          "type": "uint256"
        }
      ],
      "stateMutability": "view",
      "type": "function"
    },
    {
      "inputs": [],
      "name": "getTickets",
      "outputs": [
        {
          "internalType": "address[]",
          "name": "",
          "type": "address[]"
        }
      ],
      "stateMutability": "view",
      "type": "function"
    },
    {
      "inputs": [
        {
          "internalType": "address",
          "name": "addr",
          "type": "address"
        }
      ],
      "name": "getWinningsForAddress",
      "outputs": [
        {
          "internalType": "uint256",
          "name": "",
          "type": "uint256"
        }
      ],
      "stateMutability": "view",
      "type": "function"
    },
    {
      "inputs": [],
      "name": "BuyTickets",
      "outputs": [],
      "stateMutability": "payable",
      "type": "function"
    },
    {
      "inputs": [],
      "name": "DrawWinnerTicket",
      "outputs": [
        {
          "internalType": "address",
          "name": "",
          "type": "address"
        }
      ],
      "stateMutability": "nonpayable",
      "type": "function"
    },
    {
      "inputs": [],
      "name": "restartLottery",
      "outputs": [],
      "stateMutability": "nonpayable",
      "type": "function"
    },
    {
      "inputs": [],
      "name": "checkWinningsAmount",
      "outputs": [
        {
          "internalType": "uint256",
          "name": "",
          "type": "uint256"
        }
      ],
      "stateMutability": "view",
      "type": "function"
    },
    {
      "inputs": [],
      "name": "WithdrawWinnings",
      "outputs": [],
      "stateMutability": "nonpayable",
      "type": "function"
    },
    {
      "inputs": [],
      "name": "RefundAll",
      "outputs": [],
      "stateMutability": "nonpayable",
      "type": "function"
    },
    {
      "inputs": [],
      "name": "WithdrawCommission",
      "outputs": [],
      "stateMutability": "nonpayable",
      "type": "function"
    },
    {
      "inputs": [],
      "name": "IsWinner",
      "outputs": [
        {
          "internalType": "bool",
          "name": "",
          "type": "bool"
        }
      ],
      "stateMutability": "view",
      "type": "function"
    },
    {
      "inputs": [],
      "name": "CurrentWinningReward",
      "outputs": [
        {
          "internalType": "uint256",
          "name": "",
          "type": "uint256"
        }
      ],
      "stateMutability": "view",
      "type": "function"
    },
    {
      "inputs": [],
      "name": "RemainingTickets",
      "outputs": [
        {
          "internalType": "uint256",
          "name": "",
          "type": "uint256"
        }
      ],
      "stateMutability": "view",
      "type": "function"
    }
  ],
  "bytecode": "0x608060405260006004553480156200001657600080fd5b50600160008190555033600360006101000a81548173ffffffffffffffffffffffffffffffffffffffff021916908373ffffffffffffffffffffffffffffffffffffffff16021790555061070842620000709190620000b5565b600281905550620000f0565b6000819050919050565b7f4e487b7100000000000000000000000000000000000000000000000000000000600052601160045260246000fd5b6000620000c2826200007c565b9150620000cf836200007c565b9250828201905080821115620000ea57620000e962000086565b5b92915050565b6129ff80620001006000396000f3fe6080604052600436106101c25760003560e01c80636032a4f9116100f7578063a217fddf11610095578063d547741f11610064578063d547741f146105cd578063dd64e534146105f6578063ea3a149914610633578063fe18818414610670576101c2565b8063a217fddf14610535578063a88f467214610560578063c6944fa014610577578063c7f85bcb146105a2576101c2565b806391d8b14e116100d157806391d8b14e146104aa57806393a563b5146104b457806396c85ef3146104df5780639b8947031461050a576101c2565b80636032a4f91461042b57806371827b7b1461045657806391d148541461046d576101c2565b80632f2ff15d116101645780634665096d1161013e5780634665096d1461036d5780634788af7c146103985780634ed02622146103c357806350b44712146103ee576101c2565b80632f2ff15d1461030457806335580df21461032d57806336568abe14610344576101c2565b80630fb5a6b4116101a05780630fb5a6b41461025a5780630fcaed94146102855780631209b1f61461029c578063248a9ca3146102c7576101c2565b806301ffc9a7146101c75780630789c607146102045780630e689a8c1461022f575b600080fd5b3480156101d357600080fd5b506101ee60048036038101906101e99190611d0a565b61069c565b6040516101fb9190611d52565b60405180910390f35b34801561021057600080fd5b50610219610716565b6040516102269190611d86565b60405180910390f35b34801561023b57600080fd5b50610244610768565b6040516102519190611de2565b60405180910390f35b34801561026657600080fd5b5061026f61078e565b60405161027c9190611d86565b60405180910390f35b34801561029157600080fd5b5061029a610794565b005b3480156102a857600080fd5b506102b16108c9565b6040516102be9190611d86565b60405180910390f35b3480156102d357600080fd5b506102ee60048036038101906102e99190611e33565b6108d4565b6040516102fb9190611e6f565b60405180910390f35b34801561031057600080fd5b5061032b60048036038101906103269190611eb6565b6108f4565b005b34801561033957600080fd5b50610342610915565b005b34801561035057600080fd5b5061036b60048036038101906103669190611eb6565b610a04565b005b34801561037957600080fd5b50610382610a87565b60405161038f9190611d86565b60405180910390f35b3480156103a457600080fd5b506103ad610a8d565b6040516103ba9190611de2565b60405180910390f35b3480156103cf57600080fd5b506103d8610e18565b6040516103e59190611fb4565b60405180910390f35b3480156103fa57600080fd5b5061041560048036038101906104109190612002565b610ea6565b6040516104229190611de2565b60405180910390f35b34801561043757600080fd5b50610440610ee5565b60405161044d9190611d86565b60405180910390f35b34801561046257600080fd5b5061046b610ef0565b005b34801561047957600080fd5b50610494600480360381019061048f9190611eb6565b611065565b6040516104a19190611d52565b60405180910390f35b6104b26110d0565b005b3480156104c057600080fd5b506104c9611276565b6040516104d69190611d86565b60405180910390f35b3480156104eb57600080fd5b506104f461128f565b6040516105019190611d52565b60405180910390f35b34801561051657600080fd5b5061051f6112d8565b60405161052c9190611d86565b60405180910390f35b34801561054157600080fd5b5061054a6112dd565b6040516105579190611e6f565b60405180910390f35b34801561056c57600080fd5b506105756112e4565b005b34801561058357600080fd5b5061058c611515565b6040516105999190611d86565b60405180910390f35b3480156105ae57600080fd5b506105b7611534565b6040516105c49190611d86565b60405180910390f35b3480156105d957600080fd5b506105f460048036038101906105ef9190611eb6565b61153a565b005b34801561060257600080fd5b5061061d6004803603810190610618919061202f565b61155b565b60405161062a9190611d86565b60405180910390f35b34801561063f57600080fd5b5061065a6004803603810190610655919061202f565b6115a4565b6040516106679190611d86565b60405180910390f35b34801561067c57600080fd5b506106856115bc565b60405161069392919061205c565b60405180910390f35b60007f7965db0b000000000000000000000000000000000000000000000000000000007bffffffffffffffffffffffffffffffffffffffffffffffffffffffff1916827bffffffffffffffffffffffffffffffffffffffffffffffffffffffff1916148061070f575061070e826115ee565b5b9050919050565b6000803390506000600760008373ffffffffffffffffffffffffffffffffffffffff1673ffffffffffffffffffffffffffffffffffffffff168152602001908152602001600020549050809250505090565b600360009054906101000a900473ffffffffffffffffffffffffffffffffffffffff1681565b61070881565b600360009054906101000a900473ffffffffffffffffffffffffffffffffffffffff1673ffffffffffffffffffffffffffffffffffffffff163373ffffffffffffffffffffffffffffffffffffffff1614610824576040517f08c379a000000000000000000000000000000000000000000000000000000000815260040161081b906120e2565b60405180910390fd5b60006008805490501461086c576040517f08c379a000000000000000000000000000000000000000000000000000000000815260040161086390612174565b60405180910390fd5b6008600061087a9190611c6f565b6107084261088891906121c3565b6002819055507fde4593ad0ecab8ac92da54a08a3f8e7e2e19f273513f9eb8724e4cf5b0b48e656002546040516108bf9190611d86565b60405180910390a1565b662386f26fc1000081565b600060016000838152602001908152602001600020600101549050919050565b6108fd826108d4565b61090681611658565b610910838361166c565b505050565b600360009054906101000a900473ffffffffffffffffffffffffffffffffffffffff1673ffffffffffffffffffffffffffffffffffffffff163373ffffffffffffffffffffffffffffffffffffffff16146109a5576040517f08c379a000000000000000000000000000000000000000000000000000000000815260040161099c906120e2565b60405180910390fd5b6000339050600060045490508173ffffffffffffffffffffffffffffffffffffffff166108fc829081150290604051600060405180830381858888f193505050501580156109f7573d6000803e3d6000fd5b5060006004819055505050565b610a0c61174c565b73ffffffffffffffffffffffffffffffffffffffff168173ffffffffffffffffffffffffffffffffffffffff1614610a79576040517f08c379a0000000000000000000000000000000000000000000000000000000008152600401610a7090612269565b60405180910390fd5b610a838282611754565b5050565b60025481565b6000600360009054906101000a900473ffffffffffffffffffffffffffffffffffffffff1673ffffffffffffffffffffffffffffffffffffffff163373ffffffffffffffffffffffffffffffffffffffff1614610b1f576040517f08c379a0000000000000000000000000000000000000000000000000000000008152600401610b16906120e2565b60405180910390fd5b600060088054905011610b67576040517f08c379a0000000000000000000000000000000000000000000000000000000008152600401610b5e906122d5565b60405180910390fd5b600060088054905043610b7a91906122f5565b40905060004282604051602001610b9292919061236b565b6040516020818303038152906040528051906020012060001c9050600060088054905082610bc091906123c6565b9050600060088281548110610bd857610bd76123f7565b5b9060005260206000200160009054906101000a900473ffffffffffffffffffffffffffffffffffffffff16905066038d7ea4c68000662386f26fc10000610c1f91906122f5565b600880549050610c2f9190612426565b600760008373ffffffffffffffffffffffffffffffffffffffff1673ffffffffffffffffffffffffffffffffffffffff1681526020019081526020016000206000828254610c7d91906121c3565b9250508190555060405180604001604052808273ffffffffffffffffffffffffffffffffffffffff168152602001600760008473ffffffffffffffffffffffffffffffffffffffff1673ffffffffffffffffffffffffffffffffffffffff16815260200190815260200160002054815250600560008201518160000160006101000a81548173ffffffffffffffffffffffffffffffffffffffff021916908373ffffffffffffffffffffffffffffffffffffffff1602179055506020820151816001015590505066038d7ea4c68000600880549050610d5c9190612426565b60046000828254610d6d91906121c3565b9250508190555060086000610d829190611c6f565b61070842610d9091906121c3565b6002819055507fe06b90cf76586409637e6cd9d0eb1c0a9b34d08e7ca116f7d454a8facfddadb781600760008473ffffffffffffffffffffffffffffffffffffffff1673ffffffffffffffffffffffffffffffffffffffff16815260200190815260200160002054604051610e0692919061205c565b60405180910390a18094505050505090565b60606008805480602002602001604051908101604052809291908181526020018280548015610e9c57602002820191906000526020600020905b8160009054906101000a900473ffffffffffffffffffffffffffffffffffffffff1673ffffffffffffffffffffffffffffffffffffffff1681526020019060010190808311610e52575b5050505050905090565b60088181548110610eb657600080fd5b906000526020600020016000915054906101000a900473ffffffffffffffffffffffffffffffffffffffff1681565b66038d7ea4c6800081565b610ef861128f565b610f37576040517f08c379a0000000000000000000000000000000000000000000000000000000008152600401610f2e906124b4565b60405180910390fd5b600260005403610f7c576040517f08c379a0000000000000000000000000000000000000000000000000000000008152600401610f7390612520565b60405180910390fd5b600260008190555060003390506000600760008373ffffffffffffffffffffffffffffffffffffffff1673ffffffffffffffffffffffffffffffffffffffff1681526020019081526020016000205490508173ffffffffffffffffffffffffffffffffffffffff166108fc829081150290604051600060405180830381858888f19350505050158015611013573d6000803e3d6000fd5b506000600760008473ffffffffffffffffffffffffffffffffffffffff1673ffffffffffffffffffffffffffffffffffffffff1681526020019081526020016000208190555050506001600081905550565b60006001600084815260200190815260200160002060000160008373ffffffffffffffffffffffffffffffffffffffff1673ffffffffffffffffffffffffffffffffffffffff16815260200190815260200160002060009054906101000a900460ff16905092915050565b6000662386f26fc10000346110e591906123c6565b146110f6662386f26fc10000611836565b6040516020016111069190612649565b60405160208183030381529060405290611156576040517f08c379a000000000000000000000000000000000000000000000000000000000815260040161114d91906126c0565b60405180910390fd5b506000662386f26fc100003461116c91906126e2565b9050611176611276565b8111156111b8576040517f08c379a00000000000000000000000000000000000000000000000000000000081526004016111af9061275f565b60405180910390fd5b60005b81811015611239576008339080600181540180825580915050600190039060005260206000200160009091909190916101000a81548173ffffffffffffffffffffffffffffffffffffffff021916908373ffffffffffffffffffffffffffffffffffffffff16021790555080806112319061277f565b9150506111bb565b507fb24ee662b0a257d0321d324e737d2507fbe45df8af8d0da951f630f3754eb6a0338260405161126b92919061205c565b60405180910390a150565b6000600880549050606461128a91906122f5565b905090565b600080600760003373ffffffffffffffffffffffffffffffffffffffff1673ffffffffffffffffffffffffffffffffffffffff1681526020019081526020016000205411905090565b606481565b6000801b81565b600360009054906101000a900473ffffffffffffffffffffffffffffffffffffffff1673ffffffffffffffffffffffffffffffffffffffff163373ffffffffffffffffffffffffffffffffffffffff1614611374576040517f08c379a000000000000000000000000000000000000000000000000000000000815260040161136b906120e2565b60405180910390fd5b6002544210156113b9576040517f08c379a00000000000000000000000000000000000000000000000000000000081526004016113b090612813565b60405180910390fd5b60005b6008805490508110156114cc576000600882815481106113df576113de6123f7565b5b9060005260206000200160009054906101000a900473ffffffffffffffffffffffffffffffffffffffff169050600060088381548110611422576114216123f7565b5b9060005260206000200160006101000a81548173ffffffffffffffffffffffffffffffffffffffff021916908373ffffffffffffffffffffffffffffffffffffffff1602179055508073ffffffffffffffffffffffffffffffffffffffff166108fc662386f26fc100009081150290604051600060405180830381858888f193505050501580156114b7573d6000803e3d6000fd5b505080806114c49061277f565b9150506113bc565b50600860006114db9190611c6f565b7fa161fafeaa79169aac099499c933b53bf1778e93b9b0c3e0c5cc31a8e66010a7600160405161150b9190611d52565b60405180910390a1565b6000662386f26fc1000060088054905061152f9190612426565b905090565b60045481565b611543826108d4565b61154c81611658565b6115568383611754565b505050565b6000600760008373ffffffffffffffffffffffffffffffffffffffff1673ffffffffffffffffffffffffffffffffffffffff168152602001908152602001600020549050919050565b60076020528060005260406000206000915090505481565b60058060000160009054906101000a900473ffffffffffffffffffffffffffffffffffffffff16908060010154905082565b60007f01ffc9a7000000000000000000000000000000000000000000000000000000007bffffffffffffffffffffffffffffffffffffffffffffffffffffffff1916827bffffffffffffffffffffffffffffffffffffffffffffffffffffffff1916149050919050565b6116698161166461174c565b611996565b50565b6116768282611065565b61174857600180600084815260200190815260200160002060000160008373ffffffffffffffffffffffffffffffffffffffff1673ffffffffffffffffffffffffffffffffffffffff16815260200190815260200160002060006101000a81548160ff0219169083151502179055506116ed61174c565b73ffffffffffffffffffffffffffffffffffffffff168173ffffffffffffffffffffffffffffffffffffffff16837f2f8788117e7eff1d82e926ec794901d17c78024a50270940304540a733656f0d60405160405180910390a45b5050565b600033905090565b61175e8282611065565b156118325760006001600084815260200190815260200160002060000160008373ffffffffffffffffffffffffffffffffffffffff1673ffffffffffffffffffffffffffffffffffffffff16815260200190815260200160002060006101000a81548160ff0219169083151502179055506117d761174c565b73ffffffffffffffffffffffffffffffffffffffff168173ffffffffffffffffffffffffffffffffffffffff16837ff6391f5c32d9c69d2a47ea670b442974b53935d1edc7fd64eb21e047a839171b60405160405180910390a45b5050565b60606000820361187d576040518060400160405280600181526020017f30000000000000000000000000000000000000000000000000000000000000008152509050611991565b600082905060005b600082146118af5780806118989061277f565b915050600a826118a891906126e2565b9150611885565b60008167ffffffffffffffff8111156118cb576118ca612833565b5b6040519080825280601f01601f1916602001820160405280156118fd5781602001600182028036833780820191505090505b5090505b6000851461198a5760018261191691906122f5565b9150600a8561192591906123c6565b603061193191906121c3565b60f81b818381518110611947576119466123f7565b5b60200101907effffffffffffffffffffffffffffffffffffffffffffffffffffffffffffff1916908160001a905350600a8561198391906126e2565b9450611901565b8093505050505b919050565b6119a08282611065565b611a2f576119c58173ffffffffffffffffffffffffffffffffffffffff166014611a33565b6119d38360001c6020611a33565b6040516020016119e49291906128fa565b6040516020818303038152906040526040517f08c379a0000000000000000000000000000000000000000000000000000000008152600401611a2691906126c0565b60405180910390fd5b5050565b606060006002836002611a469190612426565b611a5091906121c3565b67ffffffffffffffff811115611a6957611a68612833565b5b6040519080825280601f01601f191660200182016040528015611a9b5781602001600182028036833780820191505090505b5090507f300000000000000000000000000000000000000000000000000000000000000081600081518110611ad357611ad26123f7565b5b60200101907effffffffffffffffffffffffffffffffffffffffffffffffffffffffffffff1916908160001a9053507f780000000000000000000000000000000000000000000000000000000000000081600181518110611b3757611b366123f7565b5b60200101907effffffffffffffffffffffffffffffffffffffffffffffffffffffffffffff1916908160001a90535060006001846002611b779190612426565b611b8191906121c3565b90505b6001811115611c21577f3031323334353637383961626364656600000000000000000000000000000000600f861660108110611bc357611bc26123f7565b5b1a60f81b828281518110611bda57611bd96123f7565b5b60200101907effffffffffffffffffffffffffffffffffffffffffffffffffffffffffffff1916908160001a905350600485901c945080611c1a90612934565b9050611b84565b5060008414611c65576040517f08c379a0000000000000000000000000000000000000000000000000000000008152600401611c5c906129a9565b60405180910390fd5b8091505092915050565b5080546000825590600052602060002090810190611c8d9190611c90565b50565b5b80821115611ca9576000816000905550600101611c91565b5090565b600080fd5b60007fffffffff0000000000000000000000000000000000000000000000000000000082169050919050565b611ce781611cb2565b8114611cf257600080fd5b50565b600081359050611d0481611cde565b92915050565b600060208284031215611d2057611d1f611cad565b5b6000611d2e84828501611cf5565b91505092915050565b60008115159050919050565b611d4c81611d37565b82525050565b6000602082019050611d676000830184611d43565b92915050565b6000819050919050565b611d8081611d6d565b82525050565b6000602082019050611d9b6000830184611d77565b92915050565b600073ffffffffffffffffffffffffffffffffffffffff82169050919050565b6000611dcc82611da1565b9050919050565b611ddc81611dc1565b82525050565b6000602082019050611df76000830184611dd3565b92915050565b6000819050919050565b611e1081611dfd565b8114611e1b57600080fd5b50565b600081359050611e2d81611e07565b92915050565b600060208284031215611e4957611e48611cad565b5b6000611e5784828501611e1e565b91505092915050565b611e6981611dfd565b82525050565b6000602082019050611e846000830184611e60565b92915050565b611e9381611dc1565b8114611e9e57600080fd5b50565b600081359050611eb081611e8a565b92915050565b60008060408385031215611ecd57611ecc611cad565b5b6000611edb85828601611e1e565b9250506020611eec85828601611ea1565b9150509250929050565b600081519050919050565b600082825260208201905092915050565b6000819050602082019050919050565b611f2b81611dc1565b82525050565b6000611f3d8383611f22565b60208301905092915050565b6000602082019050919050565b6000611f6182611ef6565b611f6b8185611f01565b9350611f7683611f12565b8060005b83811015611fa7578151611f8e8882611f31565b9750611f9983611f49565b925050600181019050611f7a565b5085935050505092915050565b60006020820190508181036000830152611fce8184611f56565b905092915050565b611fdf81611d6d565b8114611fea57600080fd5b50565b600081359050611ffc81611fd6565b92915050565b60006020828403121561201857612017611cad565b5b600061202684828501611fed565b91505092915050565b60006020828403121561204557612044611cad565b5b600061205384828501611ea1565b91505092915050565b60006040820190506120716000830185611dd3565b61207e6020830184611d77565b9392505050565b600082825260208201905092915050565b7f43616c6c6572206973206e6f7420746865206c6f7474657279206f776e657200600082015250565b60006120cc601f83612085565b91506120d782612096565b602082019050919050565b600060208201905081810360008301526120fb816120bf565b9050919050565b7f43616e6e6f742052657374617274204c6f7474657279206173204c6f7474657260008201527f7920697320696e20706c61790000000000000000000000000000000000000000602082015250565b600061215e602c83612085565b915061216982612102565b604082019050919050565b6000602082019050818103600083015261218d81612151565b9050919050565b7f4e487b7100000000000000000000000000000000000000000000000000000000600052601160045260246000fd5b60006121ce82611d6d565b91506121d983611d6d565b92508282019050808211156121f1576121f0612194565b5b92915050565b7f416363657373436f6e74726f6c3a2063616e206f6e6c792072656e6f756e636560008201527f20726f6c657320666f722073656c660000000000000000000000000000000000602082015250565b6000612253602f83612085565b915061225e826121f7565b604082019050919050565b6000602082019050818103600083015261228281612246565b9050919050565b7f4e6f207469636b65747320776572652070757263686173656400000000000000600082015250565b60006122bf601983612085565b91506122ca82612289565b602082019050919050565b600060208201905081810360008301526122ee816122b2565b9050919050565b600061230082611d6d565b915061230b83611d6d565b925082820390508181111561232357612322612194565b5b92915050565b6000819050919050565b61234461233f82611d6d565b612329565b82525050565b6000819050919050565b61236561236082611dfd565b61234a565b82525050565b60006123778285612333565b6020820191506123878284612354565b6020820191508190509392505050565b7f4e487b7100000000000000000000000000000000000000000000000000000000600052601260045260246000fd5b60006123d182611d6d565b91506123dc83611d6d565b9250826123ec576123eb612397565b5b828206905092915050565b7f4e487b7100000000000000000000000000000000000000000000000000000000600052603260045260246000fd5b600061243182611d6d565b915061243c83611d6d565b925082820261244a81611d6d565b9150828204841483151761246157612460612194565b5b5092915050565b7f43616c6c6572206973206e6f7420612077696e6e657200000000000000000000600082015250565b600061249e601683612085565b91506124a982612468565b602082019050919050565b600060208201905081810360008301526124cd81612491565b9050919050565b7f5265656e7472616e637947756172643a207265656e7472616e742063616c6c00600082015250565b600061250a601f83612085565b9150612515826124d4565b602082019050919050565b60006020820190508181036000830152612539816124fd565b9050919050565b600081905092915050565b7f7468652076616c7565206d757374206265206d756c7469706c65206f66200000600082015250565b6000612581601e83612540565b915061258c8261254b565b601e82019050919050565b600081519050919050565b60005b838110156125c05780820151818401526020810190506125a5565b60008484015250505050565b60006125d782612597565b6125e18185612540565b93506125f18185602086016125a2565b80840191505092915050565b7f2045746865720000000000000000000000000000000000000000000000000000600082015250565b6000612633600683612540565b915061263e826125fd565b600682019050919050565b600061265482612574565b915061266082846125cc565b915061266b82612626565b915081905092915050565b6000601f19601f8301169050919050565b600061269282612597565b61269c8185612085565b93506126ac8185602086016125a2565b6126b581612676565b840191505092915050565b600060208201905081810360008301526126da8184612687565b905092915050565b60006126ed82611d6d565b91506126f883611d6d565b92508261270857612707612397565b5b828204905092915050565b7f4e6f7420656e6f756768207469636b65747320617661696c61626c652e000000600082015250565b6000612749601d83612085565b915061275482612713565b602082019050919050565b600060208201905081810360008301526127788161273c565b9050919050565b600061278a82611d6d565b91507fffffffffffffffffffffffffffffffffffffffffffffffffffffffffffffffff82036127bc576127bb612194565b5b600182019050919050565b7f746865206c6f747465727920686173206e6f7420657870697265642079657400600082015250565b60006127fd601f83612085565b9150612808826127c7565b602082019050919050565b6000602082019050818103600083015261282c816127f0565b9050919050565b7f4e487b7100000000000000000000000000000000000000000000000000000000600052604160045260246000fd5b7f416363657373436f6e74726f6c3a206163636f756e7420000000000000000000600082015250565b6000612898601783612540565b91506128a382612862565b601782019050919050565b7f206973206d697373696e6720726f6c6520000000000000000000000000000000600082015250565b60006128e4601183612540565b91506128ef826128ae565b601182019050919050565b60006129058261288b565b915061291182856125cc565b915061291c826128d7565b915061292882846125cc565b91508190509392505050565b600061293f82611d6d565b91506000820361295257612951612194565b5b600182039050919050565b7f537472696e67733a20686578206c656e67746820696e73756666696369656e74600082015250565b6000612993602083612085565b915061299e8261295d565b602082019050919050565b600060208201905081810360008301526129c281612986565b905091905056fea2646970667358221220071c3131b66f7ff65b58adde34ade03e10056251d00a7b589f0e01aee4188daa64736f6c63430008110033",
  "immutableReferences": {},
  "source": "// SPDX-License-Identifier: GPL-3.0\n\nimport \"@openzeppelin/contracts/utils/Strings.sol\";\nimport \"@openzeppelin/contracts/utils/math/SafeMath.sol\";\nimport \"@openzeppelin/contracts/access/AccessControl.sol\";\nimport \"@openzeppelin/contracts/security/ReentrancyGuard.sol\";\n\npragma solidity >=0.8.4 <0.9.0;\n\n/// @title A Contract for making a Lottery\n/// @author K. Angelopoulos\n/// @notice You can use this contract to construct new Lotteries\ncontract Lottery is ReentrancyGuard, AccessControl {\n\tusing SafeMath for uint256; /// @notice Library to protect against overflows\n\n\t/// @dev Struct to keep track of the last winner\n\tstruct LastWinner {\n\t\taddress _lastWinnerAddress; /// @dev last winner address\n\t\tuint256 _lastWinnerWinnings; /// @dev last winner winnings\n\t}\n\n\tuint256 public constant ticketPrice = 0.01 ether; /// @dev price per ticket\n\tuint256 public constant maxTickets = 100; /// @dev maximum tickets per lottery\n\tuint256 public constant ticketCommission = 0.001 ether; /// @dev commition per ticket for the lottery owner\n\tuint256 public constant duration = 30 minutes; /// @dev The duration set for the lottery\n\n\tuint256 public expiration; /// @dev Timeout in case that the lottery was not carried out.\n\taddress public lotteryOwner; /// @dev the creator of the lottery\n\tuint256 public lotteryOwnerTotalCommission = 0; /// @dev the total commission balance\n\tLastWinner public lastWinner; /// @dev the last winner of the lottery\n\n\tmapping(address => uint256) public winnings; /// @dev maps the winners to there winnings\n\taddress[] public tickets; /// @dev array of purchased Tickets\n\n\t/// @dev Add Reentrancy Guard to protect against calling itself\n\tconstructor() ReentrancyGuard() {\n\t\tlotteryOwner = msg.sender; /// @dev Address that deployed the contract\n\t\texpiration = block.timestamp + duration; /// @dev lottery expiration time\n\t}\n\n\t/// @custom:event BuyTickets - Event for buying tickets\n\t/// @param _buyerAddress Address that bought the tickets.\n\t/// @param _ticketsBought Number of tickets bought.\n\t/// @dev BuyTickets - Event for buying tickets\n\tevent TicketsBought(address _buyerAddress, uint256 _ticketsBought);\n\n\t/// @custom:event DrawWinnerTicket - Event for drawing the winning ticket\n\t/// @param _winnerAddress Address that won the lottery.\n\t/// @param _winnersWinnings Amount won.\n\t/// @dev DrawWinnerTicket - Event for drawing the winning ticket\n\tevent WinnerTicketDrawn(address _winnerAddress, uint256 _winnersWinnings);\n\n\t/// @custom:event LotteryRestart - Event for restarting the lottery\n\t/// @param _newLotteryExpiration New lottery expiration time.\n\t/// @dev LotteryRestart - Event for restarting the lottery\n\tevent LotteryRestart(uint256 _newLotteryExpiration);\n\n\t/// @custom:event RefundAllTickets - Event for refunding all lottery tickets\n\t/// @param _refundAllTickets Boolean to emit that lottery tickets were refunded.\n\t/// @dev LotteryRestart - Event for restarting the lottery\n\tevent RefundAllTickets(bool _refundAllTickets);\n\n\t/// @dev modifier to check if caller is the lottery owner\n\tmodifier isLotteryOwner() {\n\t\trequire((msg.sender == lotteryOwner), \"Caller is not the lottery owner\");\n\t\t_;\n\t}\n\n\t/// @dev modifier to check if caller is a winner\n\tmodifier isWinner() {\n\t\trequire(IsWinner(), \"Caller is not a winner\");\n\t\t_;\n\t}\n\n\t/// @notice return all the tickets\n\t/// @dev return all the tickets\n\t/// @return tickets the bought tickets\n\tfunction getTickets() public view returns (address[] memory) {\n\t\treturn tickets;\n\t}\n\n\t/// @notice return winnings for specific caller address\n\t/// @dev return winnings for specific caller address\n\t/// @param addr Address to check their winnings.\n\t/// @return uint256 Winnings of giver address\n\tfunction getWinningsForAddress(address addr) public view returns (uint256) {\n\t\treturn winnings[addr];\n\t}\n\n\t/// @notice Buy tickets for the lottery\n\t/// @dev Buy tickets for the lottery\n\tfunction BuyTickets() public payable {\n\t\t/// @dev Check if buyer sends the correct amount of money\n\t\trequire(\n\t\t\tmsg.value % ticketPrice == 0,\n\t\t\t/// @dev use abi.encodePacked instead of string.concat to reduce the gas consumption\n\t\t\t/// @dev https://ethereum.stackexchange.com/questions/729/how-to-concatenate-strings-in-solidity\n\t\t\tstring(\n\t\t\t\tabi.encodePacked(\n\t\t\t\t\t\"the value must be multiple of \",\n\t\t\t\t\tStrings.toString(ticketPrice),\n\t\t\t\t\t\" Ether\"\n\t\t\t\t)\n\t\t\t)\n\t\t);\n\n\t\t/// @dev Get number of tickets to buy\n\t\tuint256 numOfTicketsToBuy = msg.value / ticketPrice;\n\n\t\t/// @dev Check if there are enough tickets to buy\n\t\trequire(\n\t\t\tnumOfTicketsToBuy <= RemainingTickets(),\n\t\t\t\"Not enough tickets available.\"\n\t\t);\n\n\t\t/// @dev Push buyer to tickets array\n\t\tfor (uint256 i = 0; i < numOfTicketsToBuy; i++) {\n\t\t\ttickets.push(msg.sender);\n\t\t}\n\n\t\t/// @dev Emit event for tickets bought\n\t\temit TicketsBought(msg.sender, numOfTicketsToBuy);\n\t}\n\n\t/// @notice Only the lottery owner can execute this\n\t/// @dev Draw the winning ticket at random\n\t/// @dev Only the lottery owner can execute this\n\t/// @return address Return the winner struct\n\tfunction DrawWinnerTicket() public isLotteryOwner returns (address) {\n\t\t/// @dev Check if there is at least one ticket\n\t\trequire(tickets.length > 0, \"No tickets were purchased\");\n\t\t/// @dev Get the hash from the first block\n\t\tbytes32 blockHash = blockhash(block.number - tickets.length);\n\t\t/// @dev generate a random nonce from the first lottery block hash and the last lottery block timestamp\n\t\tuint256 randomNumber = uint256(\n\t\t\tkeccak256(abi.encodePacked(block.timestamp, blockHash))\n\t\t);\n\t\t/// @dev calculate the mod of the randomNumber in order for the winning ticket to be in range of the bought tickets\n\t\tuint256 winningTicket = randomNumber % tickets.length;\n\t\t/// @dev get the address of the winner\n\t\taddress winner = tickets[winningTicket];\n\t\t/// @dev update winnings map with {winner: winnings}\n\t\twinnings[winner] += (tickets.length * (ticketPrice - ticketCommission));\n\t\t/// @dev update last winner\n\t\tlastWinner = LastWinner(winner, winnings[winner]);\n\t\t/// @dev update lottery owner total commission\n\t\tlotteryOwnerTotalCommission += (tickets.length * ticketCommission);\n\t\t/// @dev empty tickets in order for the new lottery to start\n\t\tdelete tickets;\n\t\t/// @dev update lottery expiration time\n\t\texpiration = block.timestamp + duration;\n\t\t/// @dev Emit event for winning ticket drawn\n\t\temit WinnerTicketDrawn(winner, winnings[winner]);\n\t\t/// @dev Return winning address\n\t\treturn winner;\n\t}\n\n\t/// @notice Only the lottery owner can execute this\n\t/// @dev Restart the Lottery\n\t/// @dev Only the lottery owner can execute this\n\tfunction restartLottery() public isLotteryOwner {\n\t\t/// @dev check if lottery tickets are empty\n\t\trequire(\n\t\t\ttickets.length == 0,\n\t\t\t\"Cannot Restart Lottery as Lottery is in play\"\n\t\t);\n\t\t/// @dev delete tickets again in order to be sure\n\t\tdelete tickets;\n\t\t/// @dev update lottery expiration time\n\t\texpiration = block.timestamp + duration;\n\t\t/// @dev Emit event for lottery restarting\n\t\temit LotteryRestart(expiration);\n\t}\n\n\t/// @notice Check the amassed ammount of winnings\n\t/// @dev Check the amassed ammount of winnings\n\t/// @return uint256 Return the winning amount\n\tfunction checkWinningsAmount() public view returns (uint256) {\n\t\t/// @dev get the caller address\n\t\taddress payable winner = payable(msg.sender);\n\t\t/// @dev get the caller winnings\n\t\tuint256 reward2Transfer = winnings[winner];\n\t\t/// @dev return the caller winning\n\t\treturn reward2Transfer;\n\t}\n\n\t/// @notice Only a winner can execute this\n\t/// @dev Withdraw the callers winnings\n\t/// @dev Only a winner can call this function\n\tfunction WithdrawWinnings() public isWinner nonReentrant {\n\t\t/// @dev get the caller address\n\t\taddress payable winner = payable(msg.sender);\n\t\t/// @dev get the caller winnings\n\t\tuint256 reward2Transfer = winnings[winner];\n\t\t/// @dev transfer winnings to caller\n\t\twinner.transfer(reward2Transfer);\n\t\t/// @dev delete the callers winnings after transferring the winnings\n\t\twinnings[winner] = 0;\n\t}\n\n\t/// @notice Refund all tickets\n\t/// @dev Refund all tickets\n\t/// @dev Only the lottery owner can execute this\n\tfunction RefundAll() public isLotteryOwner {\n\t\t/// @dev check if lottery is active\n\t\trequire(block.timestamp >= expiration, \"the lottery has not expired yet\");\n\t\t/// @dev Loop over all tickets and for each ticket buyer address transfer back the ticket amount\n\t\tfor (uint256 i = 0; i < tickets.length; i++) {\n\t\t\taddress payable to = payable(tickets[i]); /// @dev Get ticket buyer address\n\t\t\ttickets[i] = address(0); /// @dev replace ticket address with null address\n\t\t\tto.transfer(ticketPrice); /// @dev send to ticket buyer address the ticket price back to refund them\n\t\t}\n\t\t/// @dev empty lottery tickets\n\t\tdelete tickets;\n\t\t/// @dev emit event for refunding all tickets\n\t\temit RefundAllTickets(true);\n\t}\n\n\t/// @notice Only the lottery owner can execute this\n\t/// @dev Check if caller is winner\n\t/// @dev Only the lottery owner can execute this\n\tfunction WithdrawCommission() public isLotteryOwner {\n\t\t/// @dev get the caller address (owner address)\n\t\taddress payable lotterOwner = payable(msg.sender);\n\t\t///  @dev get the lottery owner commission\n\t\tuint256 totalCommissionToTransfer = lotteryOwnerTotalCommission;\n\t\t/// @dev transfer winnings to lottery owner address\n\t\tlotterOwner.transfer(totalCommissionToTransfer);\n\t\t/// @dev delete the operators commission after transferring the commission\n\t\tlotteryOwnerTotalCommission = 0;\n\t}\n\n\t/// @notice Check if caller is winner\n\t/// @dev Check if caller is winner\n\t/// @return bool return if address is winner\n\tfunction IsWinner() public view returns (bool) {\n\t\treturn winnings[msg.sender] > 0;\n\t}\n\n\t/// @notice Get current winning reward\n\t/// @dev Get current winning reward\n\t/// @return uint256 returns current winning reward\n\tfunction CurrentWinningReward() public view returns (uint256) {\n\t\treturn tickets.length * ticketPrice;\n\t}\n\n\t/// @notice Get remaining lottery tickets\n\t/// @dev Get remaining lottery tickets\n\t/// @return uint256 returns remainig available tickets\n\tfunction RemainingTickets() public view returns (uint256) {\n\t\treturn maxTickets - tickets.length;\n\t}\n}\n",
  "sourcePath": "C:\\Users\\kostas\\dev\\consensys\\web3-lottery\\node_modules\\crypto_lottery_contract\\contracts\\Lottery.sol",
  "compiler": {
    "name": "solc",
    "version": "0.8.17+commit.8df45f5f.Emscripten.clang"
  },
  "schemaVersion": "3.4.10",
  "updatedAt": "2022-12-30T18:07:56.061Z",
  "devdoc": {
    "author": "K. Angelopoulos",
    "events": {
      "LotteryRestart(uint256)": {
        "custom:event": "LotteryRestart - Event for restarting the lottery",
        "details": "LotteryRestart - Event for restarting the lottery",
        "params": {
          "_newLotteryExpiration": "New lottery expiration time."
        }
      },
      "RefundAllTickets(bool)": {
        "custom:event": "RefundAllTickets - Event for refunding all lottery tickets",
        "details": "LotteryRestart - Event for restarting the lottery",
        "params": {
          "_refundAllTickets": "Boolean to emit that lottery tickets were refunded."
        }
      },
      "TicketsBought(address,uint256)": {
        "custom:event": "BuyTickets - Event for buying tickets",
        "details": "BuyTickets - Event for buying tickets",
        "params": {
          "_buyerAddress": "Address that bought the tickets.",
          "_ticketsBought": "Number of tickets bought."
        }
      },
      "WinnerTicketDrawn(address,uint256)": {
        "custom:event": "DrawWinnerTicket - Event for drawing the winning ticket",
        "details": "DrawWinnerTicket - Event for drawing the winning ticket",
        "params": {
          "_winnerAddress": "Address that won the lottery.",
          "_winnersWinnings": "Amount won."
        }
      }
    },
    "kind": "dev",
    "methods": {
      "BuyTickets()": {
        "details": "Buy tickets for the lottery"
      },
      "CurrentWinningReward()": {
        "details": "Get current winning reward",
        "returns": {
          "_0": "uint256 returns current winning reward"
        }
      },
      "DrawWinnerTicket()": {
        "details": "Draw the winning ticket at randomOnly the lottery owner can execute this",
        "returns": {
          "_0": "address Return the winner struct"
        }
      },
      "IsWinner()": {
        "details": "Check if caller is winner",
        "returns": {
          "_0": "bool return if address is winner"
        }
      },
      "RefundAll()": {
        "details": "Refund all ticketsOnly the lottery owner can execute this"
      },
      "RemainingTickets()": {
        "details": "Get remaining lottery tickets",
        "returns": {
          "_0": "uint256 returns remainig available tickets"
        }
      },
      "WithdrawCommission()": {
        "details": "Check if caller is winnerOnly the lottery owner can execute this"
      },
      "WithdrawWinnings()": {
        "details": "Withdraw the callers winningsOnly a winner can call this function"
      },
      "checkWinningsAmount()": {
        "details": "Check the amassed ammount of winnings",
        "returns": {
          "_0": "uint256 Return the winning amount"
        }
      },
      "constructor": {
        "details": "Add Reentrancy Guard to protect against calling itself"
      },
      "getRoleAdmin(bytes32)": {
        "details": "Returns the admin role that controls `role`. See {grantRole} and {revokeRole}. To change a role's admin, use {_setRoleAdmin}."
      },
      "getTickets()": {
        "details": "return all the tickets",
        "returns": {
          "_0": "tickets the bought tickets"
        }
      },
      "getWinningsForAddress(address)": {
        "details": "return winnings for specific caller address",
        "params": {
          "addr": "Address to check their winnings."
        },
        "returns": {
          "_0": "uint256 Winnings of giver address"
        }
      },
      "grantRole(bytes32,address)": {
        "details": "Grants `role` to `account`. If `account` had not been already granted `role`, emits a {RoleGranted} event. Requirements: - the caller must have ``role``'s admin role. May emit a {RoleGranted} event."
      },
      "hasRole(bytes32,address)": {
        "details": "Returns `true` if `account` has been granted `role`."
      },
      "renounceRole(bytes32,address)": {
        "details": "Revokes `role` from the calling account. Roles are often managed via {grantRole} and {revokeRole}: this function's purpose is to provide a mechanism for accounts to lose their privileges if they are compromised (such as when a trusted device is misplaced). If the calling account had been revoked `role`, emits a {RoleRevoked} event. Requirements: - the caller must be `account`. May emit a {RoleRevoked} event."
      },
      "restartLottery()": {
        "details": "Restart the LotteryOnly the lottery owner can execute this"
      },
      "revokeRole(bytes32,address)": {
        "details": "Revokes `role` from `account`. If `account` had been granted `role`, emits a {RoleRevoked} event. Requirements: - the caller must have ``role``'s admin role. May emit a {RoleRevoked} event."
      },
      "supportsInterface(bytes4)": {
        "details": "See {IERC165-supportsInterface}."
      }
    },
    "stateVariables": {
      "duration": {
        "details": "commition per ticket for the lottery owner"
      },
      "expiration": {
        "details": "The duration set for the lottery"
      },
      "lastWinner": {
        "details": "the total commission balance"
      },
      "lotteryOwner": {
        "details": "Timeout in case that the lottery was not carried out."
      },
      "lotteryOwnerTotalCommission": {
        "details": "the creator of the lottery"
      },
      "maxTickets": {
        "details": "price per ticket"
      },
      "ticketCommission": {
        "details": "maximum tickets per lottery"
      },
      "tickets": {
        "details": "maps the winners to there winnings"
      },
      "winnings": {
        "details": "the last winner of the lottery"
      }
    },
    "title": "A Contract for making a Lottery",
    "version": 1
  },
  "userdoc": {
    "kind": "user",
    "methods": {
      "BuyTickets()": {
        "notice": "Buy tickets for the lottery"
      },
      "CurrentWinningReward()": {
        "notice": "Get current winning reward"
      },
      "DrawWinnerTicket()": {
        "notice": "Only the lottery owner can execute this"
      },
      "IsWinner()": {
        "notice": "Check if caller is winner"
      },
      "RefundAll()": {
        "notice": "Refund all tickets"
      },
      "RemainingTickets()": {
        "notice": "Get remaining lottery tickets"
      },
      "WithdrawCommission()": {
        "notice": "Only the lottery owner can execute this"
      },
      "WithdrawWinnings()": {
        "notice": "Only a winner can execute this"
      },
      "checkWinningsAmount()": {
        "notice": "Check the amassed ammount of winnings"
      },
      "getTickets()": {
        "notice": "return all the tickets"
      },
      "getWinningsForAddress(address)": {
        "notice": "return winnings for specific caller address"
      },
      "restartLottery()": {
        "notice": "Only the lottery owner can execute this"
      }
    },
    "notice": "You can use this contract to construct new Lotteries",
    "version": 1
  }
}