{
  "contractName": "NFTFactory",
  "abi": [
    {
      "inputs": [],
      "stateMutability": "nonpayable",
      "type": "constructor"
    },
    {
      "anonymous": false,
      "inputs": [
        {
          "indexed": true,
          "internalType": "address",
          "name": "owner",
          "type": "address"
        },
        {
          "indexed": true,
          "internalType": "address",
          "name": "approved",
          "type": "address"
        },
        {
          "indexed": true,
          "internalType": "uint256",
          "name": "tokenId",
          "type": "uint256"
        }
      ],
      "name": "Approval",
      "type": "event"
    },
    {
      "anonymous": false,
      "inputs": [
        {
          "indexed": true,
          "internalType": "address",
          "name": "owner",
          "type": "address"
        },
        {
          "indexed": true,
          "internalType": "address",
          "name": "operator",
          "type": "address"
        },
        {
          "indexed": false,
          "internalType": "bool",
          "name": "approved",
          "type": "bool"
        }
      ],
      "name": "ApprovalForAll",
      "type": "event"
    },
    {
      "anonymous": false,
      "inputs": [
        {
          "indexed": false,
          "internalType": "bool",
          "name": "",
          "type": "bool"
        }
      ],
      "name": "MintToggle",
      "type": "event"
    },
    {
      "anonymous": false,
      "inputs": [
        {
          "indexed": false,
          "internalType": "uint256",
          "name": "",
          "type": "uint256"
        }
      ],
      "name": "NFTMinted",
      "type": "event"
    },
    {
      "anonymous": false,
      "inputs": [
        {
          "indexed": true,
          "internalType": "address",
          "name": "previousOwner",
          "type": "address"
        },
        {
          "indexed": true,
          "internalType": "address",
          "name": "newOwner",
          "type": "address"
        }
      ],
      "name": "OwnershipTransferred",
      "type": "event"
    },
    {
      "anonymous": false,
      "inputs": [
        {
          "indexed": true,
          "internalType": "address",
          "name": "from",
          "type": "address"
        },
        {
          "indexed": true,
          "internalType": "address",
          "name": "to",
          "type": "address"
        },
        {
          "indexed": true,
          "internalType": "uint256",
          "name": "tokenId",
          "type": "uint256"
        }
      ],
      "name": "Transfer",
      "type": "event"
    },
    {
      "inputs": [
        {
          "internalType": "address",
          "name": "to",
          "type": "address"
        },
        {
          "internalType": "uint256",
          "name": "tokenId",
          "type": "uint256"
        }
      ],
      "name": "approve",
      "outputs": [],
      "stateMutability": "nonpayable",
      "type": "function"
    },
    {
      "inputs": [
        {
          "internalType": "address",
          "name": "owner",
          "type": "address"
        }
      ],
      "name": "balanceOf",
      "outputs": [
        {
          "internalType": "uint256",
          "name": "",
          "type": "uint256"
        }
      ],
      "stateMutability": "view",
      "type": "function"
    },
    {
      "inputs": [
        {
          "internalType": "uint256",
          "name": "tokenId",
          "type": "uint256"
        }
      ],
      "name": "getApproved",
      "outputs": [
        {
          "internalType": "address",
          "name": "",
          "type": "address"
        }
      ],
      "stateMutability": "view",
      "type": "function"
    },
    {
      "inputs": [
        {
          "internalType": "address",
          "name": "owner",
          "type": "address"
        },
        {
          "internalType": "address",
          "name": "operator",
          "type": "address"
        }
      ],
      "name": "isApprovedForAll",
      "outputs": [
        {
          "internalType": "bool",
          "name": "",
          "type": "bool"
        }
      ],
      "stateMutability": "view",
      "type": "function"
    },
    {
      "inputs": [],
      "name": "isMintEnabled",
      "outputs": [
        {
          "internalType": "bool",
          "name": "",
          "type": "bool"
        }
      ],
      "stateMutability": "view",
      "type": "function"
    },
    {
      "inputs": [],
      "name": "name",
      "outputs": [
        {
          "internalType": "string",
          "name": "",
          "type": "string"
        }
      ],
      "stateMutability": "view",
      "type": "function"
    },
    {
      "inputs": [
        {
          "internalType": "address",
          "name": "",
          "type": "address"
        },
        {
          "internalType": "uint256",
          "name": "",
          "type": "uint256"
        }
      ],
      "name": "nfts",
      "outputs": [
        {
          "internalType": "address",
          "name": "_userAddress",
          "type": "address"
        },
        {
          "internalType": "uint256",
          "name": "uid",
          "type": "uint256"
        },
        {
          "internalType": "uint256",
          "name": "tokenId",
          "type": "uint256"
        },
        {
          "internalType": "string",
          "name": "metaDataURL",
          "type": "string"
        }
      ],
      "stateMutability": "view",
      "type": "function"
    },
    {
      "inputs": [],
      "name": "owner",
      "outputs": [
        {
          "internalType": "address",
          "name": "",
          "type": "address"
        }
      ],
      "stateMutability": "view",
      "type": "function"
    },
    {
      "inputs": [
        {
          "internalType": "uint256",
          "name": "tokenId",
          "type": "uint256"
        }
      ],
      "name": "ownerOf",
      "outputs": [
        {
          "internalType": "address",
          "name": "",
          "type": "address"
        }
      ],
      "stateMutability": "view",
      "type": "function"
    },
    {
      "inputs": [],
      "name": "renounceOwnership",
      "outputs": [],
      "stateMutability": "nonpayable",
      "type": "function"
    },
    {
      "inputs": [
        {
          "internalType": "address",
          "name": "from",
          "type": "address"
        },
        {
          "internalType": "address",
          "name": "to",
          "type": "address"
        },
        {
          "internalType": "uint256",
          "name": "tokenId",
          "type": "uint256"
        }
      ],
      "name": "safeTransferFrom",
      "outputs": [],
      "stateMutability": "nonpayable",
      "type": "function"
    },
    {
      "inputs": [
        {
          "internalType": "address",
          "name": "from",
          "type": "address"
        },
        {
          "internalType": "address",
          "name": "to",
          "type": "address"
        },
        {
          "internalType": "uint256",
          "name": "tokenId",
          "type": "uint256"
        },
        {
          "internalType": "bytes",
          "name": "data",
          "type": "bytes"
        }
      ],
      "name": "safeTransferFrom",
      "outputs": [],
      "stateMutability": "nonpayable",
      "type": "function"
    },
    {
      "inputs": [
        {
          "internalType": "address",
          "name": "operator",
          "type": "address"
        },
        {
          "internalType": "bool",
          "name": "approved",
          "type": "bool"
        }
      ],
      "name": "setApprovalForAll",
      "outputs": [],
      "stateMutability": "nonpayable",
      "type": "function"
    },
    {
      "inputs": [
        {
          "internalType": "bytes4",
          "name": "interfaceId",
          "type": "bytes4"
        }
      ],
      "name": "supportsInterface",
      "outputs": [
        {
          "internalType": "bool",
          "name": "",
          "type": "bool"
        }
      ],
      "stateMutability": "view",
      "type": "function"
    },
    {
      "inputs": [],
      "name": "symbol",
      "outputs": [
        {
          "internalType": "string",
          "name": "",
          "type": "string"
        }
      ],
      "stateMutability": "view",
      "type": "function"
    },
    {
      "inputs": [
        {
          "internalType": "uint256",
          "name": "tokenId",
          "type": "uint256"
        }
      ],
      "name": "tokenURI",
      "outputs": [
        {
          "internalType": "string",
          "name": "",
          "type": "string"
        }
      ],
      "stateMutability": "view",
      "type": "function"
    },
    {
      "inputs": [
        {
          "internalType": "address",
          "name": "from",
          "type": "address"
        },
        {
          "internalType": "address",
          "name": "to",
          "type": "address"
        },
        {
          "internalType": "uint256",
          "name": "tokenId",
          "type": "uint256"
        }
      ],
      "name": "transferFrom",
      "outputs": [],
      "stateMutability": "nonpayable",
      "type": "function"
    },
    {
      "inputs": [
        {
          "internalType": "address",
          "name": "newOwner",
          "type": "address"
        }
      ],
      "name": "transferOwnership",
      "outputs": [],
      "stateMutability": "nonpayable",
      "type": "function"
    },
    {
      "inputs": [],
      "name": "toggleIsMintEnabled",
      "outputs": [],
      "stateMutability": "nonpayable",
      "type": "function"
    },
    {
      "inputs": [
        {
          "internalType": "address",
          "name": "addr",
          "type": "address"
        }
      ],
      "name": "getNFTSForAddress",
      "outputs": [
        {
          "components": [
            {
              "internalType": "address",
              "name": "_userAddress",
              "type": "address"
            },
            {
              "internalType": "uint256",
              "name": "uid",
              "type": "uint256"
            },
            {
              "internalType": "uint256",
              "name": "tokenId",
              "type": "uint256"
            },
            {
              "internalType": "string",
              "name": "metaDataURL",
              "type": "string"
            }
          ],
          "internalType": "struct NFTFactory.NFT[]",
          "name": "",
          "type": "tuple[]"
        }
      ],
      "stateMutability": "view",
      "type": "function"
    },
    {
      "inputs": [
        {
          "internalType": "address",
          "name": "recipient",
          "type": "address"
        },
        {
          "internalType": "string",
          "name": "tokenURI",
          "type": "string"
        }
      ],
      "name": "mint",
      "outputs": [
        {
          "internalType": "uint256",
          "name": "",
          "type": "uint256"
        }
      ],
      "stateMutability": "nonpayable",
      "type": "function"
    }
  ],
  "bytecode": "0x60806040523480156200001157600080fd5b506040518060400160405280601681526020017f436f6e73656e737973204c6f747465727920436c7562000000000000000000008152506040518060400160405280600381526020017f434c43000000000000000000000000000000000000000000000000000000000081525081600090816200008f919062000435565b508060019081620000a1919062000435565b505050620000c4620000b8620000ed60201b60201c565b620000f560201b60201c565b60016008819055506001600960006101000a81548160ff0219169083151502179055506200051c565b600033905090565b6000600760009054906101000a900473ffffffffffffffffffffffffffffffffffffffff16905081600760006101000a81548173ffffffffffffffffffffffffffffffffffffffff021916908373ffffffffffffffffffffffffffffffffffffffff1602179055508173ffffffffffffffffffffffffffffffffffffffff168173ffffffffffffffffffffffffffffffffffffffff167f8be0079c531659141344cd1fd0a4f28419497f9722a3daafe3b4186f6b6457e060405160405180910390a35050565b600081519050919050565b7f4e487b7100000000000000000000000000000000000000000000000000000000600052604160045260246000fd5b7f4e487b7100000000000000000000000000000000000000000000000000000000600052602260045260246000fd5b600060028204905060018216806200023d57607f821691505b602082108103620002535762000252620001f5565b5b50919050565b60008190508160005260206000209050919050565b60006020601f8301049050919050565b600082821b905092915050565b600060088302620002bd7fffffffffffffffffffffffffffffffffffffffffffffffffffffffffffffffff826200027e565b620002c986836200027e565b95508019841693508086168417925050509392505050565b6000819050919050565b6000819050919050565b600062000316620003106200030a84620002e1565b620002eb565b620002e1565b9050919050565b6000819050919050565b6200033283620002f5565b6200034a62000341826200031d565b8484546200028b565b825550505050565b600090565b6200036162000352565b6200036e81848462000327565b505050565b5b8181101562000396576200038a60008262000357565b60018101905062000374565b5050565b601f821115620003e557620003af8162000259565b620003ba846200026e565b81016020851015620003ca578190505b620003e2620003d9856200026e565b83018262000373565b50505b505050565b600082821c905092915050565b60006200040a60001984600802620003ea565b1980831691505092915050565b6000620004258383620003f7565b9150826002028217905092915050565b6200044082620001bb565b67ffffffffffffffff8111156200045c576200045b620001c6565b5b62000468825462000224565b620004758282856200039a565b600060209050601f831160018114620004ad576000841562000498578287015190505b620004a4858262000417565b86555062000514565b601f198416620004bd8662000259565b60005b82811015620004e757848901518255600182019150602085019450602081019050620004c0565b8683101562000507578489015162000503601f891682620003f7565b8355505b6001600288020188555050505b505050505050565b613605806200052c6000396000f3fe608060405234801561001057600080fd5b50600436106101375760003560e01c806370a08231116100b8578063b88d4fde1161007c578063b88d4fde14610351578063c40732171461036d578063c87b56dd14610377578063d0def521146103a7578063e985e9c5146103d7578063f2fde38b1461040757610137565b806370a08231146102bf578063715018a6146102ef5780638da5cb5b146102f957806395d89b4114610317578063a22cb4651461033557610137565b8063346de50a116100ff578063346de50a146101f257806341c453591461021057806342842e0e1461024057806343af356b1461025c5780636352211e1461028f57610137565b806301ffc9a71461013c57806306fdde031461016c578063081812fc1461018a578063095ea7b3146101ba57806323b872dd146101d6575b600080fd5b6101566004803603810190610151919061201f565b610423565b6040516101639190612067565b60405180910390f35b610174610505565b6040516101819190612112565b60405180910390f35b6101a4600480360381019061019f919061216a565b610597565b6040516101b191906121d8565b60405180910390f35b6101d460048036038101906101cf919061221f565b6105dd565b005b6101f060048036038101906101eb919061225f565b6106f4565b005b6101fa610754565b6040516102079190612067565b60405180910390f35b61022a600480360381019061022591906122b2565b610767565b604051610237919061246c565b60405180910390f35b61025a6004803603810190610255919061225f565b610901565b005b6102766004803603810190610271919061221f565b610921565b604051610286949392919061249d565b60405180910390f35b6102a960048036038101906102a4919061216a565b610a16565b6040516102b691906121d8565b60405180910390f35b6102d960048036038101906102d491906122b2565b610ac7565b6040516102e691906124e9565b60405180910390f35b6102f7610b7e565b005b610301610b92565b60405161030e91906121d8565b60405180910390f35b61031f610bbc565b60405161032c9190612112565b60405180910390f35b61034f600480360381019061034a9190612530565b610c4e565b005b61036b600480360381019061036691906126a5565b610c64565b005b610375610cc6565b005b610391600480360381019061038c919061216a565b610d40565b60405161039e9190612112565b60405180910390f35b6103c160048036038101906103bc91906127c9565b610e52565b6040516103ce91906124e9565b60405180910390f35b6103f160048036038101906103ec9190612825565b61103d565b6040516103fe9190612067565b60405180910390f35b610421600480360381019061041c91906122b2565b6110d1565b005b60007f80ac58cd000000000000000000000000000000000000000000000000000000007bffffffffffffffffffffffffffffffffffffffffffffffffffffffff1916827bffffffffffffffffffffffffffffffffffffffffffffffffffffffff191614806104ee57507f5b5e139f000000000000000000000000000000000000000000000000000000007bffffffffffffffffffffffffffffffffffffffffffffffffffffffff1916827bffffffffffffffffffffffffffffffffffffffffffffffffffffffff1916145b806104fe57506104fd82611154565b5b9050919050565b60606000805461051490612894565b80601f016020809104026020016040519081016040528092919081815260200182805461054090612894565b801561058d5780601f106105625761010080835404028352916020019161058d565b820191906000526020600020905b81548152906001019060200180831161057057829003601f168201915b5050505050905090565b60006105a2826111be565b6004600083815260200190815260200160002060009054906101000a900473ffffffffffffffffffffffffffffffffffffffff169050919050565b60006105e882610a16565b90508073ffffffffffffffffffffffffffffffffffffffff168373ffffffffffffffffffffffffffffffffffffffff1603610658576040517f08c379a000000000000000000000000000000000000000000000000000000000815260040161064f90612937565b60405180910390fd5b8073ffffffffffffffffffffffffffffffffffffffff16610677611209565b73ffffffffffffffffffffffffffffffffffffffff1614806106a657506106a5816106a0611209565b61103d565b5b6106e5576040517f08c379a00000000000000000000000000000000000000000000000000000000081526004016106dc906129c9565b60405180910390fd5b6106ef8383611211565b505050565b6107056106ff611209565b826112ca565b610744576040517f08c379a000000000000000000000000000000000000000000000000000000000815260040161073b90612a5b565b60405180910390fd5b61074f83838361135f565b505050565b600960009054906101000a900460ff1681565b6060600b60008373ffffffffffffffffffffffffffffffffffffffff1673ffffffffffffffffffffffffffffffffffffffff168152602001908152602001600020805480602002602001604051908101604052809291908181526020016000905b828210156108f657838290600052602060002090600402016040518060800160405290816000820160009054906101000a900473ffffffffffffffffffffffffffffffffffffffff1673ffffffffffffffffffffffffffffffffffffffff1673ffffffffffffffffffffffffffffffffffffffff168152602001600182015481526020016002820154815260200160038201805461086590612894565b80601f016020809104026020016040519081016040528092919081815260200182805461089190612894565b80156108de5780601f106108b3576101008083540402835291602001916108de565b820191906000526020600020905b8154815290600101906020018083116108c157829003601f168201915b505050505081525050815260200190600101906107c8565b505050509050919050565b61091c83838360405180602001604052806000815250610c64565b505050565b600b602052816000526040600020818154811061093d57600080fd5b9060005260206000209060040201600091509150508060000160009054906101000a900473ffffffffffffffffffffffffffffffffffffffff169080600101549080600201549080600301805461099390612894565b80601f01602080910402602001604051908101604052809291908181526020018280546109bf90612894565b8015610a0c5780601f106109e157610100808354040283529160200191610a0c565b820191906000526020600020905b8154815290600101906020018083116109ef57829003601f168201915b5050505050905084565b6000806002600084815260200190815260200160002060009054906101000a900473ffffffffffffffffffffffffffffffffffffffff169050600073ffffffffffffffffffffffffffffffffffffffff168173ffffffffffffffffffffffffffffffffffffffff1603610abe576040517f08c379a0000000000000000000000000000000000000000000000000000000008152600401610ab590612ac7565b60405180910390fd5b80915050919050565b60008073ffffffffffffffffffffffffffffffffffffffff168273ffffffffffffffffffffffffffffffffffffffff1603610b37576040517f08c379a0000000000000000000000000000000000000000000000000000000008152600401610b2e90612b59565b60405180910390fd5b600360008373ffffffffffffffffffffffffffffffffffffffff1673ffffffffffffffffffffffffffffffffffffffff168152602001908152602001600020549050919050565b610b866115c5565b610b906000611643565b565b6000600760009054906101000a900473ffffffffffffffffffffffffffffffffffffffff16905090565b606060018054610bcb90612894565b80601f0160208091040260200160405190810160405280929190818152602001828054610bf790612894565b8015610c445780601f10610c1957610100808354040283529160200191610c44565b820191906000526020600020905b815481529060010190602001808311610c2757829003601f168201915b5050505050905090565b610c60610c59611209565b8383611709565b5050565b610c75610c6f611209565b836112ca565b610cb4576040517f08c379a0000000000000000000000000000000000000000000000000000000008152600401610cab90612a5b565b60405180910390fd5b610cc084848484611875565b50505050565b610cce6115c5565b600960009054906101000a900460ff1615600960006101000a81548160ff0219169083151502179055507f942ab1779a4e535aa5064870a6a13f4145675a833490c1b9b3ec5c8ce56505eb600960009054906101000a900460ff16604051610d369190612067565b60405180910390a1565b6060610d4b826111be565b6000600660008481526020019081526020016000208054610d6b90612894565b80601f0160208091040260200160405190810160405280929190818152602001828054610d9790612894565b8015610de45780601f10610db957610100808354040283529160200191610de4565b820191906000526020600020905b815481529060010190602001808311610dc757829003601f168201915b505050505090506000610df56118d1565b90506000815103610e0a578192505050610e4d565b600082511115610e3f578082604051602001610e27929190612bb5565b60405160208183030381529060405292505050610e4d565b610e48846118e8565b925050505b919050565b6000600960009054906101000a900460ff16610ea3576040517f08c379a0000000000000000000000000000000000000000000000000000000008152600401610e9a90612c25565b60405180910390fd5b610ead600a611950565b6000610eb9600a611966565b9050610ec58482611974565b6000610ed085610767565b519050610edd8285611992565b600b60008673ffffffffffffffffffffffffffffffffffffffff1673ffffffffffffffffffffffffffffffffffffffff16815260200190815260200160002060405180608001604052808773ffffffffffffffffffffffffffffffffffffffff168152602001600184610f509190612c74565b815260200184815260200186815250908060018154018082558091505060019003906000526020600020906004020160009091909190915060008201518160000160006101000a81548173ffffffffffffffffffffffffffffffffffffffff021916908373ffffffffffffffffffffffffffffffffffffffff16021790555060208201518160010155604082015181600201556060820151816003019081610ff89190612e54565b5050507fd9dc24857f317ed9abbbb42e920ede0104231eb1d3d70236a74887ffaf1598688260405161102a91906124e9565b60405180910390a1819250505092915050565b6000600560008473ffffffffffffffffffffffffffffffffffffffff1673ffffffffffffffffffffffffffffffffffffffff16815260200190815260200160002060008373ffffffffffffffffffffffffffffffffffffffff1673ffffffffffffffffffffffffffffffffffffffff16815260200190815260200160002060009054906101000a900460ff16905092915050565b6110d96115c5565b600073ffffffffffffffffffffffffffffffffffffffff168173ffffffffffffffffffffffffffffffffffffffff1603611148576040517f08c379a000000000000000000000000000000000000000000000000000000000815260040161113f90612f98565b60405180910390fd5b61115181611643565b50565b60007f01ffc9a7000000000000000000000000000000000000000000000000000000007bffffffffffffffffffffffffffffffffffffffffffffffffffffffff1916827bffffffffffffffffffffffffffffffffffffffffffffffffffffffff1916149050919050565b6111c7816119ff565b611206576040517f08c379a00000000000000000000000000000000000000000000000000000000081526004016111fd90612ac7565b60405180910390fd5b50565b600033905090565b816004600083815260200190815260200160002060006101000a81548173ffffffffffffffffffffffffffffffffffffffff021916908373ffffffffffffffffffffffffffffffffffffffff160217905550808273ffffffffffffffffffffffffffffffffffffffff1661128483610a16565b73ffffffffffffffffffffffffffffffffffffffff167f8c5be1e5ebec7d5bd14f71427d1e84f3dd0314c0f7b2291e5b200ac8c7c3b92560405160405180910390a45050565b6000806112d683610a16565b90508073ffffffffffffffffffffffffffffffffffffffff168473ffffffffffffffffffffffffffffffffffffffff1614806113185750611317818561103d565b5b8061135657508373ffffffffffffffffffffffffffffffffffffffff1661133e84610597565b73ffffffffffffffffffffffffffffffffffffffff16145b91505092915050565b8273ffffffffffffffffffffffffffffffffffffffff1661137f82610a16565b73ffffffffffffffffffffffffffffffffffffffff16146113d5576040517f08c379a00000000000000000000000000000000000000000000000000000000081526004016113cc9061302a565b60405180910390fd5b600073ffffffffffffffffffffffffffffffffffffffff168273ffffffffffffffffffffffffffffffffffffffff1603611444576040517f08c379a000000000000000000000000000000000000000000000000000000000815260040161143b906130bc565b60405180910390fd5b61144f838383611a6b565b61145a600082611211565b6001600360008573ffffffffffffffffffffffffffffffffffffffff1673ffffffffffffffffffffffffffffffffffffffff16815260200190815260200160002060008282546114aa91906130dc565b925050819055506001600360008473ffffffffffffffffffffffffffffffffffffffff1673ffffffffffffffffffffffffffffffffffffffff16815260200190815260200160002060008282546115019190612c74565b92505081905550816002600083815260200190815260200160002060006101000a81548173ffffffffffffffffffffffffffffffffffffffff021916908373ffffffffffffffffffffffffffffffffffffffff160217905550808273ffffffffffffffffffffffffffffffffffffffff168473ffffffffffffffffffffffffffffffffffffffff167fddf252ad1be2c89b69c2b068fc378daa952ba7f163c4a11628f55a4df523b3ef60405160405180910390a46115c0838383611a70565b505050565b6115cd611209565b73ffffffffffffffffffffffffffffffffffffffff166115eb610b92565b73ffffffffffffffffffffffffffffffffffffffff1614611641576040517f08c379a00000000000000000000000000000000000000000000000000000000081526004016116389061315c565b60405180910390fd5b565b6000600760009054906101000a900473ffffffffffffffffffffffffffffffffffffffff16905081600760006101000a81548173ffffffffffffffffffffffffffffffffffffffff021916908373ffffffffffffffffffffffffffffffffffffffff1602179055508173ffffffffffffffffffffffffffffffffffffffff168173ffffffffffffffffffffffffffffffffffffffff167f8be0079c531659141344cd1fd0a4f28419497f9722a3daafe3b4186f6b6457e060405160405180910390a35050565b8173ffffffffffffffffffffffffffffffffffffffff168373ffffffffffffffffffffffffffffffffffffffff1603611777576040517f08c379a000000000000000000000000000000000000000000000000000000000815260040161176e906131c8565b60405180910390fd5b80600560008573ffffffffffffffffffffffffffffffffffffffff1673ffffffffffffffffffffffffffffffffffffffff16815260200190815260200160002060008473ffffffffffffffffffffffffffffffffffffffff1673ffffffffffffffffffffffffffffffffffffffff16815260200190815260200160002060006101000a81548160ff0219169083151502179055508173ffffffffffffffffffffffffffffffffffffffff168373ffffffffffffffffffffffffffffffffffffffff167f17307eab39ab6107e8899845ad3d59bd9653f200f220920489ca2b5937696c31836040516118689190612067565b60405180910390a3505050565b61188084848461135f565b61188c84848484611a75565b6118cb576040517f08c379a00000000000000000000000000000000000000000000000000000000081526004016118c29061325a565b60405180910390fd5b50505050565b606060405180602001604052806000815250905090565b60606118f3826111be565b60006118fd6118d1565b9050600081511161191d5760405180602001604052806000815250611948565b8061192784611bfc565b604051602001611938929190612bb5565b6040516020818303038152906040525b915050919050565b6001816000016000828254019250508190555050565b600081600001549050919050565b61198e828260405180602001604052806000815250611d5c565b5050565b61199b826119ff565b6119da576040517f08c379a00000000000000000000000000000000000000000000000000000000081526004016119d1906132ec565b60405180910390fd5b806006600084815260200190815260200160002090816119fa9190612e54565b505050565b60008073ffffffffffffffffffffffffffffffffffffffff166002600084815260200190815260200160002060009054906101000a900473ffffffffffffffffffffffffffffffffffffffff1673ffffffffffffffffffffffffffffffffffffffff1614159050919050565b505050565b505050565b6000611a968473ffffffffffffffffffffffffffffffffffffffff16611db7565b15611bef578373ffffffffffffffffffffffffffffffffffffffff1663150b7a02611abf611209565b8786866040518563ffffffff1660e01b8152600401611ae19493929190613361565b6020604051808303816000875af1925050508015611b1d57506040513d601f19601f82011682018060405250810190611b1a91906133c2565b60015b611b9f573d8060008114611b4d576040519150601f19603f3d011682016040523d82523d6000602084013e611b52565b606091505b506000815103611b97576040517f08c379a0000000000000000000000000000000000000000000000000000000008152600401611b8e9061325a565b60405180910390fd5b805181602001fd5b63150b7a0260e01b7bffffffffffffffffffffffffffffffffffffffffffffffffffffffff1916817bffffffffffffffffffffffffffffffffffffffffffffffffffffffff191614915050611bf4565b600190505b949350505050565b606060008203611c43576040518060400160405280600181526020017f30000000000000000000000000000000000000000000000000000000000000008152509050611d57565b600082905060005b60008214611c75578080611c5e906133ef565b915050600a82611c6e9190613466565b9150611c4b565b60008167ffffffffffffffff811115611c9157611c9061257a565b5b6040519080825280601f01601f191660200182016040528015611cc35781602001600182028036833780820191505090505b5090505b60008514611d5057600182611cdc91906130dc565b9150600a85611ceb9190613497565b6030611cf79190612c74565b60f81b818381518110611d0d57611d0c6134c8565b5b60200101907effffffffffffffffffffffffffffffffffffffffffffffffffffffffffffff1916908160001a905350600a85611d499190613466565b9450611cc7565b8093505050505b919050565b611d668383611dda565b611d736000848484611a75565b611db2576040517f08c379a0000000000000000000000000000000000000000000000000000000008152600401611da99061325a565b60405180910390fd5b505050565b6000808273ffffffffffffffffffffffffffffffffffffffff163b119050919050565b600073ffffffffffffffffffffffffffffffffffffffff168273ffffffffffffffffffffffffffffffffffffffff1603611e49576040517f08c379a0000000000000000000000000000000000000000000000000000000008152600401611e4090613543565b60405180910390fd5b611e52816119ff565b15611e92576040517f08c379a0000000000000000000000000000000000000000000000000000000008152600401611e89906135af565b60405180910390fd5b611e9e60008383611a6b565b6001600360008473ffffffffffffffffffffffffffffffffffffffff1673ffffffffffffffffffffffffffffffffffffffff1681526020019081526020016000206000828254611eee9190612c74565b92505081905550816002600083815260200190815260200160002060006101000a81548173ffffffffffffffffffffffffffffffffffffffff021916908373ffffffffffffffffffffffffffffffffffffffff160217905550808273ffffffffffffffffffffffffffffffffffffffff16600073ffffffffffffffffffffffffffffffffffffffff167fddf252ad1be2c89b69c2b068fc378daa952ba7f163c4a11628f55a4df523b3ef60405160405180910390a4611faf60008383611a70565b5050565b6000604051905090565b600080fd5b600080fd5b60007fffffffff0000000000000000000000000000000000000000000000000000000082169050919050565b611ffc81611fc7565b811461200757600080fd5b50565b60008135905061201981611ff3565b92915050565b60006020828403121561203557612034611fbd565b5b60006120438482850161200a565b91505092915050565b60008115159050919050565b6120618161204c565b82525050565b600060208201905061207c6000830184612058565b92915050565b600081519050919050565b600082825260208201905092915050565b60005b838110156120bc5780820151818401526020810190506120a1565b60008484015250505050565b6000601f19601f8301169050919050565b60006120e482612082565b6120ee818561208d565b93506120fe81856020860161209e565b612107816120c8565b840191505092915050565b6000602082019050818103600083015261212c81846120d9565b905092915050565b6000819050919050565b61214781612134565b811461215257600080fd5b50565b6000813590506121648161213e565b92915050565b6000602082840312156121805761217f611fbd565b5b600061218e84828501612155565b91505092915050565b600073ffffffffffffffffffffffffffffffffffffffff82169050919050565b60006121c282612197565b9050919050565b6121d2816121b7565b82525050565b60006020820190506121ed60008301846121c9565b92915050565b6121fc816121b7565b811461220757600080fd5b50565b600081359050612219816121f3565b92915050565b6000806040838503121561223657612235611fbd565b5b60006122448582860161220a565b925050602061225585828601612155565b9150509250929050565b60008060006060848603121561227857612277611fbd565b5b60006122868682870161220a565b93505060206122978682870161220a565b92505060406122a886828701612155565b9150509250925092565b6000602082840312156122c8576122c7611fbd565b5b60006122d68482850161220a565b91505092915050565b600081519050919050565b600082825260208201905092915050565b6000819050602082019050919050565b612314816121b7565b82525050565b61232381612134565b82525050565b600082825260208201905092915050565b600061234582612082565b61234f8185612329565b935061235f81856020860161209e565b612368816120c8565b840191505092915050565b600060808301600083015161238b600086018261230b565b50602083015161239e602086018261231a565b5060408301516123b1604086018261231a565b50606083015184820360608601526123c9828261233a565b9150508091505092915050565b60006123e28383612373565b905092915050565b6000602082019050919050565b6000612402826122df565b61240c81856122ea565b93508360208202850161241e856122fb565b8060005b8581101561245a578484038952815161243b85826123d6565b9450612446836123ea565b925060208a01995050600181019050612422565b50829750879550505050505092915050565b6000602082019050818103600083015261248681846123f7565b905092915050565b61249781612134565b82525050565b60006080820190506124b260008301876121c9565b6124bf602083018661248e565b6124cc604083018561248e565b81810360608301526124de81846120d9565b905095945050505050565b60006020820190506124fe600083018461248e565b92915050565b61250d8161204c565b811461251857600080fd5b50565b60008135905061252a81612504565b92915050565b6000806040838503121561254757612546611fbd565b5b60006125558582860161220a565b92505060206125668582860161251b565b9150509250929050565b600080fd5b600080fd5b7f4e487b7100000000000000000000000000000000000000000000000000000000600052604160045260246000fd5b6125b2826120c8565b810181811067ffffffffffffffff821117156125d1576125d061257a565b5b80604052505050565b60006125e4611fb3565b90506125f082826125a9565b919050565b600067ffffffffffffffff8211156126105761260f61257a565b5b612619826120c8565b9050602081019050919050565b82818337600083830152505050565b6000612648612643846125f5565b6125da565b90508281526020810184848401111561266457612663612575565b5b61266f848285612626565b509392505050565b600082601f83011261268c5761268b612570565b5b813561269c848260208601612635565b91505092915050565b600080600080608085870312156126bf576126be611fbd565b5b60006126cd8782880161220a565b94505060206126de8782880161220a565b93505060406126ef87828801612155565b925050606085013567ffffffffffffffff8111156127105761270f611fc2565b5b61271c87828801612677565b91505092959194509250565b600067ffffffffffffffff8211156127435761274261257a565b5b61274c826120c8565b9050602081019050919050565b600061276c61276784612728565b6125da565b90508281526020810184848401111561278857612787612575565b5b612793848285612626565b509392505050565b600082601f8301126127b0576127af612570565b5b81356127c0848260208601612759565b91505092915050565b600080604083850312156127e0576127df611fbd565b5b60006127ee8582860161220a565b925050602083013567ffffffffffffffff81111561280f5761280e611fc2565b5b61281b8582860161279b565b9150509250929050565b6000806040838503121561283c5761283b611fbd565b5b600061284a8582860161220a565b925050602061285b8582860161220a565b9150509250929050565b7f4e487b7100000000000000000000000000000000000000000000000000000000600052602260045260246000fd5b600060028204905060018216806128ac57607f821691505b6020821081036128bf576128be612865565b5b50919050565b7f4552433732313a20617070726f76616c20746f2063757272656e74206f776e6560008201527f7200000000000000000000000000000000000000000000000000000000000000602082015250565b600061292160218361208d565b915061292c826128c5565b604082019050919050565b6000602082019050818103600083015261295081612914565b9050919050565b7f4552433732313a20617070726f76652063616c6c6572206973206e6f7420746f60008201527f6b656e206f776e6572206e6f7220617070726f76656420666f7220616c6c0000602082015250565b60006129b3603e8361208d565b91506129be82612957565b604082019050919050565b600060208201905081810360008301526129e2816129a6565b9050919050565b7f4552433732313a2063616c6c6572206973206e6f7420746f6b656e206f776e6560008201527f72206e6f7220617070726f766564000000000000000000000000000000000000602082015250565b6000612a45602e8361208d565b9150612a50826129e9565b604082019050919050565b60006020820190508181036000830152612a7481612a38565b9050919050565b7f4552433732313a20696e76616c696420746f6b656e2049440000000000000000600082015250565b6000612ab160188361208d565b9150612abc82612a7b565b602082019050919050565b60006020820190508181036000830152612ae081612aa4565b9050919050565b7f4552433732313a2061646472657373207a65726f206973206e6f74206120766160008201527f6c6964206f776e65720000000000000000000000000000000000000000000000602082015250565b6000612b4360298361208d565b9150612b4e82612ae7565b604082019050919050565b60006020820190508181036000830152612b7281612b36565b9050919050565b600081905092915050565b6000612b8f82612082565b612b998185612b79565b9350612ba981856020860161209e565b80840191505092915050565b6000612bc18285612b84565b9150612bcd8284612b84565b91508190509392505050565b7f4d696e74696e67206973206e6f7420656e61626c656400000000000000000000600082015250565b6000612c0f60168361208d565b9150612c1a82612bd9565b602082019050919050565b60006020820190508181036000830152612c3e81612c02565b9050919050565b7f4e487b7100000000000000000000000000000000000000000000000000000000600052601160045260246000fd5b6000612c7f82612134565b9150612c8a83612134565b9250828201905080821115612ca257612ca1612c45565b5b92915050565b60008190508160005260206000209050919050565b60006020601f8301049050919050565b600082821b905092915050565b600060088302612d0a7fffffffffffffffffffffffffffffffffffffffffffffffffffffffffffffffff82612ccd565b612d148683612ccd565b95508019841693508086168417925050509392505050565b6000819050919050565b6000612d51612d4c612d4784612134565b612d2c565b612134565b9050919050565b6000819050919050565b612d6b83612d36565b612d7f612d7782612d58565b848454612cda565b825550505050565b600090565b612d94612d87565b612d9f818484612d62565b505050565b5b81811015612dc357612db8600082612d8c565b600181019050612da5565b5050565b601f821115612e0857612dd981612ca8565b612de284612cbd565b81016020851015612df1578190505b612e05612dfd85612cbd565b830182612da4565b50505b505050565b600082821c905092915050565b6000612e2b60001984600802612e0d565b1980831691505092915050565b6000612e448383612e1a565b9150826002028217905092915050565b612e5d82612082565b67ffffffffffffffff811115612e7657612e7561257a565b5b612e808254612894565b612e8b828285612dc7565b600060209050601f831160018114612ebe5760008415612eac578287015190505b612eb68582612e38565b865550612f1e565b601f198416612ecc86612ca8565b60005b82811015612ef457848901518255600182019150602085019450602081019050612ecf565b86831015612f115784890151612f0d601f891682612e1a565b8355505b6001600288020188555050505b505050505050565b7f4f776e61626c653a206e6577206f776e657220697320746865207a65726f206160008201527f6464726573730000000000000000000000000000000000000000000000000000602082015250565b6000612f8260268361208d565b9150612f8d82612f26565b604082019050919050565b60006020820190508181036000830152612fb181612f75565b9050919050565b7f4552433732313a207472616e736665722066726f6d20696e636f72726563742060008201527f6f776e6572000000000000000000000000000000000000000000000000000000602082015250565b600061301460258361208d565b915061301f82612fb8565b604082019050919050565b6000602082019050818103600083015261304381613007565b9050919050565b7f4552433732313a207472616e7366657220746f20746865207a65726f2061646460008201527f7265737300000000000000000000000000000000000000000000000000000000602082015250565b60006130a660248361208d565b91506130b18261304a565b604082019050919050565b600060208201905081810360008301526130d581613099565b9050919050565b60006130e782612134565b91506130f283612134565b925082820390508181111561310a57613109612c45565b5b92915050565b7f4f776e61626c653a2063616c6c6572206973206e6f7420746865206f776e6572600082015250565b600061314660208361208d565b915061315182613110565b602082019050919050565b6000602082019050818103600083015261317581613139565b9050919050565b7f4552433732313a20617070726f766520746f2063616c6c657200000000000000600082015250565b60006131b260198361208d565b91506131bd8261317c565b602082019050919050565b600060208201905081810360008301526131e1816131a5565b9050919050565b7f4552433732313a207472616e7366657220746f206e6f6e20455243373231526560008201527f63656976657220696d706c656d656e7465720000000000000000000000000000602082015250565b600061324460328361208d565b915061324f826131e8565b604082019050919050565b6000602082019050818103600083015261327381613237565b9050919050565b7f45524337323155524953746f726167653a2055524920736574206f66206e6f6e60008201527f6578697374656e7420746f6b656e000000000000000000000000000000000000602082015250565b60006132d6602e8361208d565b91506132e18261327a565b604082019050919050565b60006020820190508181036000830152613305816132c9565b9050919050565b600081519050919050565b600082825260208201905092915050565b60006133338261330c565b61333d8185613317565b935061334d81856020860161209e565b613356816120c8565b840191505092915050565b600060808201905061337660008301876121c9565b61338360208301866121c9565b613390604083018561248e565b81810360608301526133a28184613328565b905095945050505050565b6000815190506133bc81611ff3565b92915050565b6000602082840312156133d8576133d7611fbd565b5b60006133e6848285016133ad565b91505092915050565b60006133fa82612134565b91507fffffffffffffffffffffffffffffffffffffffffffffffffffffffffffffffff820361342c5761342b612c45565b5b600182019050919050565b7f4e487b7100000000000000000000000000000000000000000000000000000000600052601260045260246000fd5b600061347182612134565b915061347c83612134565b92508261348c5761348b613437565b5b828204905092915050565b60006134a282612134565b91506134ad83612134565b9250826134bd576134bc613437565b5b828206905092915050565b7f4e487b7100000000000000000000000000000000000000000000000000000000600052603260045260246000fd5b7f4552433732313a206d696e7420746f20746865207a65726f2061646472657373600082015250565b600061352d60208361208d565b9150613538826134f7565b602082019050919050565b6000602082019050818103600083015261355c81613520565b9050919050565b7f4552433732313a20746f6b656e20616c7265616479206d696e74656400000000600082015250565b6000613599601c8361208d565b91506135a482613563565b602082019050919050565b600060208201905081810360008301526135c88161358c565b905091905056fea26469706673582212208fe21535d10fa01a6df31ce2dd15ca6638065e337956d690c00848525026c3e464736f6c63430008110033",
  "immutableReferences": {},
  "source": "//Contract based on [https://docs.openzeppelin.com/contracts/3.x/erc721](https://docs.openzeppelin.com/contracts/3.x/erc721)\n// SPDX-License-Identifier: GPL-3.0\n\nimport \"@openzeppelin/contracts/token/ERC721/ERC721.sol\";\nimport \"@openzeppelin/contracts/utils/math/SafeMath.sol\";\nimport \"@openzeppelin/contracts/utils/Counters.sol\";\nimport \"@openzeppelin/contracts/access/Ownable.sol\";\nimport \"@openzeppelin/contracts/token/ERC721/extensions/ERC721URIStorage.sol\";\nimport \"@openzeppelin/contracts/security/ReentrancyGuard.sol\";\n\npragma solidity >=0.8.4 <0.9.0;\n\ncontract NFTFactory is ERC721URIStorage, Ownable, ReentrancyGuard {\n\tusing SafeMath for uint256;\n\n\t// Struct to keep track of a user's winning NFTs\n\tstruct NFT {\n\t\taddress _userAddress; // NFT user address\n\t\tuint256 uid; // NFT uid for user\n\t\tuint256 tokenId; // NFT id in NFT factory\n\t\tstring metaDataURL; // NFT metadata URL\n\t}\n\n\t// Bool to enable minting\n\tbool public isMintEnabled;\n\t// Use a counter list for every nft minted\n\tusing Counters for Counters.Counter;\n\t// TokenIds list to store every nft token id minted\n\tCounters.Counter private _tokenIds;\n\t// create an event for mintNFT\n\tevent NFTMinted(uint256);\n\t// create an event for toggling minting\n\tevent MintToggle(bool);\n\n\tmapping(address => NFT[]) public nfts; // maps the winners to there winnings\n\n\t// Extend the contract with the ERC721 token constructor\n\tconstructor() ReentrancyGuard() ERC721(\"Consensys Lottery Club\", \"CLC\") {\n\t\tisMintEnabled = true; // Enable minting on contract deploy\n\t}\n\n\t// @info toggle nft factory mint\n\tfunction toggleIsMintEnabled() external onlyOwner {\n\t\t// Toggle mint\n\t\tisMintEnabled = !isMintEnabled;\n\t\temit MintToggle(isMintEnabled);\n\t}\n\n\t// @info return winnings for specific caller address\n\tfunction getNFTSForAddress(address addr) public view returns (NFT[] memory) {\n\t\treturn nfts[addr];\n\t}\n\n\t// @info Function to mint an NFT\n\tfunction mint(address recipient, string memory tokenURI)\n\t\tpublic\n\t\treturns (uint256)\n\t{\n\t\trequire(isMintEnabled, \"Minting is not enabled\");\n\t\t// Create a new nft token id by incrementing the _tokenIds list\n\t\t_tokenIds.increment();\n\t\t// Get the latest nft token id from the list\n\t\tuint256 newTokenId = _tokenIds.current();\n\t\t// Mint an nft and link it to the recipient address\n\t\t_safeMint(recipient, newTokenId);\n\t\t// get nfts of winner\n\t\tuint256 newNFTUid = getNFTSForAddress(recipient).length;\n\t\t// Linkg the nft to a URI\n\t\t_setTokenURI(newTokenId, tokenURI);\n\t\t// update winners nfts with new nft id\n\t\tnfts[recipient].push(NFT(recipient, newNFTUid + 1, newTokenId, tokenURI));\n\t\t// emit event for minting an NFT\n\t\temit NFTMinted(newTokenId);\n\t\t// return nft id\n\t\treturn newTokenId;\n\t}\n}\n",
  "sourcePath": "D:\\dev\\consensys\\web3-lottery\\node_modules\\crypto_lottery_contract\\contracts\\NFTFactory.sol",
  "compiler": {
    "name": "solc",
    "version": "0.8.17+commit.8df45f5f.Emscripten.clang"
  },
  "schemaVersion": "3.4.10",
  "updatedAt": "2022-11-01T20:04:41.428Z",
  "devdoc": {
    "kind": "dev",
    "methods": {
      "approve(address,uint256)": {
        "details": "See {IERC721-approve}."
      },
      "balanceOf(address)": {
        "details": "See {IERC721-balanceOf}."
      },
      "getApproved(uint256)": {
        "details": "See {IERC721-getApproved}."
      },
      "isApprovedForAll(address,address)": {
        "details": "See {IERC721-isApprovedForAll}."
      },
      "name()": {
        "details": "See {IERC721Metadata-name}."
      },
      "owner()": {
        "details": "Returns the address of the current owner."
      },
      "ownerOf(uint256)": {
        "details": "See {IERC721-ownerOf}."
      },
      "renounceOwnership()": {
        "details": "Leaves the contract without owner. It will not be possible to call `onlyOwner` functions anymore. Can only be called by the current owner. NOTE: Renouncing ownership will leave the contract without an owner, thereby removing any functionality that is only available to the owner."
      },
      "safeTransferFrom(address,address,uint256)": {
        "details": "See {IERC721-safeTransferFrom}."
      },
      "safeTransferFrom(address,address,uint256,bytes)": {
        "details": "See {IERC721-safeTransferFrom}."
      },
      "setApprovalForAll(address,bool)": {
        "details": "See {IERC721-setApprovalForAll}."
      },
      "supportsInterface(bytes4)": {
        "details": "See {IERC165-supportsInterface}."
      },
      "symbol()": {
        "details": "See {IERC721Metadata-symbol}."
      },
      "tokenURI(uint256)": {
        "details": "See {IERC721Metadata-tokenURI}."
      },
      "transferFrom(address,address,uint256)": {
        "details": "See {IERC721-transferFrom}."
      },
      "transferOwnership(address)": {
        "details": "Transfers ownership of the contract to a new account (`newOwner`). Can only be called by the current owner."
      }
    },
    "version": 1
  },
  "userdoc": {
    "kind": "user",
    "methods": {},
    "version": 1
  }
}