{
  "contractName": "NFTFactory",
  "abi": [
    {
      "inputs": [],
      "stateMutability": "nonpayable",
      "type": "constructor"
    },
    {
      "anonymous": false,
      "inputs": [
        {
          "indexed": true,
          "internalType": "address",
          "name": "owner",
          "type": "address"
        },
        {
          "indexed": true,
          "internalType": "address",
          "name": "approved",
          "type": "address"
        },
        {
          "indexed": true,
          "internalType": "uint256",
          "name": "tokenId",
          "type": "uint256"
        }
      ],
      "name": "Approval",
      "type": "event"
    },
    {
      "anonymous": false,
      "inputs": [
        {
          "indexed": true,
          "internalType": "address",
          "name": "owner",
          "type": "address"
        },
        {
          "indexed": true,
          "internalType": "address",
          "name": "operator",
          "type": "address"
        },
        {
          "indexed": false,
          "internalType": "bool",
          "name": "approved",
          "type": "bool"
        }
      ],
      "name": "ApprovalForAll",
      "type": "event"
    },
    {
      "anonymous": false,
      "inputs": [
        {
          "indexed": false,
          "internalType": "bool",
          "name": "",
          "type": "bool"
        }
      ],
      "name": "MintToggle",
      "type": "event"
    },
    {
      "anonymous": false,
      "inputs": [
        {
          "indexed": false,
          "internalType": "uint256",
          "name": "",
          "type": "uint256"
        }
      ],
      "name": "NFTMinted",
      "type": "event"
    },
    {
      "anonymous": false,
      "inputs": [
        {
          "indexed": true,
          "internalType": "address",
          "name": "previousOwner",
          "type": "address"
        },
        {
          "indexed": true,
          "internalType": "address",
          "name": "newOwner",
          "type": "address"
        }
      ],
      "name": "OwnershipTransferred",
      "type": "event"
    },
    {
      "anonymous": false,
      "inputs": [
        {
          "indexed": true,
          "internalType": "address",
          "name": "from",
          "type": "address"
        },
        {
          "indexed": true,
          "internalType": "address",
          "name": "to",
          "type": "address"
        },
        {
          "indexed": true,
          "internalType": "uint256",
          "name": "tokenId",
          "type": "uint256"
        }
      ],
      "name": "Transfer",
      "type": "event"
    },
    {
      "inputs": [
        {
          "internalType": "address",
          "name": "to",
          "type": "address"
        },
        {
          "internalType": "uint256",
          "name": "tokenId",
          "type": "uint256"
        }
      ],
      "name": "approve",
      "outputs": [],
      "stateMutability": "nonpayable",
      "type": "function"
    },
    {
      "inputs": [
        {
          "internalType": "address",
          "name": "owner",
          "type": "address"
        }
      ],
      "name": "balanceOf",
      "outputs": [
        {
          "internalType": "uint256",
          "name": "",
          "type": "uint256"
        }
      ],
      "stateMutability": "view",
      "type": "function"
    },
    {
      "inputs": [
        {
          "internalType": "uint256",
          "name": "tokenId",
          "type": "uint256"
        }
      ],
      "name": "getApproved",
      "outputs": [
        {
          "internalType": "address",
          "name": "",
          "type": "address"
        }
      ],
      "stateMutability": "view",
      "type": "function"
    },
    {
      "inputs": [
        {
          "internalType": "address",
          "name": "owner",
          "type": "address"
        },
        {
          "internalType": "address",
          "name": "operator",
          "type": "address"
        }
      ],
      "name": "isApprovedForAll",
      "outputs": [
        {
          "internalType": "bool",
          "name": "",
          "type": "bool"
        }
      ],
      "stateMutability": "view",
      "type": "function"
    },
    {
      "inputs": [],
      "name": "isMintEnabled",
      "outputs": [
        {
          "internalType": "bool",
          "name": "",
          "type": "bool"
        }
      ],
      "stateMutability": "view",
      "type": "function"
    },
    {
      "inputs": [],
      "name": "name",
      "outputs": [
        {
          "internalType": "string",
          "name": "",
          "type": "string"
        }
      ],
      "stateMutability": "view",
      "type": "function"
    },
    {
      "inputs": [
        {
          "internalType": "address",
          "name": "",
          "type": "address"
        },
        {
          "internalType": "uint256",
          "name": "",
          "type": "uint256"
        }
      ],
      "name": "nfts",
      "outputs": [
        {
          "internalType": "address",
          "name": "_userAddress",
          "type": "address"
        },
        {
          "internalType": "uint256",
          "name": "uid",
          "type": "uint256"
        },
        {
          "internalType": "uint256",
          "name": "tokenId",
          "type": "uint256"
        },
        {
          "internalType": "string",
          "name": "metaDataURL",
          "type": "string"
        }
      ],
      "stateMutability": "view",
      "type": "function"
    },
    {
      "inputs": [],
      "name": "owner",
      "outputs": [
        {
          "internalType": "address",
          "name": "",
          "type": "address"
        }
      ],
      "stateMutability": "view",
      "type": "function"
    },
    {
      "inputs": [
        {
          "internalType": "uint256",
          "name": "tokenId",
          "type": "uint256"
        }
      ],
      "name": "ownerOf",
      "outputs": [
        {
          "internalType": "address",
          "name": "",
          "type": "address"
        }
      ],
      "stateMutability": "view",
      "type": "function"
    },
    {
      "inputs": [],
      "name": "renounceOwnership",
      "outputs": [],
      "stateMutability": "nonpayable",
      "type": "function"
    },
    {
      "inputs": [
        {
          "internalType": "address",
          "name": "from",
          "type": "address"
        },
        {
          "internalType": "address",
          "name": "to",
          "type": "address"
        },
        {
          "internalType": "uint256",
          "name": "tokenId",
          "type": "uint256"
        }
      ],
      "name": "safeTransferFrom",
      "outputs": [],
      "stateMutability": "nonpayable",
      "type": "function"
    },
    {
      "inputs": [
        {
          "internalType": "address",
          "name": "from",
          "type": "address"
        },
        {
          "internalType": "address",
          "name": "to",
          "type": "address"
        },
        {
          "internalType": "uint256",
          "name": "tokenId",
          "type": "uint256"
        },
        {
          "internalType": "bytes",
          "name": "data",
          "type": "bytes"
        }
      ],
      "name": "safeTransferFrom",
      "outputs": [],
      "stateMutability": "nonpayable",
      "type": "function"
    },
    {
      "inputs": [
        {
          "internalType": "address",
          "name": "operator",
          "type": "address"
        },
        {
          "internalType": "bool",
          "name": "approved",
          "type": "bool"
        }
      ],
      "name": "setApprovalForAll",
      "outputs": [],
      "stateMutability": "nonpayable",
      "type": "function"
    },
    {
      "inputs": [
        {
          "internalType": "bytes4",
          "name": "interfaceId",
          "type": "bytes4"
        }
      ],
      "name": "supportsInterface",
      "outputs": [
        {
          "internalType": "bool",
          "name": "",
          "type": "bool"
        }
      ],
      "stateMutability": "view",
      "type": "function"
    },
    {
      "inputs": [],
      "name": "symbol",
      "outputs": [
        {
          "internalType": "string",
          "name": "",
          "type": "string"
        }
      ],
      "stateMutability": "view",
      "type": "function"
    },
    {
      "inputs": [
        {
          "internalType": "uint256",
          "name": "tokenId",
          "type": "uint256"
        }
      ],
      "name": "tokenURI",
      "outputs": [
        {
          "internalType": "string",
          "name": "",
          "type": "string"
        }
      ],
      "stateMutability": "view",
      "type": "function"
    },
    {
      "inputs": [
        {
          "internalType": "address",
          "name": "from",
          "type": "address"
        },
        {
          "internalType": "address",
          "name": "to",
          "type": "address"
        },
        {
          "internalType": "uint256",
          "name": "tokenId",
          "type": "uint256"
        }
      ],
      "name": "transferFrom",
      "outputs": [],
      "stateMutability": "nonpayable",
      "type": "function"
    },
    {
      "inputs": [
        {
          "internalType": "address",
          "name": "newOwner",
          "type": "address"
        }
      ],
      "name": "transferOwnership",
      "outputs": [],
      "stateMutability": "nonpayable",
      "type": "function"
    },
    {
      "inputs": [],
      "name": "toggleIsMintEnabled",
      "outputs": [],
      "stateMutability": "nonpayable",
      "type": "function"
    },
    {
      "inputs": [
        {
          "internalType": "address",
          "name": "addr",
          "type": "address"
        }
      ],
      "name": "getNFTSForAddress",
      "outputs": [
        {
          "components": [
            {
              "internalType": "address",
              "name": "_userAddress",
              "type": "address"
            },
            {
              "internalType": "uint256",
              "name": "uid",
              "type": "uint256"
            },
            {
              "internalType": "uint256",
              "name": "tokenId",
              "type": "uint256"
            },
            {
              "internalType": "string",
              "name": "metaDataURL",
              "type": "string"
            }
          ],
          "internalType": "struct NFTFactory.NFT[]",
          "name": "",
          "type": "tuple[]"
        }
      ],
      "stateMutability": "view",
      "type": "function"
    },
    {
      "inputs": [
        {
          "internalType": "address",
          "name": "recipient",
          "type": "address"
        },
        {
          "internalType": "string",
          "name": "tokenURI",
          "type": "string"
        }
      ],
      "name": "mint",
      "outputs": [
        {
          "internalType": "uint256",
          "name": "",
          "type": "uint256"
        }
      ],
      "stateMutability": "nonpayable",
      "type": "function"
    }
  ],
  "bytecode": "0x60806040523480156200001157600080fd5b506040518060400160405280601681526020017f436f6e73656e737973204c6f747465727920436c7562000000000000000000008152506040518060400160405280600381526020017f434c43000000000000000000000000000000000000000000000000000000000081525081600090816200008f919062000435565b508060019081620000a1919062000435565b505050620000c4620000b8620000ed60201b60201c565b620000f560201b60201c565b60016008819055506001600960006101000a81548160ff0219169083151502179055506200051c565b600033905090565b6000600760009054906101000a900473ffffffffffffffffffffffffffffffffffffffff16905081600760006101000a81548173ffffffffffffffffffffffffffffffffffffffff021916908373ffffffffffffffffffffffffffffffffffffffff1602179055508173ffffffffffffffffffffffffffffffffffffffff168173ffffffffffffffffffffffffffffffffffffffff167f8be0079c531659141344cd1fd0a4f28419497f9722a3daafe3b4186f6b6457e060405160405180910390a35050565b600081519050919050565b7f4e487b7100000000000000000000000000000000000000000000000000000000600052604160045260246000fd5b7f4e487b7100000000000000000000000000000000000000000000000000000000600052602260045260246000fd5b600060028204905060018216806200023d57607f821691505b602082108103620002535762000252620001f5565b5b50919050565b60008190508160005260206000209050919050565b60006020601f8301049050919050565b600082821b905092915050565b600060088302620002bd7fffffffffffffffffffffffffffffffffffffffffffffffffffffffffffffffff826200027e565b620002c986836200027e565b95508019841693508086168417925050509392505050565b6000819050919050565b6000819050919050565b600062000316620003106200030a84620002e1565b620002eb565b620002e1565b9050919050565b6000819050919050565b6200033283620002f5565b6200034a62000341826200031d565b8484546200028b565b825550505050565b600090565b6200036162000352565b6200036e81848462000327565b505050565b5b8181101562000396576200038a60008262000357565b60018101905062000374565b5050565b601f821115620003e557620003af8162000259565b620003ba846200026e565b81016020851015620003ca578190505b620003e2620003d9856200026e565b83018262000373565b50505b505050565b600082821c905092915050565b60006200040a60001984600802620003ea565b1980831691505092915050565b6000620004258383620003f7565b9150826002028217905092915050565b6200044082620001bb565b67ffffffffffffffff8111156200045c576200045b620001c6565b5b62000468825462000224565b620004758282856200039a565b600060209050601f831160018114620004ad576000841562000498578287015190505b620004a4858262000417565b86555062000514565b601f198416620004bd8662000259565b60005b82811015620004e757848901518255600182019150602085019450602081019050620004c0565b8683101562000507578489015162000503601f891682620003f7565b8355505b6001600288020188555050505b505050505050565b61358c806200052c6000396000f3fe608060405234801561001057600080fd5b50600436106101375760003560e01c806370a08231116100b8578063b88d4fde1161007c578063b88d4fde14610351578063c40732171461036d578063c87b56dd14610377578063d0def521146103a7578063e985e9c5146103d7578063f2fde38b1461040757610137565b806370a08231146102bf578063715018a6146102ef5780638da5cb5b146102f957806395d89b4114610317578063a22cb4651461033557610137565b8063346de50a116100ff578063346de50a146101f257806341c453591461021057806342842e0e1461024057806343af356b1461025c5780636352211e1461028f57610137565b806301ffc9a71461013c57806306fdde031461016c578063081812fc1461018a578063095ea7b3146101ba57806323b872dd146101d6575b600080fd5b61015660048036038101906101519190611fa6565b610423565b6040516101639190611fee565b60405180910390f35b610174610505565b6040516101819190612099565b60405180910390f35b6101a4600480360381019061019f91906120f1565b610597565b6040516101b1919061215f565b60405180910390f35b6101d460048036038101906101cf91906121a6565b6105dd565b005b6101f060048036038101906101eb91906121e6565b6106f4565b005b6101fa610754565b6040516102079190611fee565b60405180910390f35b61022a60048036038101906102259190612239565b610767565b60405161023791906123f3565b60405180910390f35b61025a600480360381019061025591906121e6565b610901565b005b610276600480360381019061027191906121a6565b610921565b6040516102869493929190612424565b60405180910390f35b6102a960048036038101906102a491906120f1565b610a16565b6040516102b6919061215f565b60405180910390f35b6102d960048036038101906102d49190612239565b610ac7565b6040516102e69190612470565b60405180910390f35b6102f7610b7e565b005b610301610b92565b60405161030e919061215f565b60405180910390f35b61031f610bbc565b60405161032c9190612099565b60405180910390f35b61034f600480360381019061034a91906124b7565b610c4e565b005b61036b6004803603810190610366919061262c565b610c64565b005b610375610cc6565b005b610391600480360381019061038c91906120f1565b610d40565b60405161039e9190612099565b60405180910390f35b6103c160048036038101906103bc9190612750565b610e52565b6040516103ce9190612470565b60405180910390f35b6103f160048036038101906103ec91906127ac565b61103d565b6040516103fe9190611fee565b60405180910390f35b610421600480360381019061041c9190612239565b6110d1565b005b60007f80ac58cd000000000000000000000000000000000000000000000000000000007bffffffffffffffffffffffffffffffffffffffffffffffffffffffff1916827bffffffffffffffffffffffffffffffffffffffffffffffffffffffff191614806104ee57507f5b5e139f000000000000000000000000000000000000000000000000000000007bffffffffffffffffffffffffffffffffffffffffffffffffffffffff1916827bffffffffffffffffffffffffffffffffffffffffffffffffffffffff1916145b806104fe57506104fd82611154565b5b9050919050565b6060600080546105149061281b565b80601f01602080910402602001604051908101604052809291908181526020018280546105409061281b565b801561058d5780601f106105625761010080835404028352916020019161058d565b820191906000526020600020905b81548152906001019060200180831161057057829003601f168201915b5050505050905090565b60006105a2826111be565b6004600083815260200190815260200160002060009054906101000a900473ffffffffffffffffffffffffffffffffffffffff169050919050565b60006105e882610a16565b90508073ffffffffffffffffffffffffffffffffffffffff168373ffffffffffffffffffffffffffffffffffffffff1603610658576040517f08c379a000000000000000000000000000000000000000000000000000000000815260040161064f906128be565b60405180910390fd5b8073ffffffffffffffffffffffffffffffffffffffff16610677611209565b73ffffffffffffffffffffffffffffffffffffffff1614806106a657506106a5816106a0611209565b61103d565b5b6106e5576040517f08c379a00000000000000000000000000000000000000000000000000000000081526004016106dc90612950565b60405180910390fd5b6106ef8383611211565b505050565b6107056106ff611209565b826112ca565b610744576040517f08c379a000000000000000000000000000000000000000000000000000000000815260040161073b906129e2565b60405180910390fd5b61074f83838361135f565b505050565b600960009054906101000a900460ff1681565b6060600b60008373ffffffffffffffffffffffffffffffffffffffff1673ffffffffffffffffffffffffffffffffffffffff168152602001908152602001600020805480602002602001604051908101604052809291908181526020016000905b828210156108f657838290600052602060002090600402016040518060800160405290816000820160009054906101000a900473ffffffffffffffffffffffffffffffffffffffff1673ffffffffffffffffffffffffffffffffffffffff1673ffffffffffffffffffffffffffffffffffffffff16815260200160018201548152602001600282015481526020016003820180546108659061281b565b80601f01602080910402602001604051908101604052809291908181526020018280546108919061281b565b80156108de5780601f106108b3576101008083540402835291602001916108de565b820191906000526020600020905b8154815290600101906020018083116108c157829003601f168201915b505050505081525050815260200190600101906107c8565b505050509050919050565b61091c83838360405180602001604052806000815250610c64565b505050565b600b602052816000526040600020818154811061093d57600080fd5b9060005260206000209060040201600091509150508060000160009054906101000a900473ffffffffffffffffffffffffffffffffffffffff16908060010154908060020154908060030180546109939061281b565b80601f01602080910402602001604051908101604052809291908181526020018280546109bf9061281b565b8015610a0c5780601f106109e157610100808354040283529160200191610a0c565b820191906000526020600020905b8154815290600101906020018083116109ef57829003601f168201915b5050505050905084565b6000806002600084815260200190815260200160002060009054906101000a900473ffffffffffffffffffffffffffffffffffffffff169050600073ffffffffffffffffffffffffffffffffffffffff168173ffffffffffffffffffffffffffffffffffffffff1603610abe576040517f08c379a0000000000000000000000000000000000000000000000000000000008152600401610ab590612a4e565b60405180910390fd5b80915050919050565b60008073ffffffffffffffffffffffffffffffffffffffff168273ffffffffffffffffffffffffffffffffffffffff1603610b37576040517f08c379a0000000000000000000000000000000000000000000000000000000008152600401610b2e90612ae0565b60405180910390fd5b600360008373ffffffffffffffffffffffffffffffffffffffff1673ffffffffffffffffffffffffffffffffffffffff168152602001908152602001600020549050919050565b610b866115c5565b610b906000611643565b565b6000600760009054906101000a900473ffffffffffffffffffffffffffffffffffffffff16905090565b606060018054610bcb9061281b565b80601f0160208091040260200160405190810160405280929190818152602001828054610bf79061281b565b8015610c445780601f10610c1957610100808354040283529160200191610c44565b820191906000526020600020905b815481529060010190602001808311610c2757829003601f168201915b5050505050905090565b610c60610c59611209565b8383611709565b5050565b610c75610c6f611209565b836112ca565b610cb4576040517f08c379a0000000000000000000000000000000000000000000000000000000008152600401610cab906129e2565b60405180910390fd5b610cc084848484611875565b50505050565b610cce6115c5565b600960009054906101000a900460ff1615600960006101000a81548160ff0219169083151502179055507f942ab1779a4e535aa5064870a6a13f4145675a833490c1b9b3ec5c8ce56505eb600960009054906101000a900460ff16604051610d369190611fee565b60405180910390a1565b6060610d4b826111be565b6000600660008481526020019081526020016000208054610d6b9061281b565b80601f0160208091040260200160405190810160405280929190818152602001828054610d979061281b565b8015610de45780601f10610db957610100808354040283529160200191610de4565b820191906000526020600020905b815481529060010190602001808311610dc757829003601f168201915b505050505090506000610df56118d1565b90506000815103610e0a578192505050610e4d565b600082511115610e3f578082604051602001610e27929190612b3c565b60405160208183030381529060405292505050610e4d565b610e48846118e8565b925050505b919050565b6000600960009054906101000a900460ff16610ea3576040517f08c379a0000000000000000000000000000000000000000000000000000000008152600401610e9a90612bac565b60405180910390fd5b610ead600a611950565b6000610eb9600a611966565b9050610ec58482611974565b6000610ed085610767565b519050610edd8285611b4d565b600b60008673ffffffffffffffffffffffffffffffffffffffff1673ffffffffffffffffffffffffffffffffffffffff16815260200190815260200160002060405180608001604052808773ffffffffffffffffffffffffffffffffffffffff168152602001600184610f509190612bfb565b815260200184815260200186815250908060018154018082558091505060019003906000526020600020906004020160009091909190915060008201518160000160006101000a81548173ffffffffffffffffffffffffffffffffffffffff021916908373ffffffffffffffffffffffffffffffffffffffff16021790555060208201518160010155604082015181600201556060820151816003019081610ff89190612ddb565b5050507fd9dc24857f317ed9abbbb42e920ede0104231eb1d3d70236a74887ffaf1598688260405161102a9190612470565b60405180910390a1819250505092915050565b6000600560008473ffffffffffffffffffffffffffffffffffffffff1673ffffffffffffffffffffffffffffffffffffffff16815260200190815260200160002060008373ffffffffffffffffffffffffffffffffffffffff1673ffffffffffffffffffffffffffffffffffffffff16815260200190815260200160002060009054906101000a900460ff16905092915050565b6110d96115c5565b600073ffffffffffffffffffffffffffffffffffffffff168173ffffffffffffffffffffffffffffffffffffffff1603611148576040517f08c379a000000000000000000000000000000000000000000000000000000000815260040161113f90612f1f565b60405180910390fd5b61115181611643565b50565b60007f01ffc9a7000000000000000000000000000000000000000000000000000000007bffffffffffffffffffffffffffffffffffffffffffffffffffffffff1916827bffffffffffffffffffffffffffffffffffffffffffffffffffffffff1916149050919050565b6111c781611bba565b611206576040517f08c379a00000000000000000000000000000000000000000000000000000000081526004016111fd90612a4e565b60405180910390fd5b50565b600033905090565b816004600083815260200190815260200160002060006101000a81548173ffffffffffffffffffffffffffffffffffffffff021916908373ffffffffffffffffffffffffffffffffffffffff160217905550808273ffffffffffffffffffffffffffffffffffffffff1661128483610a16565b73ffffffffffffffffffffffffffffffffffffffff167f8c5be1e5ebec7d5bd14f71427d1e84f3dd0314c0f7b2291e5b200ac8c7c3b92560405160405180910390a45050565b6000806112d683610a16565b90508073ffffffffffffffffffffffffffffffffffffffff168473ffffffffffffffffffffffffffffffffffffffff1614806113185750611317818561103d565b5b8061135657508373ffffffffffffffffffffffffffffffffffffffff1661133e84610597565b73ffffffffffffffffffffffffffffffffffffffff16145b91505092915050565b8273ffffffffffffffffffffffffffffffffffffffff1661137f82610a16565b73ffffffffffffffffffffffffffffffffffffffff16146113d5576040517f08c379a00000000000000000000000000000000000000000000000000000000081526004016113cc90612fb1565b60405180910390fd5b600073ffffffffffffffffffffffffffffffffffffffff168273ffffffffffffffffffffffffffffffffffffffff1603611444576040517f08c379a000000000000000000000000000000000000000000000000000000000815260040161143b90613043565b60405180910390fd5b61144f838383611c26565b61145a600082611211565b6001600360008573ffffffffffffffffffffffffffffffffffffffff1673ffffffffffffffffffffffffffffffffffffffff16815260200190815260200160002060008282546114aa9190613063565b925050819055506001600360008473ffffffffffffffffffffffffffffffffffffffff1673ffffffffffffffffffffffffffffffffffffffff16815260200190815260200160002060008282546115019190612bfb565b92505081905550816002600083815260200190815260200160002060006101000a81548173ffffffffffffffffffffffffffffffffffffffff021916908373ffffffffffffffffffffffffffffffffffffffff160217905550808273ffffffffffffffffffffffffffffffffffffffff168473ffffffffffffffffffffffffffffffffffffffff167fddf252ad1be2c89b69c2b068fc378daa952ba7f163c4a11628f55a4df523b3ef60405160405180910390a46115c0838383611c2b565b505050565b6115cd611209565b73ffffffffffffffffffffffffffffffffffffffff166115eb610b92565b73ffffffffffffffffffffffffffffffffffffffff1614611641576040517f08c379a0000000000000000000000000000000000000000000000000000000008152600401611638906130e3565b60405180910390fd5b565b6000600760009054906101000a900473ffffffffffffffffffffffffffffffffffffffff16905081600760006101000a81548173ffffffffffffffffffffffffffffffffffffffff021916908373ffffffffffffffffffffffffffffffffffffffff1602179055508173ffffffffffffffffffffffffffffffffffffffff168173ffffffffffffffffffffffffffffffffffffffff167f8be0079c531659141344cd1fd0a4f28419497f9722a3daafe3b4186f6b6457e060405160405180910390a35050565b8173ffffffffffffffffffffffffffffffffffffffff168373ffffffffffffffffffffffffffffffffffffffff1603611777576040517f08c379a000000000000000000000000000000000000000000000000000000000815260040161176e9061314f565b60405180910390fd5b80600560008573ffffffffffffffffffffffffffffffffffffffff1673ffffffffffffffffffffffffffffffffffffffff16815260200190815260200160002060008473ffffffffffffffffffffffffffffffffffffffff1673ffffffffffffffffffffffffffffffffffffffff16815260200190815260200160002060006101000a81548160ff0219169083151502179055508173ffffffffffffffffffffffffffffffffffffffff168373ffffffffffffffffffffffffffffffffffffffff167f17307eab39ab6107e8899845ad3d59bd9653f200f220920489ca2b5937696c31836040516118689190611fee565b60405180910390a3505050565b61188084848461135f565b61188c84848484611c30565b6118cb576040517f08c379a00000000000000000000000000000000000000000000000000000000081526004016118c2906131e1565b60405180910390fd5b50505050565b606060405180602001604052806000815250905090565b60606118f3826111be565b60006118fd6118d1565b9050600081511161191d5760405180602001604052806000815250611948565b8061192784611db7565b604051602001611938929190612b3c565b6040516020818303038152906040525b915050919050565b6001816000016000828254019250508190555050565b600081600001549050919050565b600073ffffffffffffffffffffffffffffffffffffffff168273ffffffffffffffffffffffffffffffffffffffff16036119e3576040517f08c379a00000000000000000000000000000000000000000000000000000000081526004016119da9061324d565b60405180910390fd5b6119ec81611bba565b15611a2c576040517f08c379a0000000000000000000000000000000000000000000000000000000008152600401611a23906132b9565b60405180910390fd5b611a3860008383611c26565b6001600360008473ffffffffffffffffffffffffffffffffffffffff1673ffffffffffffffffffffffffffffffffffffffff1681526020019081526020016000206000828254611a889190612bfb565b92505081905550816002600083815260200190815260200160002060006101000a81548173ffffffffffffffffffffffffffffffffffffffff021916908373ffffffffffffffffffffffffffffffffffffffff160217905550808273ffffffffffffffffffffffffffffffffffffffff16600073ffffffffffffffffffffffffffffffffffffffff167fddf252ad1be2c89b69c2b068fc378daa952ba7f163c4a11628f55a4df523b3ef60405160405180910390a4611b4960008383611c2b565b5050565b611b5682611bba565b611b95576040517f08c379a0000000000000000000000000000000000000000000000000000000008152600401611b8c9061334b565b60405180910390fd5b80600660008481526020019081526020016000209081611bb59190612ddb565b505050565b60008073ffffffffffffffffffffffffffffffffffffffff166002600084815260200190815260200160002060009054906101000a900473ffffffffffffffffffffffffffffffffffffffff1673ffffffffffffffffffffffffffffffffffffffff1614159050919050565b505050565b505050565b6000611c518473ffffffffffffffffffffffffffffffffffffffff16611f17565b15611daa578373ffffffffffffffffffffffffffffffffffffffff1663150b7a02611c7a611209565b8786866040518563ffffffff1660e01b8152600401611c9c94939291906133c0565b6020604051808303816000875af1925050508015611cd857506040513d601f19601f82011682018060405250810190611cd59190613421565b60015b611d5a573d8060008114611d08576040519150601f19603f3d011682016040523d82523d6000602084013e611d0d565b606091505b506000815103611d52576040517f08c379a0000000000000000000000000000000000000000000000000000000008152600401611d49906131e1565b60405180910390fd5b805181602001fd5b63150b7a0260e01b7bffffffffffffffffffffffffffffffffffffffffffffffffffffffff1916817bffffffffffffffffffffffffffffffffffffffffffffffffffffffff191614915050611daf565b600190505b949350505050565b606060008203611dfe576040518060400160405280600181526020017f30000000000000000000000000000000000000000000000000000000000000008152509050611f12565b600082905060005b60008214611e30578080611e199061344e565b915050600a82611e2991906134c5565b9150611e06565b60008167ffffffffffffffff811115611e4c57611e4b612501565b5b6040519080825280601f01601f191660200182016040528015611e7e5781602001600182028036833780820191505090505b5090505b60008514611f0b57600182611e979190613063565b9150600a85611ea691906134f6565b6030611eb29190612bfb565b60f81b818381518110611ec857611ec7613527565b5b60200101907effffffffffffffffffffffffffffffffffffffffffffffffffffffffffffff1916908160001a905350600a85611f0491906134c5565b9450611e82565b8093505050505b919050565b6000808273ffffffffffffffffffffffffffffffffffffffff163b119050919050565b6000604051905090565b600080fd5b600080fd5b60007fffffffff0000000000000000000000000000000000000000000000000000000082169050919050565b611f8381611f4e565b8114611f8e57600080fd5b50565b600081359050611fa081611f7a565b92915050565b600060208284031215611fbc57611fbb611f44565b5b6000611fca84828501611f91565b91505092915050565b60008115159050919050565b611fe881611fd3565b82525050565b60006020820190506120036000830184611fdf565b92915050565b600081519050919050565b600082825260208201905092915050565b60005b83811015612043578082015181840152602081019050612028565b60008484015250505050565b6000601f19601f8301169050919050565b600061206b82612009565b6120758185612014565b9350612085818560208601612025565b61208e8161204f565b840191505092915050565b600060208201905081810360008301526120b38184612060565b905092915050565b6000819050919050565b6120ce816120bb565b81146120d957600080fd5b50565b6000813590506120eb816120c5565b92915050565b60006020828403121561210757612106611f44565b5b6000612115848285016120dc565b91505092915050565b600073ffffffffffffffffffffffffffffffffffffffff82169050919050565b60006121498261211e565b9050919050565b6121598161213e565b82525050565b60006020820190506121746000830184612150565b92915050565b6121838161213e565b811461218e57600080fd5b50565b6000813590506121a08161217a565b92915050565b600080604083850312156121bd576121bc611f44565b5b60006121cb85828601612191565b92505060206121dc858286016120dc565b9150509250929050565b6000806000606084860312156121ff576121fe611f44565b5b600061220d86828701612191565b935050602061221e86828701612191565b925050604061222f868287016120dc565b9150509250925092565b60006020828403121561224f5761224e611f44565b5b600061225d84828501612191565b91505092915050565b600081519050919050565b600082825260208201905092915050565b6000819050602082019050919050565b61229b8161213e565b82525050565b6122aa816120bb565b82525050565b600082825260208201905092915050565b60006122cc82612009565b6122d681856122b0565b93506122e6818560208601612025565b6122ef8161204f565b840191505092915050565b60006080830160008301516123126000860182612292565b50602083015161232560208601826122a1565b50604083015161233860408601826122a1565b506060830151848203606086015261235082826122c1565b9150508091505092915050565b600061236983836122fa565b905092915050565b6000602082019050919050565b600061238982612266565b6123938185612271565b9350836020820285016123a585612282565b8060005b858110156123e157848403895281516123c2858261235d565b94506123cd83612371565b925060208a019950506001810190506123a9565b50829750879550505050505092915050565b6000602082019050818103600083015261240d818461237e565b905092915050565b61241e816120bb565b82525050565b60006080820190506124396000830187612150565b6124466020830186612415565b6124536040830185612415565b81810360608301526124658184612060565b905095945050505050565b60006020820190506124856000830184612415565b92915050565b61249481611fd3565b811461249f57600080fd5b50565b6000813590506124b18161248b565b92915050565b600080604083850312156124ce576124cd611f44565b5b60006124dc85828601612191565b92505060206124ed858286016124a2565b9150509250929050565b600080fd5b600080fd5b7f4e487b7100000000000000000000000000000000000000000000000000000000600052604160045260246000fd5b6125398261204f565b810181811067ffffffffffffffff8211171561255857612557612501565b5b80604052505050565b600061256b611f3a565b90506125778282612530565b919050565b600067ffffffffffffffff82111561259757612596612501565b5b6125a08261204f565b9050602081019050919050565b82818337600083830152505050565b60006125cf6125ca8461257c565b612561565b9050828152602081018484840111156125eb576125ea6124fc565b5b6125f68482856125ad565b509392505050565b600082601f830112612613576126126124f7565b5b81356126238482602086016125bc565b91505092915050565b6000806000806080858703121561264657612645611f44565b5b600061265487828801612191565b945050602061266587828801612191565b9350506040612676878288016120dc565b925050606085013567ffffffffffffffff81111561269757612696611f49565b5b6126a3878288016125fe565b91505092959194509250565b600067ffffffffffffffff8211156126ca576126c9612501565b5b6126d38261204f565b9050602081019050919050565b60006126f36126ee846126af565b612561565b90508281526020810184848401111561270f5761270e6124fc565b5b61271a8482856125ad565b509392505050565b600082601f830112612737576127366124f7565b5b81356127478482602086016126e0565b91505092915050565b6000806040838503121561276757612766611f44565b5b600061277585828601612191565b925050602083013567ffffffffffffffff81111561279657612795611f49565b5b6127a285828601612722565b9150509250929050565b600080604083850312156127c3576127c2611f44565b5b60006127d185828601612191565b92505060206127e285828601612191565b9150509250929050565b7f4e487b7100000000000000000000000000000000000000000000000000000000600052602260045260246000fd5b6000600282049050600182168061283357607f821691505b602082108103612846576128456127ec565b5b50919050565b7f4552433732313a20617070726f76616c20746f2063757272656e74206f776e6560008201527f7200000000000000000000000000000000000000000000000000000000000000602082015250565b60006128a8602183612014565b91506128b38261284c565b604082019050919050565b600060208201905081810360008301526128d78161289b565b9050919050565b7f4552433732313a20617070726f76652063616c6c6572206973206e6f7420746f60008201527f6b656e206f776e6572206e6f7220617070726f76656420666f7220616c6c0000602082015250565b600061293a603e83612014565b9150612945826128de565b604082019050919050565b600060208201905081810360008301526129698161292d565b9050919050565b7f4552433732313a2063616c6c6572206973206e6f7420746f6b656e206f776e6560008201527f72206e6f7220617070726f766564000000000000000000000000000000000000602082015250565b60006129cc602e83612014565b91506129d782612970565b604082019050919050565b600060208201905081810360008301526129fb816129bf565b9050919050565b7f4552433732313a20696e76616c696420746f6b656e2049440000000000000000600082015250565b6000612a38601883612014565b9150612a4382612a02565b602082019050919050565b60006020820190508181036000830152612a6781612a2b565b9050919050565b7f4552433732313a2061646472657373207a65726f206973206e6f74206120766160008201527f6c6964206f776e65720000000000000000000000000000000000000000000000602082015250565b6000612aca602983612014565b9150612ad582612a6e565b604082019050919050565b60006020820190508181036000830152612af981612abd565b9050919050565b600081905092915050565b6000612b1682612009565b612b208185612b00565b9350612b30818560208601612025565b80840191505092915050565b6000612b488285612b0b565b9150612b548284612b0b565b91508190509392505050565b7f4d696e74696e67206973206e6f7420656e61626c656400000000000000000000600082015250565b6000612b96601683612014565b9150612ba182612b60565b602082019050919050565b60006020820190508181036000830152612bc581612b89565b9050919050565b7f4e487b7100000000000000000000000000000000000000000000000000000000600052601160045260246000fd5b6000612c06826120bb565b9150612c11836120bb565b9250828201905080821115612c2957612c28612bcc565b5b92915050565b60008190508160005260206000209050919050565b60006020601f8301049050919050565b600082821b905092915050565b600060088302612c917fffffffffffffffffffffffffffffffffffffffffffffffffffffffffffffffff82612c54565b612c9b8683612c54565b95508019841693508086168417925050509392505050565b6000819050919050565b6000612cd8612cd3612cce846120bb565b612cb3565b6120bb565b9050919050565b6000819050919050565b612cf283612cbd565b612d06612cfe82612cdf565b848454612c61565b825550505050565b600090565b612d1b612d0e565b612d26818484612ce9565b505050565b5b81811015612d4a57612d3f600082612d13565b600181019050612d2c565b5050565b601f821115612d8f57612d6081612c2f565b612d6984612c44565b81016020851015612d78578190505b612d8c612d8485612c44565b830182612d2b565b50505b505050565b600082821c905092915050565b6000612db260001984600802612d94565b1980831691505092915050565b6000612dcb8383612da1565b9150826002028217905092915050565b612de482612009565b67ffffffffffffffff811115612dfd57612dfc612501565b5b612e07825461281b565b612e12828285612d4e565b600060209050601f831160018114612e455760008415612e33578287015190505b612e3d8582612dbf565b865550612ea5565b601f198416612e5386612c2f565b60005b82811015612e7b57848901518255600182019150602085019450602081019050612e56565b86831015612e985784890151612e94601f891682612da1565b8355505b6001600288020188555050505b505050505050565b7f4f776e61626c653a206e6577206f776e657220697320746865207a65726f206160008201527f6464726573730000000000000000000000000000000000000000000000000000602082015250565b6000612f09602683612014565b9150612f1482612ead565b604082019050919050565b60006020820190508181036000830152612f3881612efc565b9050919050565b7f4552433732313a207472616e736665722066726f6d20696e636f72726563742060008201527f6f776e6572000000000000000000000000000000000000000000000000000000602082015250565b6000612f9b602583612014565b9150612fa682612f3f565b604082019050919050565b60006020820190508181036000830152612fca81612f8e565b9050919050565b7f4552433732313a207472616e7366657220746f20746865207a65726f2061646460008201527f7265737300000000000000000000000000000000000000000000000000000000602082015250565b600061302d602483612014565b915061303882612fd1565b604082019050919050565b6000602082019050818103600083015261305c81613020565b9050919050565b600061306e826120bb565b9150613079836120bb565b925082820390508181111561309157613090612bcc565b5b92915050565b7f4f776e61626c653a2063616c6c6572206973206e6f7420746865206f776e6572600082015250565b60006130cd602083612014565b91506130d882613097565b602082019050919050565b600060208201905081810360008301526130fc816130c0565b9050919050565b7f4552433732313a20617070726f766520746f2063616c6c657200000000000000600082015250565b6000613139601983612014565b915061314482613103565b602082019050919050565b600060208201905081810360008301526131688161312c565b9050919050565b7f4552433732313a207472616e7366657220746f206e6f6e20455243373231526560008201527f63656976657220696d706c656d656e7465720000000000000000000000000000602082015250565b60006131cb603283612014565b91506131d68261316f565b604082019050919050565b600060208201905081810360008301526131fa816131be565b9050919050565b7f4552433732313a206d696e7420746f20746865207a65726f2061646472657373600082015250565b6000613237602083612014565b915061324282613201565b602082019050919050565b600060208201905081810360008301526132668161322a565b9050919050565b7f4552433732313a20746f6b656e20616c7265616479206d696e74656400000000600082015250565b60006132a3601c83612014565b91506132ae8261326d565b602082019050919050565b600060208201905081810360008301526132d281613296565b9050919050565b7f45524337323155524953746f726167653a2055524920736574206f66206e6f6e60008201527f6578697374656e7420746f6b656e000000000000000000000000000000000000602082015250565b6000613335602e83612014565b9150613340826132d9565b604082019050919050565b6000602082019050818103600083015261336481613328565b9050919050565b600081519050919050565b600082825260208201905092915050565b60006133928261336b565b61339c8185613376565b93506133ac818560208601612025565b6133b58161204f565b840191505092915050565b60006080820190506133d56000830187612150565b6133e26020830186612150565b6133ef6040830185612415565b81810360608301526134018184613387565b905095945050505050565b60008151905061341b81611f7a565b92915050565b60006020828403121561343757613436611f44565b5b60006134458482850161340c565b91505092915050565b6000613459826120bb565b91507fffffffffffffffffffffffffffffffffffffffffffffffffffffffffffffffff820361348b5761348a612bcc565b5b600182019050919050565b7f4e487b7100000000000000000000000000000000000000000000000000000000600052601260045260246000fd5b60006134d0826120bb565b91506134db836120bb565b9250826134eb576134ea613496565b5b828204905092915050565b6000613501826120bb565b915061350c836120bb565b92508261351c5761351b613496565b5b828206905092915050565b7f4e487b7100000000000000000000000000000000000000000000000000000000600052603260045260246000fdfea26469706673582212201ac37e9e7820c55fd603c7e08bbf1174b5b0e01bf1409ce4c0d9bac3dc1b86e564736f6c63430008110033",
  "immutableReferences": {},
  "source": "// SPDX-License-Identifier: GPL-3.0\n\nimport \"@openzeppelin/contracts/token/ERC721/ERC721.sol\";\nimport \"@openzeppelin/contracts/utils/math/SafeMath.sol\";\nimport \"@openzeppelin/contracts/utils/Counters.sol\";\nimport \"@openzeppelin/contracts/access/Ownable.sol\";\nimport \"@openzeppelin/contracts/token/ERC721/extensions/ERC721URIStorage.sol\";\nimport \"@openzeppelin/contracts/security/ReentrancyGuard.sol\";\n\npragma solidity >=0.8.4 <0.9.0;\n\n/// @title A Contract for minting an NFT\n/// @author K. Angelopoulos\n/// @notice You can use this contract to mint NFTs\ncontract NFTFactory is ERC721URIStorage, Ownable, ReentrancyGuard {\n\tusing SafeMath for uint256; /// @notice Library to protect against overflows\n\n\t/// @dev Struct to keep track of a user's winning NFTs\n\tstruct NFT {\n\t\taddress _userAddress; /// @dev NFT user address\n\t\tuint256 uid; /// @dev NFT uid for user\n\t\tuint256 tokenId; /// @dev NFT id in NFT factory\n\t\tstring metaDataURL; /// @dev NFT metadata URL\n\t}\n\n\t/// @dev Bool to enable minting\n\tbool public isMintEnabled;\n\t/// @dev Use a counter list for every nft minted\n\tusing Counters for Counters.Counter;\n\t/// @dev TokenIds list to store every nft token id minted\n\tCounters.Counter private _tokenIds;\n\t/// @custom:event create an event for mintNFT\n\tevent NFTMinted(uint256);\n\t/// @custom:event create an event for toggling minting\n\tevent MintToggle(bool);\n\n\tmapping(address => NFT[]) public nfts; /// @dev maps the winners to there winnings\n\n\t/// @dev Extend the contract with the ERC721 token constructor\n\t/// @dev Add Reentrancy Guard to protect against calling itself\n\tconstructor() ReentrancyGuard() ERC721(\"Consensys Lottery Club\", \"CLC\") {\n\t\tisMintEnabled = true; ///Enable minting on contract deploy\n\t}\n\n\t/// @notice toggle nft factory mint\n\t/// @dev toggle nft factory mint\n\tfunction toggleIsMintEnabled() external onlyOwner {\n\t\t/// @dev Toggle mint\n\t\tisMintEnabled = !isMintEnabled;\n\t\temit MintToggle(isMintEnabled);\n\t}\n\n\t/// @notice get nfts of specific address\n\t/// @param addr addres to get the nfts\n\t/// @return NFT return mapping of NFT's struct\n\tfunction getNFTSForAddress(address addr) public view returns (NFT[] memory) {\n\t\treturn nfts[addr];\n\t}\n\n\t/// @notice Function to mint an NFT\n\t/// @param recipient Address that the NFT will go to\n\t/// @param tokenURI The NFT token uri\n\t/// @return uint256 The new NFT token id\n\tfunction mint(address recipient, string memory tokenURI)\n\t\tpublic\n\t\treturns (uint256)\n\t{\n\t\trequire(isMintEnabled, \"Minting is not enabled\");\n\t\t/// @dev Create a new nft token id by incrementing the _tokenIds list\n\t\t_tokenIds.increment();\n\t\t///@dev Get the latest nft token id from the list\n\t\tuint256 newTokenId = _tokenIds.current();\n\t\t/// @dev Mint an nft and link it to the recipient address\n\t\t_mint(recipient, newTokenId);\n\t\t///@dev get nfts of winner\n\t\tuint256 newNFTUid = getNFTSForAddress(recipient).length;\n\t\t/// @dev Linkg the nft to a URI\n\t\t_setTokenURI(newTokenId, tokenURI);\n\t\t/// @dev update winners nfts with new nft id\n\t\tnfts[recipient].push(NFT(recipient, newNFTUid + 1, newTokenId, tokenURI));\n\t\t/// @dev emit event for minting an NFT\n\t\temit NFTMinted(newTokenId);\n\t\t/// @dev return nft id\n\t\treturn newTokenId;\n\t}\n}\n",
  "sourcePath": "C:\\Users\\kostas\\dev\\consensys\\web3-lottery\\node_modules\\crypto_lottery_contract\\contracts\\NFTFactory.sol",
  "compiler": {
    "name": "solc",
    "version": "0.8.17+commit.8df45f5f.Emscripten.clang"
  },
  "schemaVersion": "3.4.10",
  "updatedAt": "2022-12-30T18:07:56.239Z",
  "devdoc": {
    "author": "K. Angelopoulos",
    "events": {
      "MintToggle(bool)": {
        "custom:event": "create an event for toggling minting"
      },
      "NFTMinted(uint256)": {
        "custom:event": "create an event for mintNFT"
      }
    },
    "kind": "dev",
    "methods": {
      "approve(address,uint256)": {
        "details": "See {IERC721-approve}."
      },
      "balanceOf(address)": {
        "details": "See {IERC721-balanceOf}."
      },
      "constructor": {
        "details": "Extend the contract with the ERC721 token constructorAdd Reentrancy Guard to protect against calling itself"
      },
      "getApproved(uint256)": {
        "details": "See {IERC721-getApproved}."
      },
      "getNFTSForAddress(address)": {
        "params": {
          "addr": "addres to get the nfts"
        },
        "returns": {
          "_0": "NFT return mapping of NFT's struct"
        }
      },
      "isApprovedForAll(address,address)": {
        "details": "See {IERC721-isApprovedForAll}."
      },
      "mint(address,string)": {
        "params": {
          "recipient": "Address that the NFT will go to",
          "tokenURI": "The NFT token uri"
        },
        "returns": {
          "_0": "uint256 The new NFT token id"
        }
      },
      "name()": {
        "details": "See {IERC721Metadata-name}."
      },
      "owner()": {
        "details": "Returns the address of the current owner."
      },
      "ownerOf(uint256)": {
        "details": "See {IERC721-ownerOf}."
      },
      "renounceOwnership()": {
        "details": "Leaves the contract without owner. It will not be possible to call `onlyOwner` functions anymore. Can only be called by the current owner. NOTE: Renouncing ownership will leave the contract without an owner, thereby removing any functionality that is only available to the owner."
      },
      "safeTransferFrom(address,address,uint256)": {
        "details": "See {IERC721-safeTransferFrom}."
      },
      "safeTransferFrom(address,address,uint256,bytes)": {
        "details": "See {IERC721-safeTransferFrom}."
      },
      "setApprovalForAll(address,bool)": {
        "details": "See {IERC721-setApprovalForAll}."
      },
      "supportsInterface(bytes4)": {
        "details": "See {IERC165-supportsInterface}."
      },
      "symbol()": {
        "details": "See {IERC721Metadata-symbol}."
      },
      "toggleIsMintEnabled()": {
        "details": "toggle nft factory mint"
      },
      "tokenURI(uint256)": {
        "details": "See {IERC721Metadata-tokenURI}."
      },
      "transferFrom(address,address,uint256)": {
        "details": "See {IERC721-transferFrom}."
      },
      "transferOwnership(address)": {
        "details": "Transfers ownership of the contract to a new account (`newOwner`). Can only be called by the current owner."
      }
    },
    "stateVariables": {
      "_tokenIds": {
        "details": "TokenIds list to store every nft token id minted"
      },
      "isMintEnabled": {
        "details": "Bool to enable minting"
      }
    },
    "title": "A Contract for minting an NFT",
    "version": 1
  },
  "userdoc": {
    "kind": "user",
    "methods": {
      "getNFTSForAddress(address)": {
        "notice": "get nfts of specific address"
      },
      "mint(address,string)": {
        "notice": "Function to mint an NFT"
      },
      "toggleIsMintEnabled()": {
        "notice": "toggle nft factory mint"
      }
    },
    "notice": "You can use this contract to mint NFTs",
    "version": 1
  }
}