{
  "contractName": "TicketNFT",
  "abi": [
    {
      "inputs": [],
      "stateMutability": "nonpayable",
      "type": "constructor"
    },
    {
      "anonymous": false,
      "inputs": [
        {
          "indexed": true,
          "internalType": "address",
          "name": "owner",
          "type": "address"
        },
        {
          "indexed": true,
          "internalType": "address",
          "name": "approved",
          "type": "address"
        },
        {
          "indexed": true,
          "internalType": "uint256",
          "name": "tokenId",
          "type": "uint256"
        }
      ],
      "name": "Approval",
      "type": "event"
    },
    {
      "anonymous": false,
      "inputs": [
        {
          "indexed": true,
          "internalType": "address",
          "name": "owner",
          "type": "address"
        },
        {
          "indexed": true,
          "internalType": "address",
          "name": "operator",
          "type": "address"
        },
        {
          "indexed": false,
          "internalType": "bool",
          "name": "approved",
          "type": "bool"
        }
      ],
      "name": "ApprovalForAll",
      "type": "event"
    },
    {
      "anonymous": false,
      "inputs": [
        {
          "indexed": false,
          "internalType": "uint256",
          "name": "",
          "type": "uint256"
        }
      ],
      "name": "NFTMinted",
      "type": "event"
    },
    {
      "anonymous": false,
      "inputs": [
        {
          "indexed": true,
          "internalType": "address",
          "name": "previousOwner",
          "type": "address"
        },
        {
          "indexed": true,
          "internalType": "address",
          "name": "newOwner",
          "type": "address"
        }
      ],
      "name": "OwnershipTransferred",
      "type": "event"
    },
    {
      "anonymous": false,
      "inputs": [
        {
          "indexed": true,
          "internalType": "address",
          "name": "from",
          "type": "address"
        },
        {
          "indexed": true,
          "internalType": "address",
          "name": "to",
          "type": "address"
        },
        {
          "indexed": true,
          "internalType": "uint256",
          "name": "tokenId",
          "type": "uint256"
        }
      ],
      "name": "Transfer",
      "type": "event"
    },
    {
      "inputs": [
        {
          "internalType": "address",
          "name": "to",
          "type": "address"
        },
        {
          "internalType": "uint256",
          "name": "tokenId",
          "type": "uint256"
        }
      ],
      "name": "approve",
      "outputs": [],
      "stateMutability": "nonpayable",
      "type": "function"
    },
    {
      "inputs": [
        {
          "internalType": "address",
          "name": "owner",
          "type": "address"
        }
      ],
      "name": "balanceOf",
      "outputs": [
        {
          "internalType": "uint256",
          "name": "",
          "type": "uint256"
        }
      ],
      "stateMutability": "view",
      "type": "function"
    },
    {
      "inputs": [
        {
          "internalType": "uint256",
          "name": "tokenId",
          "type": "uint256"
        }
      ],
      "name": "getApproved",
      "outputs": [
        {
          "internalType": "address",
          "name": "",
          "type": "address"
        }
      ],
      "stateMutability": "view",
      "type": "function"
    },
    {
      "inputs": [
        {
          "internalType": "address",
          "name": "owner",
          "type": "address"
        },
        {
          "internalType": "address",
          "name": "operator",
          "type": "address"
        }
      ],
      "name": "isApprovedForAll",
      "outputs": [
        {
          "internalType": "bool",
          "name": "",
          "type": "bool"
        }
      ],
      "stateMutability": "view",
      "type": "function"
    },
    {
      "inputs": [],
      "name": "isMintEnabled",
      "outputs": [
        {
          "internalType": "bool",
          "name": "",
          "type": "bool"
        }
      ],
      "stateMutability": "view",
      "type": "function"
    },
    {
      "inputs": [],
      "name": "name",
      "outputs": [
        {
          "internalType": "string",
          "name": "",
          "type": "string"
        }
      ],
      "stateMutability": "view",
      "type": "function"
    },
    {
      "inputs": [],
      "name": "owner",
      "outputs": [
        {
          "internalType": "address",
          "name": "",
          "type": "address"
        }
      ],
      "stateMutability": "view",
      "type": "function"
    },
    {
      "inputs": [
        {
          "internalType": "uint256",
          "name": "tokenId",
          "type": "uint256"
        }
      ],
      "name": "ownerOf",
      "outputs": [
        {
          "internalType": "address",
          "name": "",
          "type": "address"
        }
      ],
      "stateMutability": "view",
      "type": "function"
    },
    {
      "inputs": [],
      "name": "renounceOwnership",
      "outputs": [],
      "stateMutability": "nonpayable",
      "type": "function"
    },
    {
      "inputs": [
        {
          "internalType": "address",
          "name": "from",
          "type": "address"
        },
        {
          "internalType": "address",
          "name": "to",
          "type": "address"
        },
        {
          "internalType": "uint256",
          "name": "tokenId",
          "type": "uint256"
        }
      ],
      "name": "safeTransferFrom",
      "outputs": [],
      "stateMutability": "nonpayable",
      "type": "function"
    },
    {
      "inputs": [
        {
          "internalType": "address",
          "name": "from",
          "type": "address"
        },
        {
          "internalType": "address",
          "name": "to",
          "type": "address"
        },
        {
          "internalType": "uint256",
          "name": "tokenId",
          "type": "uint256"
        },
        {
          "internalType": "bytes",
          "name": "data",
          "type": "bytes"
        }
      ],
      "name": "safeTransferFrom",
      "outputs": [],
      "stateMutability": "nonpayable",
      "type": "function"
    },
    {
      "inputs": [
        {
          "internalType": "address",
          "name": "operator",
          "type": "address"
        },
        {
          "internalType": "bool",
          "name": "approved",
          "type": "bool"
        }
      ],
      "name": "setApprovalForAll",
      "outputs": [],
      "stateMutability": "nonpayable",
      "type": "function"
    },
    {
      "inputs": [
        {
          "internalType": "bytes4",
          "name": "interfaceId",
          "type": "bytes4"
        }
      ],
      "name": "supportsInterface",
      "outputs": [
        {
          "internalType": "bool",
          "name": "",
          "type": "bool"
        }
      ],
      "stateMutability": "view",
      "type": "function"
    },
    {
      "inputs": [],
      "name": "symbol",
      "outputs": [
        {
          "internalType": "string",
          "name": "",
          "type": "string"
        }
      ],
      "stateMutability": "view",
      "type": "function"
    },
    {
      "inputs": [
        {
          "internalType": "uint256",
          "name": "tokenId",
          "type": "uint256"
        }
      ],
      "name": "tokenURI",
      "outputs": [
        {
          "internalType": "string",
          "name": "",
          "type": "string"
        }
      ],
      "stateMutability": "view",
      "type": "function"
    },
    {
      "inputs": [
        {
          "internalType": "address",
          "name": "from",
          "type": "address"
        },
        {
          "internalType": "address",
          "name": "to",
          "type": "address"
        },
        {
          "internalType": "uint256",
          "name": "tokenId",
          "type": "uint256"
        }
      ],
      "name": "transferFrom",
      "outputs": [],
      "stateMutability": "nonpayable",
      "type": "function"
    },
    {
      "inputs": [
        {
          "internalType": "address",
          "name": "newOwner",
          "type": "address"
        }
      ],
      "name": "transferOwnership",
      "outputs": [],
      "stateMutability": "nonpayable",
      "type": "function"
    },
    {
      "inputs": [],
      "name": "toggleIsMintEnabled",
      "outputs": [],
      "stateMutability": "nonpayable",
      "type": "function"
    },
    {
      "inputs": [
        {
          "internalType": "address",
          "name": "recipient",
          "type": "address"
        },
        {
          "internalType": "string",
          "name": "tokenURI",
          "type": "string"
        }
      ],
      "name": "mintNFT",
      "outputs": [
        {
          "internalType": "uint256",
          "name": "",
          "type": "uint256"
        }
      ],
      "stateMutability": "nonpayable",
      "type": "function"
    }
  ],
  "bytecode": "0x60806040523480156200001157600080fd5b506040518060400160405280601681526020017f436f6e73656e737973204c6f747465727920436c7562000000000000000000008152506040518060400160405280600381526020017f434c43000000000000000000000000000000000000000000000000000000000081525081600090816200008f919062000412565b508060019081620000a1919062000412565b505050620000c4620000b8620000ca60201b60201c565b620000d260201b60201c565b620004f9565b600033905090565b6000600760009054906101000a900473ffffffffffffffffffffffffffffffffffffffff16905081600760006101000a81548173ffffffffffffffffffffffffffffffffffffffff021916908373ffffffffffffffffffffffffffffffffffffffff1602179055508173ffffffffffffffffffffffffffffffffffffffff168173ffffffffffffffffffffffffffffffffffffffff167f8be0079c531659141344cd1fd0a4f28419497f9722a3daafe3b4186f6b6457e060405160405180910390a35050565b600081519050919050565b7f4e487b7100000000000000000000000000000000000000000000000000000000600052604160045260246000fd5b7f4e487b7100000000000000000000000000000000000000000000000000000000600052602260045260246000fd5b600060028204905060018216806200021a57607f821691505b60208210810362000230576200022f620001d2565b5b50919050565b60008190508160005260206000209050919050565b60006020601f8301049050919050565b600082821b905092915050565b6000600883026200029a7fffffffffffffffffffffffffffffffffffffffffffffffffffffffffffffffff826200025b565b620002a686836200025b565b95508019841693508086168417925050509392505050565b6000819050919050565b6000819050919050565b6000620002f3620002ed620002e784620002be565b620002c8565b620002be565b9050919050565b6000819050919050565b6200030f83620002d2565b620003276200031e82620002fa565b84845462000268565b825550505050565b600090565b6200033e6200032f565b6200034b81848462000304565b505050565b5b8181101562000373576200036760008262000334565b60018101905062000351565b5050565b601f821115620003c2576200038c8162000236565b62000397846200024b565b81016020851015620003a7578190505b620003bf620003b6856200024b565b83018262000350565b50505b505050565b600082821c905092915050565b6000620003e760001984600802620003c7565b1980831691505092915050565b6000620004028383620003d4565b9150826002028217905092915050565b6200041d8262000198565b67ffffffffffffffff811115620004395762000438620001a3565b5b62000445825462000201565b6200045282828562000377565b600060209050601f8311600181146200048a576000841562000475578287015190505b620004818582620003f4565b865550620004f1565b601f1984166200049a8662000236565b60005b82811015620004c4578489015182556001820191506020850194506020810190506200049d565b86831015620004e45784890151620004e0601f891682620003d4565b8355505b6001600288020188555050505b505050505050565b612f9780620005096000396000f3fe608060405234801561001057600080fd5b50600436106101215760003560e01c8063715018a6116100ad578063c407321711610071578063c4073217146102f4578063c87b56dd146102fe578063e985e9c51461032e578063eacabe141461035e578063f2fde38b1461038e57610121565b8063715018a6146102765780638da5cb5b1461028057806395d89b411461029e578063a22cb465146102bc578063b88d4fde146102d857610121565b806323b872dd116100f457806323b872dd146101c0578063346de50a146101dc57806342842e0e146101fa5780636352211e1461021657806370a082311461024657610121565b806301ffc9a71461012657806306fdde0314610156578063081812fc14610174578063095ea7b3146101a4575b600080fd5b610140600480360381019061013b9190611bac565b6103aa565b60405161014d9190611bf4565b60405180910390f35b61015e61048c565b60405161016b9190611c9f565b60405180910390f35b61018e60048036038101906101899190611cf7565b61051e565b60405161019b9190611d65565b60405180910390f35b6101be60048036038101906101b99190611dac565b610564565b005b6101da60048036038101906101d59190611dec565b61067b565b005b6101e46106db565b6040516101f19190611bf4565b60405180910390f35b610214600480360381019061020f9190611dec565b6106ee565b005b610230600480360381019061022b9190611cf7565b61070e565b60405161023d9190611d65565b60405180910390f35b610260600480360381019061025b9190611e3f565b6107bf565b60405161026d9190611e7b565b60405180910390f35b61027e610876565b005b61028861088a565b6040516102959190611d65565b60405180910390f35b6102a66108b4565b6040516102b39190611c9f565b60405180910390f35b6102d660048036038101906102d19190611ec2565b610946565b005b6102f260048036038101906102ed9190612037565b61095c565b005b6102fc6109be565b005b61031860048036038101906103139190611cf7565b6109f2565b6040516103259190611c9f565b60405180910390f35b610348600480360381019061034391906120ba565b610b04565b6040516103559190611bf4565b60405180910390f35b6103786004803603810190610373919061219b565b610b98565b6040516103859190611e7b565b60405180910390f35b6103a860048036038101906103a39190611e3f565b610c5e565b005b60007f80ac58cd000000000000000000000000000000000000000000000000000000007bffffffffffffffffffffffffffffffffffffffffffffffffffffffff1916827bffffffffffffffffffffffffffffffffffffffffffffffffffffffff1916148061047557507f5b5e139f000000000000000000000000000000000000000000000000000000007bffffffffffffffffffffffffffffffffffffffffffffffffffffffff1916827bffffffffffffffffffffffffffffffffffffffffffffffffffffffff1916145b80610485575061048482610ce1565b5b9050919050565b60606000805461049b90612226565b80601f01602080910402602001604051908101604052809291908181526020018280546104c790612226565b80156105145780601f106104e957610100808354040283529160200191610514565b820191906000526020600020905b8154815290600101906020018083116104f757829003601f168201915b5050505050905090565b600061052982610d4b565b6004600083815260200190815260200160002060009054906101000a900473ffffffffffffffffffffffffffffffffffffffff169050919050565b600061056f8261070e565b90508073ffffffffffffffffffffffffffffffffffffffff168373ffffffffffffffffffffffffffffffffffffffff16036105df576040517f08c379a00000000000000000000000000000000000000000000000000000000081526004016105d6906122c9565b60405180910390fd5b8073ffffffffffffffffffffffffffffffffffffffff166105fe610d96565b73ffffffffffffffffffffffffffffffffffffffff16148061062d575061062c81610627610d96565b610b04565b5b61066c576040517f08c379a00000000000000000000000000000000000000000000000000000000081526004016106639061235b565b60405180910390fd5b6106768383610d9e565b505050565b61068c610686610d96565b82610e57565b6106cb576040517f08c379a00000000000000000000000000000000000000000000000000000000081526004016106c2906123ed565b60405180910390fd5b6106d6838383610eec565b505050565b600760149054906101000a900460ff1681565b6107098383836040518060200160405280600081525061095c565b505050565b6000806002600084815260200190815260200160002060009054906101000a900473ffffffffffffffffffffffffffffffffffffffff169050600073ffffffffffffffffffffffffffffffffffffffff168173ffffffffffffffffffffffffffffffffffffffff16036107b6576040517f08c379a00000000000000000000000000000000000000000000000000000000081526004016107ad90612459565b60405180910390fd5b80915050919050565b60008073ffffffffffffffffffffffffffffffffffffffff168273ffffffffffffffffffffffffffffffffffffffff160361082f576040517f08c379a0000000000000000000000000000000000000000000000000000000008152600401610826906124eb565b60405180910390fd5b600360008373ffffffffffffffffffffffffffffffffffffffff1673ffffffffffffffffffffffffffffffffffffffff168152602001908152602001600020549050919050565b61087e611152565b61088860006111d0565b565b6000600760009054906101000a900473ffffffffffffffffffffffffffffffffffffffff16905090565b6060600180546108c390612226565b80601f01602080910402602001604051908101604052809291908181526020018280546108ef90612226565b801561093c5780601f106109115761010080835404028352916020019161093c565b820191906000526020600020905b81548152906001019060200180831161091f57829003601f168201915b5050505050905090565b610958610951610d96565b8383611296565b5050565b61096d610967610d96565b83610e57565b6109ac576040517f08c379a00000000000000000000000000000000000000000000000000000000081526004016109a3906123ed565b60405180910390fd5b6109b884848484611402565b50505050565b6109c6611152565b600760149054906101000a900460ff1615600760146101000a81548160ff021916908315150217905550565b60606109fd82610d4b565b6000600660008481526020019081526020016000208054610a1d90612226565b80601f0160208091040260200160405190810160405280929190818152602001828054610a4990612226565b8015610a965780601f10610a6b57610100808354040283529160200191610a96565b820191906000526020600020905b815481529060010190602001808311610a7957829003601f168201915b505050505090506000610aa761145e565b90506000815103610abc578192505050610aff565b600082511115610af1578082604051602001610ad9929190612547565b60405160208183030381529060405292505050610aff565b610afa84611475565b925050505b919050565b6000600560008473ffffffffffffffffffffffffffffffffffffffff1673ffffffffffffffffffffffffffffffffffffffff16815260200190815260200160002060008373ffffffffffffffffffffffffffffffffffffffff1673ffffffffffffffffffffffffffffffffffffffff16815260200190815260200160002060009054906101000a900460ff16905092915050565b6000610ba2611152565b600760149054906101000a900460ff16610bf1576040517f08c379a0000000000000000000000000000000000000000000000000000000008152600401610be8906125b7565b60405180910390fd5b610bfb60086114dd565b6000610c0760086114f3565b9050610c138482611501565b610c1d818461151f565b7fd9dc24857f317ed9abbbb42e920ede0104231eb1d3d70236a74887ffaf15986881604051610c4c9190611e7b565b60405180910390a18091505092915050565b610c66611152565b600073ffffffffffffffffffffffffffffffffffffffff168173ffffffffffffffffffffffffffffffffffffffff1603610cd5576040517f08c379a0000000000000000000000000000000000000000000000000000000008152600401610ccc90612649565b60405180910390fd5b610cde816111d0565b50565b60007f01ffc9a7000000000000000000000000000000000000000000000000000000007bffffffffffffffffffffffffffffffffffffffffffffffffffffffff1916827bffffffffffffffffffffffffffffffffffffffffffffffffffffffff1916149050919050565b610d548161158c565b610d93576040517f08c379a0000000000000000000000000000000000000000000000000000000008152600401610d8a90612459565b60405180910390fd5b50565b600033905090565b816004600083815260200190815260200160002060006101000a81548173ffffffffffffffffffffffffffffffffffffffff021916908373ffffffffffffffffffffffffffffffffffffffff160217905550808273ffffffffffffffffffffffffffffffffffffffff16610e118361070e565b73ffffffffffffffffffffffffffffffffffffffff167f8c5be1e5ebec7d5bd14f71427d1e84f3dd0314c0f7b2291e5b200ac8c7c3b92560405160405180910390a45050565b600080610e638361070e565b90508073ffffffffffffffffffffffffffffffffffffffff168473ffffffffffffffffffffffffffffffffffffffff161480610ea55750610ea48185610b04565b5b80610ee357508373ffffffffffffffffffffffffffffffffffffffff16610ecb8461051e565b73ffffffffffffffffffffffffffffffffffffffff16145b91505092915050565b8273ffffffffffffffffffffffffffffffffffffffff16610f0c8261070e565b73ffffffffffffffffffffffffffffffffffffffff1614610f62576040517f08c379a0000000000000000000000000000000000000000000000000000000008152600401610f59906126db565b60405180910390fd5b600073ffffffffffffffffffffffffffffffffffffffff168273ffffffffffffffffffffffffffffffffffffffff1603610fd1576040517f08c379a0000000000000000000000000000000000000000000000000000000008152600401610fc89061276d565b60405180910390fd5b610fdc8383836115f8565b610fe7600082610d9e565b6001600360008573ffffffffffffffffffffffffffffffffffffffff1673ffffffffffffffffffffffffffffffffffffffff168152602001908152602001600020600082825461103791906127bc565b925050819055506001600360008473ffffffffffffffffffffffffffffffffffffffff1673ffffffffffffffffffffffffffffffffffffffff168152602001908152602001600020600082825461108e91906127f0565b92505081905550816002600083815260200190815260200160002060006101000a81548173ffffffffffffffffffffffffffffffffffffffff021916908373ffffffffffffffffffffffffffffffffffffffff160217905550808273ffffffffffffffffffffffffffffffffffffffff168473ffffffffffffffffffffffffffffffffffffffff167fddf252ad1be2c89b69c2b068fc378daa952ba7f163c4a11628f55a4df523b3ef60405160405180910390a461114d8383836115fd565b505050565b61115a610d96565b73ffffffffffffffffffffffffffffffffffffffff1661117861088a565b73ffffffffffffffffffffffffffffffffffffffff16146111ce576040517f08c379a00000000000000000000000000000000000000000000000000000000081526004016111c590612870565b60405180910390fd5b565b6000600760009054906101000a900473ffffffffffffffffffffffffffffffffffffffff16905081600760006101000a81548173ffffffffffffffffffffffffffffffffffffffff021916908373ffffffffffffffffffffffffffffffffffffffff1602179055508173ffffffffffffffffffffffffffffffffffffffff168173ffffffffffffffffffffffffffffffffffffffff167f8be0079c531659141344cd1fd0a4f28419497f9722a3daafe3b4186f6b6457e060405160405180910390a35050565b8173ffffffffffffffffffffffffffffffffffffffff168373ffffffffffffffffffffffffffffffffffffffff1603611304576040517f08c379a00000000000000000000000000000000000000000000000000000000081526004016112fb906128dc565b60405180910390fd5b80600560008573ffffffffffffffffffffffffffffffffffffffff1673ffffffffffffffffffffffffffffffffffffffff16815260200190815260200160002060008473ffffffffffffffffffffffffffffffffffffffff1673ffffffffffffffffffffffffffffffffffffffff16815260200190815260200160002060006101000a81548160ff0219169083151502179055508173ffffffffffffffffffffffffffffffffffffffff168373ffffffffffffffffffffffffffffffffffffffff167f17307eab39ab6107e8899845ad3d59bd9653f200f220920489ca2b5937696c31836040516113f59190611bf4565b60405180910390a3505050565b61140d848484610eec565b61141984848484611602565b611458576040517f08c379a000000000000000000000000000000000000000000000000000000000815260040161144f9061296e565b60405180910390fd5b50505050565b606060405180602001604052806000815250905090565b606061148082610d4b565b600061148a61145e565b905060008151116114aa57604051806020016040528060008152506114d5565b806114b484611789565b6040516020016114c5929190612547565b6040516020818303038152906040525b915050919050565b6001816000016000828254019250508190555050565b600081600001549050919050565b61151b8282604051806020016040528060008152506118e9565b5050565b6115288261158c565b611567576040517f08c379a000000000000000000000000000000000000000000000000000000000815260040161155e90612a00565b60405180910390fd5b806006600084815260200190815260200160002090816115879190612bcc565b505050565b60008073ffffffffffffffffffffffffffffffffffffffff166002600084815260200190815260200160002060009054906101000a900473ffffffffffffffffffffffffffffffffffffffff1673ffffffffffffffffffffffffffffffffffffffff1614159050919050565b505050565b505050565b60006116238473ffffffffffffffffffffffffffffffffffffffff16611944565b1561177c578373ffffffffffffffffffffffffffffffffffffffff1663150b7a0261164c610d96565b8786866040518563ffffffff1660e01b815260040161166e9493929190612cf3565b6020604051808303816000875af19250505080156116aa57506040513d601f19601f820116820180604052508101906116a79190612d54565b60015b61172c573d80600081146116da576040519150601f19603f3d011682016040523d82523d6000602084013e6116df565b606091505b506000815103611724576040517f08c379a000000000000000000000000000000000000000000000000000000000815260040161171b9061296e565b60405180910390fd5b805181602001fd5b63150b7a0260e01b7bffffffffffffffffffffffffffffffffffffffffffffffffffffffff1916817bffffffffffffffffffffffffffffffffffffffffffffffffffffffff191614915050611781565b600190505b949350505050565b6060600082036117d0576040518060400160405280600181526020017f300000000000000000000000000000000000000000000000000000000000000081525090506118e4565b600082905060005b600082146118025780806117eb90612d81565b915050600a826117fb9190612df8565b91506117d8565b60008167ffffffffffffffff81111561181e5761181d611f0c565b5b6040519080825280601f01601f1916602001820160405280156118505781602001600182028036833780820191505090505b5090505b600085146118dd5760018261186991906127bc565b9150600a856118789190612e29565b603061188491906127f0565b60f81b81838151811061189a57611899612e5a565b5b60200101907effffffffffffffffffffffffffffffffffffffffffffffffffffffffffffff1916908160001a905350600a856118d69190612df8565b9450611854565b8093505050505b919050565b6118f38383611967565b6119006000848484611602565b61193f576040517f08c379a00000000000000000000000000000000000000000000000000000000081526004016119369061296e565b60405180910390fd5b505050565b6000808273ffffffffffffffffffffffffffffffffffffffff163b119050919050565b600073ffffffffffffffffffffffffffffffffffffffff168273ffffffffffffffffffffffffffffffffffffffff16036119d6576040517f08c379a00000000000000000000000000000000000000000000000000000000081526004016119cd90612ed5565b60405180910390fd5b6119df8161158c565b15611a1f576040517f08c379a0000000000000000000000000000000000000000000000000000000008152600401611a1690612f41565b60405180910390fd5b611a2b600083836115f8565b6001600360008473ffffffffffffffffffffffffffffffffffffffff1673ffffffffffffffffffffffffffffffffffffffff1681526020019081526020016000206000828254611a7b91906127f0565b92505081905550816002600083815260200190815260200160002060006101000a81548173ffffffffffffffffffffffffffffffffffffffff021916908373ffffffffffffffffffffffffffffffffffffffff160217905550808273ffffffffffffffffffffffffffffffffffffffff16600073ffffffffffffffffffffffffffffffffffffffff167fddf252ad1be2c89b69c2b068fc378daa952ba7f163c4a11628f55a4df523b3ef60405160405180910390a4611b3c600083836115fd565b5050565b6000604051905090565b600080fd5b600080fd5b60007fffffffff0000000000000000000000000000000000000000000000000000000082169050919050565b611b8981611b54565b8114611b9457600080fd5b50565b600081359050611ba681611b80565b92915050565b600060208284031215611bc257611bc1611b4a565b5b6000611bd084828501611b97565b91505092915050565b60008115159050919050565b611bee81611bd9565b82525050565b6000602082019050611c096000830184611be5565b92915050565b600081519050919050565b600082825260208201905092915050565b60005b83811015611c49578082015181840152602081019050611c2e565b60008484015250505050565b6000601f19601f8301169050919050565b6000611c7182611c0f565b611c7b8185611c1a565b9350611c8b818560208601611c2b565b611c9481611c55565b840191505092915050565b60006020820190508181036000830152611cb98184611c66565b905092915050565b6000819050919050565b611cd481611cc1565b8114611cdf57600080fd5b50565b600081359050611cf181611ccb565b92915050565b600060208284031215611d0d57611d0c611b4a565b5b6000611d1b84828501611ce2565b91505092915050565b600073ffffffffffffffffffffffffffffffffffffffff82169050919050565b6000611d4f82611d24565b9050919050565b611d5f81611d44565b82525050565b6000602082019050611d7a6000830184611d56565b92915050565b611d8981611d44565b8114611d9457600080fd5b50565b600081359050611da681611d80565b92915050565b60008060408385031215611dc357611dc2611b4a565b5b6000611dd185828601611d97565b9250506020611de285828601611ce2565b9150509250929050565b600080600060608486031215611e0557611e04611b4a565b5b6000611e1386828701611d97565b9350506020611e2486828701611d97565b9250506040611e3586828701611ce2565b9150509250925092565b600060208284031215611e5557611e54611b4a565b5b6000611e6384828501611d97565b91505092915050565b611e7581611cc1565b82525050565b6000602082019050611e906000830184611e6c565b92915050565b611e9f81611bd9565b8114611eaa57600080fd5b50565b600081359050611ebc81611e96565b92915050565b60008060408385031215611ed957611ed8611b4a565b5b6000611ee785828601611d97565b9250506020611ef885828601611ead565b9150509250929050565b600080fd5b600080fd5b7f4e487b7100000000000000000000000000000000000000000000000000000000600052604160045260246000fd5b611f4482611c55565b810181811067ffffffffffffffff82111715611f6357611f62611f0c565b5b80604052505050565b6000611f76611b40565b9050611f828282611f3b565b919050565b600067ffffffffffffffff821115611fa257611fa1611f0c565b5b611fab82611c55565b9050602081019050919050565b82818337600083830152505050565b6000611fda611fd584611f87565b611f6c565b905082815260208101848484011115611ff657611ff5611f07565b5b612001848285611fb8565b509392505050565b600082601f83011261201e5761201d611f02565b5b813561202e848260208601611fc7565b91505092915050565b6000806000806080858703121561205157612050611b4a565b5b600061205f87828801611d97565b945050602061207087828801611d97565b935050604061208187828801611ce2565b925050606085013567ffffffffffffffff8111156120a2576120a1611b4f565b5b6120ae87828801612009565b91505092959194509250565b600080604083850312156120d1576120d0611b4a565b5b60006120df85828601611d97565b92505060206120f085828601611d97565b9150509250929050565b600067ffffffffffffffff82111561211557612114611f0c565b5b61211e82611c55565b9050602081019050919050565b600061213e612139846120fa565b611f6c565b90508281526020810184848401111561215a57612159611f07565b5b612165848285611fb8565b509392505050565b600082601f83011261218257612181611f02565b5b813561219284826020860161212b565b91505092915050565b600080604083850312156121b2576121b1611b4a565b5b60006121c085828601611d97565b925050602083013567ffffffffffffffff8111156121e1576121e0611b4f565b5b6121ed8582860161216d565b9150509250929050565b7f4e487b7100000000000000000000000000000000000000000000000000000000600052602260045260246000fd5b6000600282049050600182168061223e57607f821691505b602082108103612251576122506121f7565b5b50919050565b7f4552433732313a20617070726f76616c20746f2063757272656e74206f776e6560008201527f7200000000000000000000000000000000000000000000000000000000000000602082015250565b60006122b3602183611c1a565b91506122be82612257565b604082019050919050565b600060208201905081810360008301526122e2816122a6565b9050919050565b7f4552433732313a20617070726f76652063616c6c6572206973206e6f7420746f60008201527f6b656e206f776e6572206e6f7220617070726f76656420666f7220616c6c0000602082015250565b6000612345603e83611c1a565b9150612350826122e9565b604082019050919050565b6000602082019050818103600083015261237481612338565b9050919050565b7f4552433732313a2063616c6c6572206973206e6f7420746f6b656e206f776e6560008201527f72206e6f7220617070726f766564000000000000000000000000000000000000602082015250565b60006123d7602e83611c1a565b91506123e28261237b565b604082019050919050565b60006020820190508181036000830152612406816123ca565b9050919050565b7f4552433732313a20696e76616c696420746f6b656e2049440000000000000000600082015250565b6000612443601883611c1a565b915061244e8261240d565b602082019050919050565b6000602082019050818103600083015261247281612436565b9050919050565b7f4552433732313a2061646472657373207a65726f206973206e6f74206120766160008201527f6c6964206f776e65720000000000000000000000000000000000000000000000602082015250565b60006124d5602983611c1a565b91506124e082612479565b604082019050919050565b60006020820190508181036000830152612504816124c8565b9050919050565b600081905092915050565b600061252182611c0f565b61252b818561250b565b935061253b818560208601611c2b565b80840191505092915050565b60006125538285612516565b915061255f8284612516565b91508190509392505050565b7f4d696e74696e67206973206e6f7420656e61626c656400000000000000000000600082015250565b60006125a1601683611c1a565b91506125ac8261256b565b602082019050919050565b600060208201905081810360008301526125d081612594565b9050919050565b7f4f776e61626c653a206e6577206f776e657220697320746865207a65726f206160008201527f6464726573730000000000000000000000000000000000000000000000000000602082015250565b6000612633602683611c1a565b915061263e826125d7565b604082019050919050565b6000602082019050818103600083015261266281612626565b9050919050565b7f4552433732313a207472616e736665722066726f6d20696e636f72726563742060008201527f6f776e6572000000000000000000000000000000000000000000000000000000602082015250565b60006126c5602583611c1a565b91506126d082612669565b604082019050919050565b600060208201905081810360008301526126f4816126b8565b9050919050565b7f4552433732313a207472616e7366657220746f20746865207a65726f2061646460008201527f7265737300000000000000000000000000000000000000000000000000000000602082015250565b6000612757602483611c1a565b9150612762826126fb565b604082019050919050565b600060208201905081810360008301526127868161274a565b9050919050565b7f4e487b7100000000000000000000000000000000000000000000000000000000600052601160045260246000fd5b60006127c782611cc1565b91506127d283611cc1565b92508282039050818111156127ea576127e961278d565b5b92915050565b60006127fb82611cc1565b915061280683611cc1565b925082820190508082111561281e5761281d61278d565b5b92915050565b7f4f776e61626c653a2063616c6c6572206973206e6f7420746865206f776e6572600082015250565b600061285a602083611c1a565b915061286582612824565b602082019050919050565b600060208201905081810360008301526128898161284d565b9050919050565b7f4552433732313a20617070726f766520746f2063616c6c657200000000000000600082015250565b60006128c6601983611c1a565b91506128d182612890565b602082019050919050565b600060208201905081810360008301526128f5816128b9565b9050919050565b7f4552433732313a207472616e7366657220746f206e6f6e20455243373231526560008201527f63656976657220696d706c656d656e7465720000000000000000000000000000602082015250565b6000612958603283611c1a565b9150612963826128fc565b604082019050919050565b600060208201905081810360008301526129878161294b565b9050919050565b7f45524337323155524953746f726167653a2055524920736574206f66206e6f6e60008201527f6578697374656e7420746f6b656e000000000000000000000000000000000000602082015250565b60006129ea602e83611c1a565b91506129f58261298e565b604082019050919050565b60006020820190508181036000830152612a19816129dd565b9050919050565b60008190508160005260206000209050919050565b60006020601f8301049050919050565b600082821b905092915050565b600060088302612a827fffffffffffffffffffffffffffffffffffffffffffffffffffffffffffffffff82612a45565b612a8c8683612a45565b95508019841693508086168417925050509392505050565b6000819050919050565b6000612ac9612ac4612abf84611cc1565b612aa4565b611cc1565b9050919050565b6000819050919050565b612ae383612aae565b612af7612aef82612ad0565b848454612a52565b825550505050565b600090565b612b0c612aff565b612b17818484612ada565b505050565b5b81811015612b3b57612b30600082612b04565b600181019050612b1d565b5050565b601f821115612b8057612b5181612a20565b612b5a84612a35565b81016020851015612b69578190505b612b7d612b7585612a35565b830182612b1c565b50505b505050565b600082821c905092915050565b6000612ba360001984600802612b85565b1980831691505092915050565b6000612bbc8383612b92565b9150826002028217905092915050565b612bd582611c0f565b67ffffffffffffffff811115612bee57612bed611f0c565b5b612bf88254612226565b612c03828285612b3f565b600060209050601f831160018114612c365760008415612c24578287015190505b612c2e8582612bb0565b865550612c96565b601f198416612c4486612a20565b60005b82811015612c6c57848901518255600182019150602085019450602081019050612c47565b86831015612c895784890151612c85601f891682612b92565b8355505b6001600288020188555050505b505050505050565b600081519050919050565b600082825260208201905092915050565b6000612cc582612c9e565b612ccf8185612ca9565b9350612cdf818560208601611c2b565b612ce881611c55565b840191505092915050565b6000608082019050612d086000830187611d56565b612d156020830186611d56565b612d226040830185611e6c565b8181036060830152612d348184612cba565b905095945050505050565b600081519050612d4e81611b80565b92915050565b600060208284031215612d6a57612d69611b4a565b5b6000612d7884828501612d3f565b91505092915050565b6000612d8c82611cc1565b91507fffffffffffffffffffffffffffffffffffffffffffffffffffffffffffffffff8203612dbe57612dbd61278d565b5b600182019050919050565b7f4e487b7100000000000000000000000000000000000000000000000000000000600052601260045260246000fd5b6000612e0382611cc1565b9150612e0e83611cc1565b925082612e1e57612e1d612dc9565b5b828204905092915050565b6000612e3482611cc1565b9150612e3f83611cc1565b925082612e4f57612e4e612dc9565b5b828206905092915050565b7f4e487b7100000000000000000000000000000000000000000000000000000000600052603260045260246000fd5b7f4552433732313a206d696e7420746f20746865207a65726f2061646472657373600082015250565b6000612ebf602083611c1a565b9150612eca82612e89565b602082019050919050565b60006020820190508181036000830152612eee81612eb2565b9050919050565b7f4552433732313a20746f6b656e20616c7265616479206d696e74656400000000600082015250565b6000612f2b601c83611c1a565b9150612f3682612ef5565b602082019050919050565b60006020820190508181036000830152612f5a81612f1e565b905091905056fea26469706673582212208ed11917b95167cae5117802cd5df6771b141582034c405c84e0ade9bce5d08a64736f6c63430008110033",
  "immutableReferences": {},
  "source": "//Contract based on [https://docs.openzeppelin.com/contracts/3.x/erc721](https://docs.openzeppelin.com/contracts/3.x/erc721)\n// SPDX-License-Identifier: GPL-3.0\n\nimport \"@openzeppelin/contracts/token/ERC721/ERC721.sol\";\nimport \"@openzeppelin/contracts/utils/math/SafeMath.sol\";\nimport \"@openzeppelin/contracts/utils/Counters.sol\";\nimport \"@openzeppelin/contracts/access/Ownable.sol\";\nimport \"@openzeppelin/contracts/token/ERC721/extensions/ERC721URIStorage.sol\";\n\npragma solidity >=0.8.4 <0.9.0;\n\ncontract TicketNFT is ERC721URIStorage, Ownable {\n\tusing SafeMath for uint256;\n\t// Bool to enable minting\n\tbool public isMintEnabled;\n\t// Use a counter list for every nft minted\n\tusing Counters for Counters.Counter;\n\t// TokenIds list to store every nft token id minted\n\tCounters.Counter private _tokenIds;\n\t// create an event for mintNFT\n\tevent NFTMinted(uint256);\n\n\t// Extend the contract with the ERC721 token constructor\n\tconstructor() ERC721(\"Consensys Lottery Club\", \"CLC\") {}\n\n\tfunction toggleIsMintEnabled() external onlyOwner {\n\t\t// Toggle mint\n\t\tisMintEnabled = !isMintEnabled;\n\t}\n\n\t// Function to mint an NFT\n\tfunction mintNFT(address recipient, string memory tokenURI)\n\t\tpublic\n\t\tonlyOwner\n\t\treturns (uint256)\n\t{\n\t\trequire(isMintEnabled, \"Minting is not enabled\");\n\t\t// Create a new nft token id by incrementing the _tokenIds list\n\t\t_tokenIds.increment();\n\t\t// Get the latest nft token id from the list\n\t\tuint256 newTokenId = _tokenIds.current();\n\t\t// Mint an nft and link it to the recipient address\n\t\t_safeMint(recipient, newTokenId);\n\t\t// Linkg the nft to a URI\n\t\t_setTokenURI(newTokenId, tokenURI);\n\t\temit NFTMinted(newTokenId);\n\n\t\treturn newTokenId;\n\t}\n}\n",
  "sourcePath": "D:\\dev\\consensys\\web3-lottery\\node_modules\\crypto_lottery_contract\\contracts\\TicketNFT.sol",
  "compiler": {
    "name": "solc",
    "version": "0.8.17+commit.8df45f5f.Emscripten.clang"
  },
  "schemaVersion": "3.4.10",
  "updatedAt": "2022-10-20T18:26:14.253Z",
  "devdoc": {
    "kind": "dev",
    "methods": {
      "approve(address,uint256)": {
        "details": "See {IERC721-approve}."
      },
      "balanceOf(address)": {
        "details": "See {IERC721-balanceOf}."
      },
      "getApproved(uint256)": {
        "details": "See {IERC721-getApproved}."
      },
      "isApprovedForAll(address,address)": {
        "details": "See {IERC721-isApprovedForAll}."
      },
      "name()": {
        "details": "See {IERC721Metadata-name}."
      },
      "owner()": {
        "details": "Returns the address of the current owner."
      },
      "ownerOf(uint256)": {
        "details": "See {IERC721-ownerOf}."
      },
      "renounceOwnership()": {
        "details": "Leaves the contract without owner. It will not be possible to call `onlyOwner` functions anymore. Can only be called by the current owner. NOTE: Renouncing ownership will leave the contract without an owner, thereby removing any functionality that is only available to the owner."
      },
      "safeTransferFrom(address,address,uint256)": {
        "details": "See {IERC721-safeTransferFrom}."
      },
      "safeTransferFrom(address,address,uint256,bytes)": {
        "details": "See {IERC721-safeTransferFrom}."
      },
      "setApprovalForAll(address,bool)": {
        "details": "See {IERC721-setApprovalForAll}."
      },
      "supportsInterface(bytes4)": {
        "details": "See {IERC165-supportsInterface}."
      },
      "symbol()": {
        "details": "See {IERC721Metadata-symbol}."
      },
      "tokenURI(uint256)": {
        "details": "See {IERC721Metadata-tokenURI}."
      },
      "transferFrom(address,address,uint256)": {
        "details": "See {IERC721-transferFrom}."
      },
      "transferOwnership(address)": {
        "details": "Transfers ownership of the contract to a new account (`newOwner`). Can only be called by the current owner."
      }
    },
    "version": 1
  },
  "userdoc": {
    "kind": "user",
    "methods": {},
    "version": 1
  }
}